:030000000209E909
:0C09E900787FE4F6D8FD75813C020A30EE
:0C000300000000000000000000000000F1
:0B0C4000EF1FAC0670011E4C70F62286
:100C0300AB07AA06EB1BAE0270011A4E60097FAA5E
:080C13007E05120C4080ED2269
:10091B00907120E04480F07F057E00120C40E4FFD4
:10092B00FE120C0375A75575AC589071327450F0CC
:10093B009071307403F0907136742FF07F18EF24A0
:10094B0066FDE434718D82F583E4F00FBF33EF90D5
:10095B004011E4935407FF90711CE054F84FF09052
:10096B004017E493547FFF90711DE054804FF0903B
:10097B004010E493FF5401C43333335480FE907121
:10098B0023E0547F4EF0EFC313543F4440FFA3E0EA
:10099B0054804FF0904012E493FF540FFE90714639
:1009AB00E054F04EF0EFC4540FFF90714FE054F051
:1009BB004FF0904013E493543FFF907140E054C0CC
:1009CB004FF0904014E493907126F0904015E4930F
:0D09DB00907128F0904016E49390712AF07E
:0109E80022EC
:040C1B00023A000099
:100B1D0078D3E24430F278E2E24430F2786AE2448B
:100B2D0078F27591FF907123E054D8F0E04459F0BC
:0D0B3D009071227407F0439E70439940228E
:100B6F007869E254B7F2539940BF010543990E805B
:100B7F0006BF02034399127869E24448F27F017E6F
:040B8F0000020C0351
:10084100E4FBF522F523F527F526F525F524F52812
:10085100F52974FFF52AF52B7869E24401F2786BEA
:10086100E230E1FAAF93EF75F010A4FFE594C454C0
:100871000FFDE5F0F522EF4DF5237402F2EBC39481
:1008810002403DD3E5239529E5229528400685229E
:1008910028852329C3E523952BE522952A50068532
:1008A100222A85232BAE22AF23E4FCFDE5272FF579
:1008B10027E5263EF526ED3525F525EC3524F524ED
:1008C1000BEB64147092AE28AF29AB07AA06C3E5FF
:1008D100279FF527E5269AF526E5259400F525E5D8
:1008E100249400F524AE2AAF2BAB07AA06C3E52753
:1008F1009FF527E5269AF526E5259400F525E524BB
:100901009400F524AF27AE26AD25AC24780412045B
:09091100B88E228F23AE22AF2321
:01091A0022BA
:020C1F00C10B07
:100BB50043A820D2AF75D1017895E4F2187424F2D8
:0A0BC500789174A0F21874FDF2227A
:03001E000206EAED
:1006EA00C0E0C0F0C083C082C0D075D000C000C0D6
:1006FA0001C002C003C004C005C006C0077891E269
:0A070A0020E703020826E24480F213
:10071400D3E5359414E534940550080535E5357072
:1007240002053430B045D20BD3E53594B0E53494AA
:10073400045003020826E4FFFEFDFCAB39AA38A9E5
:1007440037A8361204A7601E200A1BAF39AE38AD95
:1007540037AC3612049A8F3C7539007538007537FA
:1007640000753600D20AC209020826200B030208CB
:1007740024D3E5359408E53494005005C2090208F1
:100784001ED3E5359412E53494005017AF39AE38D2
:10079400AD37AC3678011204CB8F398E388D378C57
:1007A400368077D3E535941AE53494005029AF396F
:1007B400AE38AD37AC3678011204CB8F398E388D14
:1007C400378C36E5394401F539E538F538E537F540
:1007D40037E536F5368043D3E5359496E534940011
:1007E4004038D3E53594A4E53494015020200A2AF6
:1007F400AF39AE38AD37AC3612049A8F3C75390038
:10080400753800753700753600D20A800DD3E5358A
:1008140094B0E53494045002D2097534007535005F
:02082400C20B05
:10082600D007D006D005D004D003D002D001D00026
:0B083600D0D0D082D083D0F0D0E032D0
:100AEE0078E3E254F3F2E24404F29071937410F05E
:100AFE0075D10278A17409F218745FF278A37401AB
:0F0B0E00F21874AFF2789D74A0F21874E2F2221C
:100B93009071937410F075D10278A17401F21874F6
:100BA300C8F278A3E4F218F2789D74A0F21874E204
:020BB300F2222C
:100B4A009071937410F075D10278A17409F2187437
:100B5A005FF278A37401F21874AFF2789D74A0F270
:050B6A001874E2F22204
:0E000F00789CE254FCF2907193E4F0C2A522BA
:080C56008FD7E5D430E4FB2246
:100BCF0078C2E254CFF2E24410F29071807404F0D4
:0A0BDF0075D60175D59F75D210225E
:0B0C4B007379732072657365740A00F2
:100ABC0075D9DD12091B75D95590715EE054FEF0A5
:100ACC0075D9BB120BCF120AEE12000F120B1D7B45
:100ADC00FF7A0C794B1200837F02120B6F120B4AB8
:020AEC0080FE8A
:0D0C3300E5F430E4FB8FF7E5F430E4FB223C
:100BE90078E3E254F3F2E24404F29071937404F06E
:0A0BF90075D60175D59F75D2102244
:100A7500696E206368617267696E670A00646973ED
:100A850061626C65206368617267650A006C6F77E7
:100A950020666571206368617267650A0063757217
:100AA5002070776D2070657263656E74203A20251D
:070AB5006C752025250A00E5
:0A0C2100011F00011E00021C00006C
:10056C007F01120B6F1208418E2C8F2D7F02120B04
:10057C006F1208418E2E8F2FE51F7019C3E52D9435
:10058C0090E52C940350030206E9751F017BFF7A5A
:05059C000A797580657D
:1005A100D3E52D94E8E52C94024015E52D949DE5C5
:1005B1002C940B500BC3E52F9466E52E940E40103E
:1005C10012000FE4F51FF51E7BFF7A0A7982803550
:1005D100D3E52F9466E52E940B4015E52F9433E572
:1005E1002E940E500BC3E52D94A2E52C94035018C4
:1005F100E51E640170030206E9120B4A751E017BB8
:08060100FF7A0A7992020083DE
:10060900E51E64026006120B93751E02E51E640264
:1006190060030206E9AE2CAF2DFCFD7B367AA37987
:1006290002F812037DE4FB7A10F9F8120408A80411
:10063900A905AA06C3747E9FF53374E59AF5327449
:080649000199F531E498F53048
:10065100051DE51D7002051CC39464E51C94004052
:1006610027E4F51CF51D7BE87A03F9F8AF33AE32C8
:10067100AD31AC301204088F0E8E0D8D0C8C0B7BBE
:08068100FF7A0A79A21200833E
:10068900E47FC87E01FDFCAB33AA32A931A8301240
:10069900037DE47BE87A03F9F8120408E47B64FA41
:1006A900F9F81204088F338E328D318C30E4FFFE55
:1006B900FDFCAB33AA32A931A830C31204A77009D3
:1006C900753301F532F531F530AF33AE32AD31ACBA
:1006D9003078081204B878A3EFF2E533FF18EFF287
:0106E90022EE
:070C2B00013C00C109C10AF0
:1009F500020ABCE493A3F8E493A34003F68001F252
:100A050008DFF48029E493A3F85407240CC8C33302
:100A1500C4540F4420C8834004F456800146F6DFD1
:100A2500E4800B0102040810204080900C1BE47E3A
:100A3500019360BCA3FF543F30E509541FFEE493C6
:100A4500A360010ECF54C025E060A840B8E493A38D
:100A5500FAE493A3F8E493A3C8C582C8CAC583CAB8
:100A6500F0A3C8C582C8CAC583CADFE9DEE780BE70
:010C320000C1
:10037D00E88FF0A4CC8BF0A42CFCE98EF0A42CFC1F
:10038D008AF0EDA42CFCEA8EF0A4CDA8F08BF0A49D
:10039D002DCC3825F0FDE98FF0A42CCD35F0FCEBFC
:1003AD008EF0A4FEA9F0EB8FF0A4CFC5F02ECD39C1
:0F03BD00FEE43CFCEAA42DCE35F0FDE43CFC222E
:1003CC0075F008758200EF2FFFEE33FECD33CDCCE8
:1003DC0033CCC58233C5829BED9AEC99E58298406B
:1003EC000CF582EE9BFEED9AFDEC99FC0FD5F0D648
:1003FC00E4CEFBE4CDFAE4CCF9A88222B800C1B972
:10040C000059BA002DEC8BF084CFCECDFCE5F0CBAF
:10041C00F97818EF2FFFEE33FEED33FDEC33FCEBE8
:10042C0033FB10D703994004EB99FB0FD8E5E4F9A3
:10043C00FA227818EF2FFFEE33FEED33FDEC33FC90
:10044C00C933C910D7059BE99A4007EC9BFCE99A84
:10045C00F90FD8E0E4C9FAE4CCFB2275F010EF2FC9
:10046C00FFEE33FEED33FDCC33CCC833C810D707C9
:10047C009BEC9AE899400AED9BFDEC9AFCE899F804
:0E048C000FD5F0DAE4CDFBE4CCFAE4C8F92297
:0D049A00CFF4CFCEF4CECDF4CDCCF4CC22F7
:1004A700EB9FF5F0EA9E42F0E99D42F0E89C45F0AB
:0104B7002222
:1004B800E8600FECC313FCED13FDEE13FEEF13FF22
:0304C800D8F12246
:1004CB00E8600FEFC333FFEE33FEED33FDEC33FC8F
:0304DB00D8F12233
:10002100E517240BF8E60517227808300702780B4C
:10003100E475F0011205360204DE2000EB7F2ED2BA
:10004100008018EF540F2490D43440D4FF30040BB7
:10005100EF24BFB41A0050032461FFE518600215B4
:1000610018051BE51B7002051A30070D7808E475A9
:10007100F001120536EF020524020C567403D20773
:100081008003E4C207F5178B088A09890AE4F51889
:10009100F51AF51BE51860077F2012005C80F575E5
:1000A10019FFC201C200C202C203C205C206C208D0
:1000B10012002AFF700D3007057F0012006DAF1B83
:1000C100AE1A22B4255FC2D5C20412002AFF24D081
:1000D100B40A00501A75F00A781830D50508B6FF31
:1000E1000106C6A426F620D5047002D20380D924C5
:1000F100CFB41A00EF5004C2E5D20402026DD2015E
:1001010080C6D20080C0D20280BCD2D580BAD205CE
:1001110080B47F2012005C2002077401B5180040F2
:10012100F1120021FF12005C020095D208D2068074
:1001310095120021FB120021FA120021F94A4B709D
:1001410006793E7A037BFF20022EE518602A7E00A5
:100151008E827583001204F760060EEE651970F049
:10016100C2D5EBC0E0EAC0E0E9C0E0EE1202B4D0D3
:10017100E0F9D0E0FAD0E0FB1204DEFF60AAEBC0A8
:10018100E0EAC0E0E9C0E012005CD0E02401F9D06F
:10019100E03400FAD0E0FBE5190460DCD519D98020
:1001A100877BFF7A0279B0D202809C791080027934
:1001B10008C206C2088008D2D5790A8004790AC229
:1001C100D5E519047002F519E4FAFDFEFF120021CC
:1001D100FC7B08200113120021FD7B1030000A1264
:1001E1000021FE120021FF7B20EC3382D592D550F5
:1001F10013C3E43000069FFFE49EFEE42001039D4B
:10020100FDE49CFCE4CBF8C201EC700CCFCECDCC6C
:10021100E824F8F870F38017C3EF33FFEE33FEEDF7
:1002210033FDEC33FCEB33FB994002FB0FD8E9EBD8
:10023100300105F8D0E0C448B201C0E00AEC4D4EEF
:100241004F78207B0070C2EAB5190040BCC0E012B3
:1002510002B6D0F0D0E0200104C4C0E0C4B201C0B5
:10026100F0120045D0F0D5F0EB02009512054601E1
:10027100325301AC5801034C00FF4201B04F01B8A9
:0F0281004401B84901184301BE5501A24601A22C
:100290004501A247035E5001072D010B2E012E2BB5
:1002A000010F23012C2003472A00C7480000012624
:1002B0003F3F3F00790AA2D5200314300509B91049
:1002C000020404B9080104A2D5200602500104204A
:1002D00002689202B518005034C0E07F2030031944
:1002E0007F30A20272067205500F12030DC202C2C5
:1002F00006C205C2087F30800F300503E9C0E01256
:10030000005C300503D0E0F9D0E0B518CC3005171B
:100310007F30B9100C12005C7F583004077F788062
:1003200003B9080312005C3002057F2D02005C7FD8
:10033000202008F87F2B2006F322920280CF286E1F
:10034000756C6C2900D2011200213001F8C20178CD
:100350001830D50108F60200C72D50434958120045
:10036000212403B405004001E49003599312004D89
:0D037000743A12004DD2037518040201AC5E
:1004DE00BB010689828A83E0225002E722BBFE021C
:0904EE00E32289828A83E493224F
:1004F700BB010CE58229F582E5833AF583E02250BA
:1005070006E92582F8E622BBFE06E92582F8E22203
:0D051700E58229F582E5833AF583E493221D
:10052400BB010689828A83F0225002F722BBFE01B6
:02053400F322B0
:10053600FAE6FB0808E6F925F0F618E6CA3AF622C6
:10054600D083D082F8E4937012740193700DA3A344
:1005560093F8740193F5828883E473740293686058
:06056600EFA3A3A380DF58
:00000001FF
