:030000000217D113
:0C17D100787FE4F6D8FD7581210218181D
:0C000300000000000000000000000000F1
:0B1BF100EF1FAC0670011E4C70F622C6
:101B0B00AB07AA06EB1BAE0270011A4E60097FAA47
:081B1B007E05121BF180ED2292
:10163C00907120E04480F07F057E00121BF1E4FFE6
:10164C00FE121B0B75A75575AC589071327450F087
:10165C009071307403F0907136742FF07F18EF2472
:10166C0066FDE434718D82F583E4F00FEFB433EE54
:10167C00904011E4935407FF90711CE054F84FF024
:10168C00904017E493547FFF90711DE054804FF00D
:10169C00904010E493FF5401C43333335480FE90D4
:1016AC007123E0547F4EF0EFC313543F4440FFA32B
:1016BC00E054804FF0904012E493FF540FFE907171
:1016CC0046E054F04EF0EFC4540FFF90714FE054CD
:1016DC00F04FF0904013E493543FFF907140E0546E
:1016EC00C04FF0904014E493907126F0904015E4B4
:0E16FC0093907128F0904016E49390712AF0BC
:01170A0022BC
:05155800426086000066
:1019AB0078D3E24430F278E2E24430F278F2E24467
:1019BB000CF2786AE24478F27591FF907123E0544F
:1019CB00D8F0E04459F09071227407F0439E7043B5
:0319DB009940220E
:101A3300907123E054D8F0EF7006E04459F0800B26
:101A4300EFB40107907123E0445BF07869E2444806
:081A5300F27F017E00021B0B73
:101A0A00539940EFB4010543990E8010EFB40205D3
:101A1A004399128007EFB403034399197869E244A2
:091A2A0048F27F017E00021B0B53
:1013F600E490607BF0A3F0A3F090607E1211D80019
:10140600000000E4906082F0A3F074FF906084F026
:10141600A3F0E490607BF07869E24401F2786BE235
:1014260030E1FAAF93EF75F010A4FFE594C4540FC2
:10143600FDEF4DFF90607CE5F0F0A3EFF07402F253
:1014460090607BE0C39402406D906082E0FEA3E072
:10145600FFD390607DE09F90607CE09E400CE0FFB3
:10146600A3E0906082CFF0A3EFF0906084E0FEA34B
:10147600E0FFC390607DE09F90607CE09E500CE0B2
:10148600FFA3E0906084CFF0A3EFF090607EE0F8D9
:10149600A3E0F9A3E0FAA3E0FB90607CE0FEA3E002
:1014A600FFE4FCFDEB2FFFEA3EFEED39FDEC38FCD8
:1014B60090607E1211CC90607BE004F0E0641460D2
:1014C6000302141D90607EE0FCA3E0FDA3E0FEA3F2
:1014D600E0FFC006C007906082E0FEA3E0FBAA061C
:1014E600D007D006C3EF9BFFEE9AFEED9400FDEC0D
:1014F6009400FC90607E1211CC90607EE0FCA3E02C
:10150600FDA3E0FEA3E0FFC006C007906084E0FEF6
:10151600A3E0FBAA06D007D006C3EF9BFFEE9AFE18
:10152600ED9400FDEC9400FC90607E1211CC90606E
:101536007EE0FCA3E0FDA3E0FEA3E0FF7804121129
:10154600A690607CEEF0A3EFF090607CE0FEA3E056
:01155600FF95
:011557002271
:101B3B00E4FF121A337F02121A0A1213F690603B5B
:061B4B00EEF0A3EFF02212
:101B7C00121A337F01121A0A1213F6906054EEF007
:041B8C00A3EFF022B1
:101B51007F01121A337F03121A0A1213F6906011D1
:061B6100EEF0A3EFF022FC
:10155D00C10B41606B0041605E00C10C41605F00DA
:10156D0042606000004160620042606300004460C0
:10157D006500000000426069000042606C0000419F
:03158D00606E008D
:101ABD0043A820D2AF75D1017895E4F2187424F2C1
:0A1ACD00789174A0F21874FDF22263
:03001E00020021BC
:10002100C0E0C0F0C083C082C0D075D000C000C0A5
:1000310001C002C003C004C005C006C0077891E238
:0A00410020E7030205EAE24480F222
:10004B00D3906057E09414906056E09405500CA345
:10005B00E004F07006906056E004F030A356D20B2B
:10006B00D3906057E094B0906056E0940450030234
:10007B00019BE4FFFEFDFC906058E0F8A3E0F9A3C0
:10008B00E0FAA3E0FB121195602520032290605843
:10009B00E0FCA3E0FDA3E0FEA3E0FF121172906071
:1000AB0035EFF09060581211D800000000D203C257
:1000BB000002019B200B03020199D3906057E0943F
:1000CB0008906056E094005005C200020192D39054
:1000DB006057E09412906056E09400501590605871
:1000EB00E0FCA3E0FDA3E0FEA3E0FF78011211B951
:1000FB008039D3906057E0941A906056E09400508A
:10010B0032906058E0FCA3E0FDA3E0FEA3E0FF7893
:10011B00011211B99060581211CC906058E0FCA3F9
:10012B00E0FDA3E0FEA3E04401FFEC906058121148
:10013B00CC8054D3906057E09496906056E0940036
:10014B004045D3A3E094A4906056E094015027203F
:10015B000335906058E0FCA3E0FDA3E0FEA3E0FFB5
:10016B00121172906035EFF09060581211D80000A8
:10017B000000D2038011D3906057E094B09060568A
:10018B00E094045002D200906056E4F0A3F0C20B4E
:10019B0090605DE004F0700690605CE004F09060AD
:1001AB005CE0FEA3E0FFD39414EE9400502F90601C
:1001BB002FE030E002D29190602FE030E102D2923A
:1001CB0090602FE030E202D29390602FE030E30298
:1001DB00D29490602FE030E40ED295800AC291C287
:1001EB0092C293C294C295C3EF9464EE94004007FD
:0701FB0090605CE4F0A3F04A
:1002020090606BE004F0E0C3940A5003020518E426
:01021200F0FB
:1002130090605EE004F0E094C8500302035FE4F0F2
:1002230090604FE064046008E0640860030202C069
:10023300200C4590600FE024FE601614601C1460CF
:10024300221460282404702B90602FE04401F08076
:100253002290602FE04402F0801990602FE0440464
:10026300F0801090602FE04408F0800790602FE04A
:100273004410F0D20C02035F90600FE024FE60167E
:1002830014601C1460221460282404702B90602FC7
:10029300E054FEF0802290602FE054FDF08019902E
:1002A300602FE054FBF0801090602FE054F7F08053
:1002B3000790602FE054EFF0C20C02035F90604F91
:1002C300E06403702B90602FE0200C124401F0E0F7
:1002D3004402F0E04404F0E04408F0E0807254FE8D
:1002E300F0E054FDF0E054FBF0E054F7F0E08067F9
:1002F30090604FE064027064906018E0D394025001
:100303000F90602FE0200C044402804654FD804986
:10031300906018E0D39403500F90602FE0200C04FA
:100323004404802E54FB8031906018E0D394045031
:100333000F90602FE0200C044408801654F78019B6
:10034300906018E0D39405501390602FE0200C07C1
:0C0353004410F0D20C800554EFF0C20CF6
:10035F00300A26906052E004F07006906051E0047D
:10036F00F0C3906052E09488906051E0941340097C
:09037F00E4F0A3F090602B04F0FF
:1003880090605FE004F0E0C394C84007E4F0906038
:030398000004F06E
:10039B00906010E0B40136906061E004F07006905C
:1003AB006060E004F0C3906061E094F0906060E006
:1003BB0094555005121BB1801BD3906061E0942CB7
:1003CB00906060E094565005121BA380079060600C
:0403DB00E4F0A3F0B7
:1003DF00906053E06011906013E0906062F0A3E4CE
:1003EF00F0A3F0906053F0906062E06071906064F1
:1003FF00E004F07006906063E004F0C3906064E086
:10040F0094A1906063E09400501090604FE0604BB7
:10041F00E064026046200543803CC3906064E09432
:10042F0042906063E09401501290604FE0600AE0E8
:10043F00640260052005028022801B906063E4F057
:10044F00A3F0906062E014F090604FE0600DE06404
:0E045F00026008200505121BBE800312000F6C
:10046D00300923906037E004F07006906036E004A8
:10047D00F0C3906037E09488906036E094134006A6
:06048D00E4F0A3F0D2042C
:10049300300145906065E0FCA3E0FDA3E0FEA3E02E
:1004A3002401FFE43EFEE43DFDE43CFC9060651264
:1004B30011CC906031E0FCA3E0FDA3E0FEA3E0FFDC
:1004C300906065E0F8A3E0F9A3E0FAA3E0FBC312B0
:1004D30011954010D208800C9060651211D800006D
:0404E3000000C2084B
:1004E70020022E90606AE004F07006906069E004D4
:1004F700F0906069E0FEA3E0FFE4FCFD7B607AEA30
:10050700F9F8D312117F5009906069E4F0A3F0D293
:0105170002E1
:10051800906004E0706190604FE0605B90606DE017
:1005280004F0700690606CE004F0C390606DE09495
:100538001090606CE094274045E4F0A3F074FFFF4E
:10054800FEFDFC906014E0F8A3E0F9A3E0FAA3E054
:10055800FB1211955028906014E0FCA3E0FDA3E085
:10056800FEA3E02401FFE43EFEE43DFDE43CFC90F4
:0E05780060141211CC800790606CE4F0A3F0C8
:1005860030066190606EE004F0E0C394644055E488
:10059600F0906001E0FEA3E0FFD390602DE09F9015
:1005A600602CE09E400EA3E024FFF090602CE03427
:1005B600FFF08025906001E0FEA3E0FFC390602D70
:1005C600E09F90602CE09E500EA3E004F0700A902D
:1005D600602CE004F08002C20690602CE0FEA3E0EE
:0405E600FF121BCB1A
:1005EA00D007D006D005D004D003D002D001D00065
:0B05FA00D0D0D082D083D0F0D0E0320F
:1019DE0078E3E254F3F2E24404F29071937410F05F
:1019EE0075D10278A17409F218745FF278A3E4F24B
:0C19FE0018F2789D74A0F21874E2F22236
:101A80009071937410F075D10278A17401F21874FA
:101A9000CBF278A3E4F218F2789D74A0F21874E205
:021AA000F22230
:101A5B009071937410F075D10278A17409F2187417
:101A6B005FF278A37401F21874AFF2789D74A0F250
:051A7B001874E2F222E4
:081C0500E478A3F2EF18F222CB
:0D1BB1009071937410F0789CE24402F222CF
:0E1BA300789CE254FCF2907193E4F0C2A5220B
:081C0D008FD7E5D430E4FB227F
:101AD70078C2E254CFF2E24410F29071807404F0BD
:0A1AE70075D60175D59F75D2102247
:1019740078E3E254FCF2E24401F2907192740FF0C5
:1019840075D1049071057401F09071047476F0902F
:101994007107E4F090710674BBF090710174A0F0CB
:0719A40090710074FEF022B7
:0D1BBE00907192740FF090710074FEF0228F
:0F000F00907100E054FCF0907192E4F0C2A422D2
:0D1BCB00AC06EC907107F0EF907106F0226F
:1015900041602E0041602F0041603500C100C10351
:1015A000416000004160100041600400C10A4160D8
:1015B0002B004260510000C109C1044260360000A6
:1015C000C102C107446014000000004160030142F1
:1015D000602C0000416038004160390041605300D8
:1015E00041601300C105C1064260010000C1014411
:1015F000603100000000C10852603D013801130055
:10160000EE00C900A3007E00590034001152601999
:1016100000110037005C008100A600CC00F5011627
:0F16200001384A60050138011500F100D500BA04
:1018B00078D2E254F3F2E24404F2907187E4F0C289
:1018C00091E254CFF2E24410F2A3E4F0C292E25467
:1018D0003FF2E24440F2A3E4F0C29308E254FCF287
:1018E000E24401F2A3E4F0C294E254F3F2E24404CD
:0718F000F2A3E4F0C295220F
:101B90009060037401F090600F7405F090605074D1
:031BA00002F0222E
:10170B0075D9DD12163C75D95590715EE054FEF01B
:10171B0075D9BB121AD712185D121ABD1219DE1227
:10172B001BA312197412000F1218B078E2E2543F87
:10173B00F278E0E24408F21219AB121B9012193B3B
:10174B00121B677F01121BFC120A8C12060590609C
:10175B0004E0601790604FE06402600AC201121A45
:10176B00A27F02121BFC12000F803890604FE0B476
:10177B000231121AA27F01121BFC90600FE025E0D0
:10178B002403F582E43460F583E0FFA3E090602C42
:10179B00CFF0A3EFF090602CE0FEA3E0FF121BCB89
:1017AB00121BBE300815C208C201121AA2E49060C7
:1017BB004FF090602CF0A3F012000F121B3B120D98
:0617CB00D012125C8082C6
:0D1BD800E5F430E4FB8FF7E5F430E4FB2288
:101AF10078E3E254F3F2E24404F29071937404F057
:0A1B010075D60175D59F75D210222C
:08162F00416088004160890060
:090A8C00906000E07003020DCF40
:100A9500E490606FF0A3F0A3F0A3F0A31211D800C7
:100AA500000000E4906077F0A3F0A3F0A3F090605D
:100AB50000F0906004E07020FF121B7CC39060552D
:100AC500E09490906054E0940340069060047401B3
:100AD500F0906004E07069227F01121A337F0112E1
:100AE5001A0A1213F6906054EEF0A3EFF0C390606B
:100AF50055E09493906054E0940D4009E49060773C
:100B0500F0A3020DBFD3906055E094F0906054E0DF
:100B150094015021E4906077F0A3F0906077E0FCB9
:100B2500A3E0FDEC78A3F2ED18F2121BA3E49060AC
:100B350004F0020C33906004E064047003020DCFEE
:100B4500121B3B906004E0B4012AD390603CE09412
:100B5500CC90603BE0940A5015906010E064017001
:100B650003020DCF121A5B9060107401F0229060A1
:100B7500047402F0C390603CE0944790603BE094BD
:100B85000E406C906004E064036064906089E0044A
:100B9500F0906088E0D394054004E024FEF0906076
:100BA50088E0C3940A5004A3E004F0906089E0C390
:100BB50094644040E4F09060887405F0E0FF7E00A6
:100BC5007C017DCB12122FE47B64FAF9F81210E058
:100BD500906077EEF0A3EFF0906077E0FCA3E0FD86
:100BE500EC78A3F2ED18F29060047403F08005E44C
:100BF500906089F0906004E064037037C390603CB6
:100C0500E0943390603BE0940F5003020DCFE490E5
:100C15006077F0A3F0906077E0FCA3E0FDEC78A3AB
:100C2500F2ED18F2121BA39060047404F0E49060D6
:100C350010F022906004E064026003020DCF906022
:100C450010E064026009121A809060107402F012BC
:100C55001B3BC390603CE0943390603BE0940E40B6
:100C65000C9060797413F0A37488F08022C39060AF
:100C75003CE0949990603BE0940D90607940097454
:100C850033F0A374C2F080077467F0A37484F01284
:100C95001B51906011E0FEA3E0FFE4FCFD7BC07AF0
:100CA500277909F8121055E4FB7A10F9F81210E0CB
:100CB500E47B4CFAF9F81210E090606FEEF0A3EFC8
:100CC500F090603BE0FEA3E0FF7C0F7DA012122FA9
:100CD500E4FB7A10F9F81210E0906071EEF0A3EFE2
:100CE500F0C3906012E094FF906011E0940F400F04
:100CF500906088E0D394085003020DA1020D9E90E8
:100D05006079E064677004A3E064846014C3906054
:100D150070E0947C90606FE094075005E4F0A304C4
:100D2500F0906071E0FEA3E0FF90606FE0FCA3E04F
:100D3500FD12122FE47BE87A03F9F81210E09060B7
:100D4500731211CC906079E0FEA3E0FFE4FCFD9006
:100D55006073E0F8A3E0F9A3E0FAA3E0FBC3121186
:100D650095500E906088E0C394645030E004F080A4
:100D75002B906079E0FEA3E0FFE4FCFD906073E05A
:100D8500F8A3E0F9A3E0FAA3E0FBD3121195400C18
:100D9500906088E0D394084003E014F0906088E008
:100DA500FF7E007C017DCB12122FE47B64FAF9F8FB
:100DB5001210E0906077EEF0A3EFF0906077E0FC22
:0A0DC500A3E0FDEC78A3F2ED18F2B4
:010DCF002201
:0416370041608A0084
:10060500906004E0600AC203C200E490608AF022B0
:100615002003030209CEC203906035E090608AF0A2
:10062500906035E0121209069802088D18093222E9
:10063500088130091162083D68069F9007EE98060B
:100645005AA20701A8099DB00970C20749E008D15F
:10065500E2000009CE300A03020A8B121AA2D2095F
:1006650090604FE07002D20790604FE0C39406504F
:1006750002801890604FE0B401057408F0800F9077
:10068500604FE004F0E0D3940940037407F0C2061C
:100695000209CE7D017F04020885C2067D027F0422
:0906A5001218F7300A030209CE15
:1006AE00E490606FF090606FE0FFC394085026EF07
:1006BE0025E0243DF582E43460F583E0FEA3E0FFFF
:1006CE00D390602DE09F90602CE09E500890606F5C
:1006DE00E004F080D090606FE025E0243DF582E4E8
:1006EE003460F583E0FFA3E090602CCFF0A3EFF031
:1006FE000207E0C2067D037F041218F7300A0302D8
:10070E0009CE3009030209CE90604FE07003020952
:10071E00CE90600FE025E02403F582E43460F5838B
:10072E00E0FFA3E090602CCFF0A3EFF090603112C9
:10073E0011D800000BB8D2010209997D047F041272
:08074E0018F7300A030209CE7E
:10075600E490606FF090606FE0FFC394085026EF5E
:1007660025E02419F582E43460F583E0FEA3E0FF7A
:10077600C390602DE09F90602CE09E400890606FD3
:10078600E004F080D090600FE025E02403F582E4D9
:100796003460F583E0FEA3E0FF90606FE025E0247F
:1007A60019F582E43460F583E0FCA3E0FDD39FEC09
:1007B6009E401D90600FE025E02403F582E434603E
:1007C600F583E0FFA3E090602CCFF0A3EFF0800864
:1007D60090602CECF0A3EDF0C20690602CE0FEA336
:0507E600E0FF121BCB37
:1007EB000209CE7D057F041218F7200A4020093D2F
:1007FB0090604FE06037C20190600FE025E024036A
:10080B00F582E43460F583E0FFA3E090602CCFF039
:10081B00A3EFF09060141211D80000000090602C30
:10082B00E0FEA3E0FF121BCB7F03121BE5C2060207
:10083B0009CE7D017F051218F7200A352009329069
:10084B00604FE0602C90600FE025E02403F582E41C
:10085B003460F583E0FFA3E090602CCFF0A3EFF0C2
:10086B009060311211D800001388D2017F03121B44
:10087B00E5C2060209CE7D027F051218F7C20602F9
:10088B0009CE7D037F051218F7200A352009329017
:10089B00604FE0602C90600FE025E02403F582E4CC
:1008AB003460F583E0FFA3E090602CCFF0A3EFF072
:1008BB009060311211D800001F40D2017F03121B30
:1008CB00E5C2060209CEC206300A030209CE121A8D
:1008DB00A290604FE0701FD205D20790600FE02509
:1008EB00E02403F582E43460F583E0FFA3E090603D
:1008FB002CCFF0A3EFF090604F7403F0D20A90600E
:10090B000FE0FF0209CB300A030209CE30090302C4
:10091B0009CEC201121AA2C20790604F7401F0C235
:10092B000612193B0209CE300A030209CE30090325
:10093B000209CE90604FE070030209CEC206C201DD
:10094B00D390602DE0940090602CE09400407412E2
:10095B001AA2E490604FF07F02121BE5E490602C2A
:10096B00F0A3F0805E200A5B20095890604FE06096
:10097B0052C20690600FE025E02403F582E4346058
:10098B00F583E0FFA3E090602CCFF0A3EFF07F03A3
:10099B00802E200A2E20092B90604FE06025C20686
:1009AB0090600FE025E02403F582E43460F583E0EA
:1009BB00C313FFA3E01390602CCFF0A3EFF07F03E2
:1009CB00121BE5200003020A8BC200D390602DE0BE
:1009DB00940090602CE094005003020A8BE0FFA37C
:1009EB00E0906001CFF0A3EFF090608AE0FF64E04D
:1009FB00705590600FE025E02403F582E43460F538
:100A0B0083E0FCA3E024F7FDEC34FFFCC390602DE6
:100A1B00E09D90602CE09C5010906002E02409F067
:100A2B00906001E03400F0801B90600FE025E02423
:100A3B0003F582E43460F583E0FDA3E0906001CD23
:100A4B00F0A3EDF0D20622EFB4903590604DE0FEAE
:100A5B00A3E0FF2409FDE43EFCD390602DE09D90C4
:100A6B00602CE09C4010906002E024F7F090600155
:100A7B00E034FFF08008906001EEF0A3EFF0D206B7
:010A8B002248
:101B6700121B23E4906030F0906018F0906051F001
:051B7700A3F0C20922E9
:101B230090602FE054FEF0E054FDF0E054FBF0E051
:081B330054F7F0E054EFF0223A
:101AA200121B23C20AE490602BF0906051F0A3F065
:0B1AB200C209C204906036F0A3F022CD
:091BFC00121B2390604FEFF02250
:1018F700300A40EFB4041F90600FEDF0E025E024BC
:1019070003F582E43460F583E0FBA3E090602CCB21
:10191700F0A3EBF08005906050EDF090604FEFF092
:10192700121B23E490602BF0906051F0A3F0AF05F9
:04193700121BE52278
:100DD00090604FE064016008E064076003020EC7A2
:100DE00090602FE04401F0D390603CE094CC9060A0
:100DF0003BE0940C400890603A7405F08048D39032
:100E0000603CE0943390603BE0940C400890603A82
:100E10007404F08031D390603CE0946690603BE0D5
:100E2000940B400890603A7403F0801AD390603CB1
:100E3000E0949990603BE0940A90603A4005740217
:100E4000F080037401F0906030E0700A90603AE046
:100E5000906030F0801D906030E0FF90603AE0D309
:100E60009F5003200208906030E090603AF030021A
:100E700002C20290603AE0C3940590602FE0400502
:100E80004410F0800354EFF090603AE0C394049073
:100E9000602FE040054408F0800354F7F090603A7A
:100EA000E0C3940390602FE040054404F0800354B5
:100EB000FBF090603AE0C3940290602FE040028023
:100EC0003354FDF002100390604FE064056005E0CC
:100ED00064097030906050E024FE601414601B249C
:100EE00002600302100390602FE04401F00210033F
:100EF00090602FE04402F002100390602FE0440461
:100F0000F002100390604FE064026003021003904F
:100F1000602FE04401F0D390603CE094CC90603BC3
:100F2000E0940C400890603A7405F08048D39060DB
:100F30003CE0943390603BE0940C400890603A743D
:100F400004F08031D390603CE0946690603BE09484
:100F50000B400890603A7403F0801AD390603CE034
:100F6000949990603BE0940A90603A40057402F0D6
:100F700080037401F0906004E064036004E0B40452
:100F80000690603A7406F0906030E0700A90603A23
:100F9000E0906030F0801D906030E0FF90603AE0BB
:100FA000C39F4003200208906030E090603AF03028
:100FB0000202C20290603AE0906018F07F017E0069
:100FC000121B0B90603AE0C39403400790602FE03F
:100FD0004402F090603AE0C39404400790602FE030
:100FE0004404F090603AE0C39405400790602FE01D
:100FF0004408F090603AE0C39406400790602FE008
:101000004410F090602BE06017E4F0C20AC2053093
:101010000708C20790604FF0800690604F7401F09F
:10102000300416C204C209300709C207E490604FB9
:10103000F0800690604F7401F090604FE0700312F2
:031040001B23224D
:0C1BE500906013EFF09060537401F02248
:10193B0090600FE025E02403F582E43460F583E04A
:10194B00FFA3E090602CCFF0A3EFF090602CE0FEB3
:10195B00A3E0FF121BCB121BBE7F03121BE5906093
:09196B00141211D8000000002242
:10125C00906004E060030213F590604FE0700302AD
:10126C0013F5906050E064017064906003E0FF7EC1
:10127C00007C047DB0121043E4FCFD906014E0F897
:10128C00A3E0F9A3E0FAA3E0FBC31211955003020B
:10129C0013EA9060141211D800000000906003E073
:1012AC00B401057403F08007906003E02403F09010
:1012BC00602CE0FEA3E0FFE4FCFD7B36FAF9F8D3EA
:1012CC00121195506590602DE024DB0213D79060CD
:1012DC002CE0FEA3E0FFE4FCFD7BAFFAF9F8C312AF
:1012EC0011955049E47F28FEFDFC906014E0F8A3B2
:1012FC00E0F9A3E0FAA3E0FBC3121195500302132B
:10130C00EA9060141211D80000000090602CE0FEEE
:10131C00A3E0FFE4FCFD7B13FAF9F8D3121195500E
:10132C000990602DE024FE0213D70213E190602C8B
:10133C00E0FEA3E0FFE4FCFD7B9DFAF9F8C312117B
:10134C00955047E47FF0FEFDFC906014E0F8A3E0BC
:10135C00F9A3E0FAA3E0FBC312119550030213EAC0
:10136C009060141211D80000000090602CE0FEA3D5
:10137C00E0FFE4FCFD7B13FAF9F8D3121195500849
:10138C0090602DE024FE8043804BE47FA47E01FD21
:10139C00FC906014E0F8A3E0F9A3E0FAA3E0FBC32F
:1013AC0012119540399060141211D8000000009071
:1013BC00602CE0FEA3E0FFE4FCFD7B13FAF9F8D30C
:1013CC00121195501090602DE024FEF090602CE0EE
:1013DC0034FFF0800990602CE4F0A37411F090605D
:0A13EC002CE0FEA3E0FF121BCB2251
:10185D0078E3E2543FF2E24440F2907195E4F0C235
:10186D00A778C2E2543FF2E24440F2907181E4F075
:10187D00C28378F2E254FCF2E24401F2E4F0C2B029
:10188D0078D2E254FCF2E24401F2907186E4F0C2A7
:10189D009078C3E2543FF2E24440F2907185E4F057
:0318AD00C28722CD
:031C1500D2832255
:031C1800C2832262
:031C1B00D2B02222
:031C1E00C2B0222F
:031C2100D290223C
:031C2400C2902249
:031C2700D287223F
:031C2A00C287224C
:1017DD0002170BE493A3F8E493A34003F68001F200
:1017ED0008DFF48029E493A3F85407240CC8C3330D
:1017FD00C4540F4420C8834004F456800146F6DFDC
:10180D00E4800B0102040810204080901558E47EFE
:10181D00019360BCA3FF543F30E509541FFEE493D0
:10182D00A360010ECF54C025E060A840B8E493A397
:10183D00FAE493A3F8E493A3C8C582C8CAC583CAC2
:10184D00F0A3C8C582C8CAC583CADFE9DEE780BE7A
:01163B0000AE
:10104300EF8DF0A4A8F0CF8CF0A428CE8DF0A42EC1
:02105300FE227B
:10105500E88FF0A4CC8BF0A42CFCE98EF0A42CFC3A
:101065008AF0EDA42CFCEA8EF0A4CDA8F08BF0A4B8
:101075002DCC3825F0FDE98FF0A42CCD35F0FCEB17
:101085008EF0A4FEA9F0EB8FF0A4CFC5F02ECD39DC
:0F109500FEE43CFCEAA42DCE35F0FDE43CFC2249
:1010A40075F008758200EF2FFFEE33FECD33CDCC03
:1010B40033CCC58233C5829BED9AEC99E582984086
:1010C4000CF582EE9BFEED9AFDEC99FC0FD5F0D663
:1010D400E4CEFBE4CDFAE4CCF9A88222B800C1B98D
:1010E4000059BA002DEC8BF084CFCECDFCE5F0CBCB
:1010F400F97818EF2FFFEE33FEED33FDEC33FCEB04
:1011040033FB10D703994004EB99FB0FD8E5E4F9BE
:10111400FA227818EF2FFFEE33FEED33FDEC33FCAB
:10112400C933C910D7059BE99A4007EC9BFCE99A9F
:10113400F90FD8E0E4C9FAE4CCFB2275F010EF2FE4
:10114400FFEE33FEED33FDCC33CCC833C810D707E4
:101154009BEC9AE899400AED9BFDEC9AFCE899F81F
:0E1164000FD5F0DAE4CDFBE4CCFAE4C8F922B2
:0D117200CFF4CFCEF4CECDF4CDCCF4CC2212
:10117F00EB9FF5F0EA9E42F0E99D42F0EC6480C8E7
:06118F0064809845F02287
:10119500EB9FF5F0EA9E42F0E99D42F0E89C45F0B0
:0111A5002227
:1011A600E8600FECC313FCED13FDEE13FEEF13FF27
:0311B600D8F1224B
:1011B900E8600FEFC333FFEE33FEED33FDEC33FC94
:0311C900D8F12238
:0C11CC00ECF0A3EDF0A3EEF0A3EFF02296
:1011D800A8828583F0D083D0821211EF1211EF120A
:1011E80011EF1211EFE473E493A3C583C5F0C5832F
:1011F800C8C582C8F0A3C583C5F0C583C8C582C861
:0112080022C3
:10120900D083D082F8E4937012740193700DA3A374
:1012190093F8740193F5828883E473740293686088
:06122900EFA3A3A380DF88
:10122F00EC8EF0A4CCC5F0CCCDF8EFA4CEC5F02D4C
:10123F00FDE43CFCE8A42EC8C5F03DFDE43CFCEF0A
:0D124F00A4FFE5F028FEE43DFDE43CFC2298
:00000001FF
