:03000000021B4997
:0C1B4900787FE4F6D8FD758122021B9025
:0C000300000000000000000000000000F1
:0B1F6900EF1FAC0670011E4C70F6224A
:101E8300AB07AA06EB1BAE0270011A4E60097FAACC
:081E93007E05121F6980ED229B
:101A7A00907120E04480F07F057E00121F69E4FF28
:101A8A00FE121E8375A75575AC589071327450F0CA
:101A9A009071307403F0907136742FF07F18EF2430
:101AAA0066FDE434718D82F583E4F00FEFB433EE12
:101ABA00904011E4935407FF90711CE054F84FF0E2
:101ACA00904017E493547FFF90711DE054804FF0CB
:101ADA00904010E493FF5401C43333335480FE9092
:101AEA007123E0547F4EF0EFC313543F4440FFA3E9
:101AFA00E054804FF0904012E493FF540FFE90712F
:101B0A0046E054F04EF0EFC4540FFF90714FE0548A
:101B1A00F04FF0904013E493543FFF907140E0542B
:101B2A00C04FF0904014E493907126F0904015E471
:0E1B3A0093907128F0904016E49390712AF079
:011B4800227A
:05199D0042609500000E
:101D230078D3E24430F278E2E24430F278F2E244EB
:101D33000CF2786AE24478F27591FF907123E054D3
:101D4300D8F0E04459F09071227407F0439E704339
:031D530099402292
:101DAB00907123E054D8F0EF7006E04459F0800BAB
:101DBB00EFB40107907123E0445BF07869E244488B
:081DCB00F27F017E00021E837D
:101D8200539940EFB4010543990E8010EFB4020558
:101D92004399128007EFB403034399197869E24427
:091DA20048F27F017E00021E835D
:10174200E4906062F0A3F0A3F09060651212490089
:10175200000000E4906069F0A3F074FF90606BF009
:10176200A3F0E4906062F07869E24401F2786BE2FF
:1017720030E1FAAF93EF75F010A4FFE594C4540F73
:10178200FDEF4DFF906063E5F0F0A3EFF07402F21D
:10179200906062E0C39402406D906069E0FEA3E055
:1017A200FFD3906064E09F906063E09E400CE0FF96
:1017B200A3E0906069CFF0A3EFF090606BE0FEA32E
:1017C200E0FFC3906064E09F906063E09E500CE095
:1017D200FFA3E090606BCFF0A3EFF0906065E0F8BC
:1017E200A3E0F9A3E0FAA3E0FB906063E0FEA3E0CC
:1017F200FFE4FCFDEB2FFFEA3EFEED39FDEC38FC89
:1018020090606512123D906062E004F0E064146042
:1018120003021769906065E0FCA3E0FDA3E0FEA36C
:10182200E0FFC006C007906069E0FEA3E0FBAA06E5
:10183200D007D006C3EF9BFFEE9AFEED9400FDECBD
:101842009400FC90606512123D906065E0FCA3E09C
:10185200FDA3E0FEA3E0FFC006C00790606BE0FEC0
:10186200A3E0FBAA06D007D006C3EF9BFFEE9AFEC9
:10187200ED9400FDEC9400FC90606512123D9060C6
:1018820065E0FCA3E0FDA3E0FEA3E0FF78041212F2
:1018920017906063EEF0A3EFF0906063E0FEA3E0C8
:0118A200FF46
:0118A3002222
:101EB300E4FF121DAB7F02121D8212174290603B9A
:061EC300EEF0A3EFF02297
:101EF400121DAB7F01121D82121742906054EEF046
:041F0400A3EFF02235
:101EC9007F01121DAB7F03121D8212174290601110
:061ED900EEF0A3EFF02281
:1019A200C1134160910041608600C114416087000B
:1019B200426088000041608A0042608B00004460FF
:0E19C2008D0000000042609200004160940021
:101E350043A820D2AF75D1017895E4F2187424F245
:0A1E4500789174A0F21874FDF222E7
:03001E00020021BC
:10002100C0E0C0F0C083C082C0D075D000C000C0A5
:1000310001C002C003C004C005C006C0077891E238
:0A00410020E7030205BBE24480F251
:10004B00D390607FE0941490607EE09405500CA3F5
:10005B00E004F0700690607EE004F030A356D213FB
:10006B00D390607FE094B090607EE09404500302E4
:10007B00019BE4FFFEFDFC906080E0F8A3E0F9A398
:10008B00E0FAA3E0FB1212066025200222906080AA
:10009B00E0FCA3E0FDA3E0FEA3E0FF1211F99060EA
:1000AB0035EFF090608012124900000000D202C2BE
:1000BB000002019B201303020199D390607FE0940F
:1000CB000890607EE094005005C200020192D3902C
:1000DB00607FE0941290607EE094005015906080F9
:1000EB00E0FCA3E0FDA3E0FEA3E0FF780112122ADF
:1000FB008039D390607FE0941A90607EE09400503A
:10010B0032906080E0FCA3E0FDA3E0FEA3E0FF786B
:10011B000112122A90608012123D906080E0FCA3C5
:10012B00E0FDA3E0FEA3E04401FFEC90608012121F
:10013B003D8054D390607FE0949690607EE0940075
:10014B004045D3A3E094A490607EE0940150272017
:10015B000235906080E0FCA3E0FDA3E0FEA3E0FF8E
:10016B001211F9906035EFF0906080121249000087
:10017B000000D2028011D390607FE094B090607E3B
:10018B00E094045002D20090607EE4F0A3F0C2131E
:10019B00906085E004F07006906084E004F090605D
:1001AB0084E0FEA3E0FFD39414EE9400502F9060F4
:1001BB002FE030E002D29190602FE030E102D2923A
:1001CB0090602FE030E202D29390602FE030E30298
:1001DB00D29490602FE030E40ED295800AC291C287
:1001EB0092C293C294C295C3EF9464EE94004007FD
:0701FB00906084E4F0A3F022
:10020200906091E004F0E0C3940A50030204E9E430
:01021200F0FB
:10021300906086E004F0E094C8500302035FE4F0CA
:1002230090604FE064046008E0640860030202C069
:1002330020144590600FE024FE601614601C1460C7
:10024300221460282404702B90602FE04401F08076
:100253002290602FE04402F0801990602FE0440464
:10026300F0801090602FE04408F0800790602FE04A
:100273004410F0D21402035F90600FE024FE601676
:1002830014601C1460221460282404702B90602FC7
:10029300E054FEF0802290602FE054FDF08019902E
:1002A300602FE054FBF0801090602FE054F7F08053
:1002B3000790602FE054EFF0C21402035F90604F89
:1002C300E06403702B90602FE02014124401F0E0EF
:1002D3004402F0E04404F0E04408F0E0807254FE8D
:1002E300F0E054FDF0E054FBF0E054F7F0E08067F9
:1002F30090604FE064027064906018E0D394025001
:100303000F90602FE02014044402804654FD80497E
:10031300906018E0D39403500F90602FE0201404F2
:100323004404802E54FB8031906018E0D394045031
:100333000F90602FE02014044408801654F78019AE
:10034300906018E0D39405501390602FE0201407B9
:0C0353004410F0D214800554EFF0C214E6
:10035F00300926906052E004F07006906051E0047E
:10036F00F0C3906052E09488906051E0941340097C
:09037F00E4F0A3F090602B04F0FF
:10038800906087E004F0E0C394C84007E4F0906010
:030398000004F06E
:10039B00906010E0B40136906089E004F070069034
:1003AB006088E004F0C3906089E094F0906088E08E
:1003BB0094555005121F29801BD3906089E0942C13
:1003CB00906088E094565005121F1B800790608840
:0403DB00E4F0A3F0B7
:1003DF00906053E06011906013E090608AF0A3E4A6
:1003EF00F0A3F0906053F090608AE0607190608CA1
:1003FF00E004F0700690608BE004F0C390608CE036
:10040F0094A190608BE09400501090604FE0604B8F
:10041F00E064026046200443803CC390608CE0940B
:10042F004290608BE09401501290604FE0600AE0C0
:10043F00640260052004028022801B90608BE4F030
:10044F00A3F090608AE014F090604FE0600DE064DC
:0E045F00026008200405121F36800312000FF1
:10046D00300823906037E004F07006906036E004A9
:10047D00F0C3906037E09488906036E094134006A6
:06048D00E4F0A3F0D2032D
:1004930030014790608DE0FCA3E0FDA3E0FEA3E004
:1004A3002401FFE43EFEE43DFDE43CFC90608D123C
:1004B300123D906031E0FCA3E0FDA3E0FEA3E0FF6A
:1004C30090608DE0F8A3E0F9A3E0FAA3E0FBC31288
:1004D30012064012C201D207800C90608D1212499D
:0604E30000000000C2074A
:1004E900906004E0706190604FE0605B906093E021
:1004F90004F07006906092E004F0C3906093E09479
:1005090010906092E094274045E4F0A3F074FFFF57
:10051900FEFDFC906014E0F8A3E0F9A3E0FAA3E083
:10052900FB1212065028906014E0FCA3E0FDA3E042
:10053900FEA3E02401FFE43EFEE43DFDE43CFC9023
:0E054900601412123D8007906092E4F0A3F05F
:10055700300561906094E004F0E0C394644055E492
:10056700F0906001E0FEA3E0FFD390602DE09F9044
:10057700602CE09E400EA3E024FFF090602CE03456
:10058700FFF08025906001E0FEA3E0FFC390602D9F
:10059700E09F90602CE09E500EA3E004F0700A905C
:1005A700602CE004F08002C20590602CE0FEA3E01E
:0405B700FF121F43CD
:1005BB00D007D006D005D004D003D002D001D00094
:0B05CB00D0D0D082D083D0F0D0E0323E
:101D560078E3E254F3F2E24404F29071937410F0E3
:101D660075D10278A17409F218745FF278A3E4F2CF
:0C1D760018F2789D74A0F21874E2F222BA
:101DF8009071937410F075D10278A17401F218747F
:101E0800CBF278A3E4F218F2789D74A0F21874E289
:021E1800F222B4
:101DD3009071937410F075D10278A17409F218749C
:101DE3005FF278A37401F21874AFF2789D74A0F2D5
:051DF3001874E2F22269
:081F8800E478A3F2EF18F22245
:0D1F29009071937410F0789CE24402F22253
:0E1F1B00789CE254FCF2907193E4F0C2A5228F
:081F90008FD7E5D430E4FB22F9
:101E4F0078C2E254CFF2E24410F29071807404F041
:0A1E5F0075D60175D59F75D21022CB
:101CEC0078E3E254FCF2E24401F2907192740FF04A
:101CFC0075D1049071057401F09071047476F090B4
:101D0C007107E4F090710674BBF090710174A0F04F
:071D1C0090710074FEF0223B
:0D1F3600907192740FF090710074FEF02213
:0F000F00907100E054FCF0907192E4F0C2A422D2
:0D1F4300AC06EC907107F0EF907106F022F3
:0B1F74007379732072657365740A00B6
:1019D00041602E0041602F0041603500C100C1020E
:1019E000416000004160100041600400C109416095
:1019F0002B004260510000C108C103426036000064
:101A0000C106446014000000004160030142602CE4
:101A1000000041603800416039004160530041607E
:101A20001300C104C1054260010000C101446031DE
:101A300000000000C10752603D0138011300EE00B4
:101A4000C900A3007E005900340011526019001132
:101A50000037005C008100A600CC00F501160138BB
:0D1A60004A60050138011500F100D500BAFB
:101C280078D2E254F3F2E24404F2907187E4F0C20D
:101C380091E254CFF2E24410F2A3E4F0C292E254EB
:101C48003FF2E24440F2A3E4F0C29308E254FCF20B
:101C5800E24401F2A3E4F0C294E254F3F2E2440451
:071C6800F2A3E4F0C2952293
:101F08009060037401F090600F7405F09060507455
:031F180002F022B2
:1018A40075D9DD121A7A75D95590715EE054FEF03F
:1018B40075D9BB121E4F121BD5121E35121D56129E
:1018C4001F1B121CEC12000F121C2878E2E2543F7A
:1018D400F278E0E24408F2121D237BFF7A1F797448
:1018E400120A98121F08121CB3121EDF7F01121F66
:1018F4007F120D921205D6906004E0601590604F3F
:10190400E064026008E060057F02121F7F12000F8E
:10191400800F90604FE0B402087F01121F7F121FF6
:1019240036300713C207121E1AE490604FF090601D
:101934002CF0A3F012000F121EB31213451215A8B7
:10194400906004E0700E121FA4121FAA121FB0129E
:101954001F9B809D906004E0B4020E121F9E121F14
:10196400AA121FB0121FA18088906004E0B4030F74
:10197400121F9E121FA4121FB0121FA70218F59067
:101984006004E0640460030218F5121F9E121FA491
:09199400121FAA121FAD0218F582
:0D1F5000E5F430E4FB8FF7E5F430E4FB220C
:101E690078E3E254F3F2E24404F29071937404F0DB
:0A1E790075D60175D59F75D21022B1
:081A6D00416098004160970000
:090D9200906000E070030210C93A
:100D9B00E4906056F0A3F0A3F0A3F0A31212490065
:100DAB00000000E490605EF0A3F0A3F0A3F090606D
:100DBB0000F0906004E07020FF121EF4C3906055A9
:100DCB00E09490906054E0940340069060047401AA
:100DDB00F0906004E07069227F01121DAB7F01125D
:100DEB001D82121742906054EEF0A3EFF0C3906097
:100DFB0055E09493906054E0940D4009E490605E4C
:100E0B00F0A30210B9D3906055E094F0906054E0D9
:100E1B0094015021E490605EF0A3F090605EE0FCE2
:100E2B00A3E0FDEC78A3F2ED18F2121F1BE4906027
:100E3B0004F0020F44906004E0640470030210C9D4
:100E4B00121EB3906004E064017043D390603CE0E9
:100E5B0094CC90603BE0940A502E906010E06401BB
:100E6B0070030210C990605E7401F0A37437F090A8
:100E7B00605EE0FCA3E0FDEC78A3F2ED18F2121D2E
:100E8B00D39060107401F0229060047402F0C39050
:100E9B00603CE0944790603BE0940E403F906004D0
:100EAB00E0640360379060987405F0E0FF7E007C8F
:100EBB00017DCB1212A0E47B64FAF9F81211679052
:100ECB00605EEEF0A3EFF090605EE0FCA3E0FDEC63
:100EDB0078A3F2ED18F29060047403F0906004E0D4
:040EEB006403705AD2
:100EEF00C390603CE0943390603BE0940E5005E477
:100EFF00906097F0C390603CE0949990603BE094D1
:100F0F000E50030210C9906097E004F0E0940A506D
:100F1F00030210C9E4F090605EF0A3F090605EE011
:100F2F00FCA3E0FDEC78A3F2ED18F2121F1B90600A
:0A0F3F00047404F0E4906010F02246
:100F4900906004E0640260030210C9906010E064DC
:100F590002602190605EE4F0A37408F090605EE0A6
:100F6900FCA3E0FDEC78A3F2ED18F2121DF89060F5
:100F7900107402F0C390603CE0943390603BE094BD
:100F89000E90606040097413F0A37488F0800774B0
:100F990067F0A37484F07F01121DAB7F03121D82D9
:100FA900121742906011EEF0A3EFF0906011E0FE8D
:100FB900A3E0FFE4FCFD7BC07A277909F81210DC75
:100FC900E4FB7A10F9F8121167E47B4CFAF9F8128C
:100FD9001167906056EEF0A3EFF090603BE0FEA33E
:100FE900E0FF7C0F7DA01212A0E4FB7A10F9F81241
:100FF9001167906058EEF0A3EFF0C3906012E0948F
:10100900FF906011E0940F400E906098E0D3940037
:10101900500302109B8078906058E0FEA3E0FF9097
:101029006056E0FCA3E0FD1212A0E47BE87A03F924
:10103900F812116790605A12123D906060E0FEA3A9
:10104900E0FFE4FCFD90605AE0F8A3E0F9A3E0FAC0
:10105900A3E0FBC3121206500E906098E0C394649B
:101069005030E004F0802B906060E0FEA3E0FFE4E4
:10107900FCFD90605AE0F8A3E0F9A3E0FAA3E0FBD5
:10108900D3121206400C906098E0D394084003E014
:1010990014F0906098E0FF7E007C017DCB1212A0D5
:1010A900E47B64FAF9F812116790605EEEF0A3EF41
:1010B900F090605EE0FCA3E0FDEC78A3F2ED18F29D
:0110C9002204
:041A75004160990033
:1005D600906004E0600AC202C200E4906099F022D2
:1005E60020020302096FC202906035E0906099F024
:1005F600906035E012127A06690208341808D32290
:1006060008283008B26207EA68067090079B9806C9
:100616002BA206D2A8093EB00911C206F6E008725E
:10062600E20000096F300903020A2C121E1AD208D2
:1006360090604FE07002D20690604FE0C39406507F
:1006460002801890604FE0B401057408F0800F90A6
:10065600604FE004F0E0D3940940037407F0C2054C
:1006660002096F7D017F0402082CC2057D027F040A
:09067600121C6F30090302096F28
:10067F00E4906056F0906056E0FFC394085026EF68
:10068F0025E0243DF582E43460F583E0FEA3E0FF2E
:10069F00D390602DE09F90602CE09E5008906056A4
:1006AF00E004F080D0906056E025E0243DF582E430
:1006BF003460F583E0FFA3E090602CCFF0A3EFF060
:1006CF0002078DC2057D037F04121C6F30090302E0
:1006DF00096F30080302096F906031121249000050
:1006EF000BB8D20102093A7D047F04121C6F300946
:0406FF000302096F7A
:10070300E4906056F0906056E0FFC394085026EFE3
:1007130025E02419F582E43460F583E0FEA3E0FFCD
:10072300C390602DE09F90602CE09E40089060563F
:10073300E004F080D090600FE025E02403F582E42C
:100743003460F583E0FEA3E0FF906056E025E024EB
:1007530019F582E43460F583E0FCA3E0FDD39FEC5C
:100763009E401D90600FE025E02403F582E4346091
:10077300F583E0FFA3E090602CCFF0A3EFF08008B7
:1007830090602CECF0A3EDF0C20590602CE0FEA38A
:05079300E0FF121F430E
:1007980002096F7D057F04121C6F20094020083D67
:1007A80090604FE06037C20190600FE025E02403BD
:1007B800F582E43460F583E0FFA3E090602CCFF08D
:1007C800A3EFF09060141212490000000090602C12
:1007D800E0FEA3E0FF121F437F03121F5DC2050264
:1007E800096F7D017F05121C6F20092F20082C90AE
:1007F800600FE025E02403F582E43460F583E0FF30
:10080800A3E090602CCFF0A3EFF090603112124972
:1008180000001388D2017F03121F5DC20502096F11
:100828007D027F05121C6FC20502096F7D037F05DB
:10083800121C6F20092F20082C90600FE025E0245F
:1008480003F582E43460F583E0FFA3E090602CCFE9
:10085800F0A3EFF090603112124900001F40D2015E
:100868007F03121F5DC20502096FC205300903022A
:10087800096F121E1A90604FE0701FD204D20690C2
:10088800600FE025E02403F582E43460F583E0FF9F
:10089800A3E090602CCFF0A3EFF090604F7403F0CA
:1008A800D20990600FE0FF02096C30090302096F5A
:1008B80030080302096FC201121E1AC20690604F67
:1008C8007401F0C205121CB302096F300903020952
:1008D8006F30080302096F90604FE0700302096FE0
:1008E800C205C201D390602DE0940090602CE09482
:1008F800004074121E1AE490604FF07F02121F5DD0
:10090800E490602CF0A3F0805E20095B20085890EA
:10091800604FE06052C20590600FE025E02403F5C7
:1009280082E43460F583E0FFA3E090602CCFF0A36D
:10093800EFF07F03802E20092E20082B90604FE0D7
:100948006025C20590600FE025E02403F582E434B9
:1009580060F583E0C313FFA3E01390602CCFF0A3EE
:10096800EFF07F03121F5D200003020A2CC200D3A0
:1009780090602DE0940090602CE094005003020AEF
:100988002CE0FFA3E0906001CFF0A3EFF090609916
:10099800E0FF64E0705590600FE025E02403F582E5
:1009A800E43460F583E0FCA3E024F7FDEC34FFFCBD
:1009B800C390602DE09D90602CE09C5010906002E8
:1009C800E02409F0906001E03400F0801B90600F93
:1009D800E025E02403F582E43460F583E0FDA3E03C
:1009E800906001CDF0A3EDF0D20522EFB4903590E0
:1009F800604DE0FEA3E0FF2409FDE43EFCD39060D7
:100A08002DE09D90602CE09C4010906002E024F75F
:100A1800F0906001E034FFF08008906001EEF0A3F0
:040A2800EFF0D20514
:010A2C0022A7
:101EDF00121E9BE4906030F0906018F0906051F00B
:051EEF00A3F0C208226F
:101E9B0090602FE054FEF0E054FDF0E054FBF0E0D6
:081EAB0054F7F0E054EFF022BF
:101E1A00121E9BC209E490602BF0906051F0A3F06F
:0B1E2A00C208C203906036F0A3F02253
:091F7F00121E9B90604FEFF0224E
:101C6F00300940EFB4041F90600FEDF0E025E02441
:101C7F0003F582E43460F583E0FBA3E090602CCBA6
:101C8F00F0A3EBF08005906050EDF090604FEFF017
:101C9F00121E9BE490602BF0906051F0A3F0AF0503
:041CAF00121F5D2281
:1013450090604FE064016008E064076003021434B4
:1013550090602FE04401F0D390603CE094CC906025
:101365003BE0940C400890603A7405F08048D390B7
:10137500603CE0943390603BE0940C400890603A08
:101385007404F08031D390603CE0946690603BE05B
:10139500940B400890603A7403F0801AD390603C37
:1013A500E0949990603BE0940A90603A400574029D
:1013B500F080037401F0906030E0700A90603AE0CC
:1013C500906030F08015906030E0FF90603AE0D397
:1013D5009F4008906030E090603AF090603AE0C33A
:1013E500940590602FE040054410F0800354EFF021
:1013F50090603AE0C3940490602FE040054408F003
:10140500800354F7F090603AE0C3940390602FE0B6
:1014150040054404F0800354FBF090603AE0C39427
:101425000290602FE04002803354FDF00215689071
:10143500604FE064056005E064097030906050E03D
:1014450024FE601414601B2402600302156890607A
:101455002FE04401F002156890602FE04402F0028D
:10146500156890602FE04404F002156890604FE025
:101475006402600302156890602FE04401F0D39088
:10148500603CE094CC90603BE0940C400890603A5E
:101495007405F08048D390603CE0943390603BE065
:1014A500940C400890603A7404F08031D390603C0D
:1014B500E0946690603BE0940B400890603A7403BA
:1014C500F0801AD390603CE0949990603BE0940AD8
:1014D50090603A40057402F080037401F090600456
:1014E500E064036004E0B4040690603A7406F0908A
:1014F5006030E0700A90603AE0906030F0801590BE
:101505006030E0FF90603AE0C39F5008906030E0A3
:1015150090603AF090603AE0906018F07F017E00AC
:10152500121E8390603AE0C39403400790602FE059
:101535004402F090603AE0C39404400790602FE0C5
:101545004404F090603AE0C39405400790602FE0B2
:101555004408F090603AE0C39406400790602FE09D
:101565004410F090602BE06017E4F0C209C204302B
:101575000608C20690604FF0800690604F7401F037
:10158500300316C203C208300609C206E490604F54
:10159500F0800690604F7401F090604FE070031288
:0315A5001E9B2268
:0C1F5D00906013EFF09060537401F022CC
:101CB30090600FE025E02403F582E43460F583E0CF
:101CC300FFA3E090602CCFF0A3EFF090602CE0FE38
:101CD300A3E0FF121F43121F367F03121F5D9060A4
:091CE30014121249000000002255
:1015A800906004E0600302174190604FE07003020E
:1015B8001741906050E064017064906003E0FF7E22
:1015C800007C047DB01210CAE4FCFD906014E0F8C1
:1015D800A3E0F9A3E0FAA3E0FBC31212065003024A
:1015E800173690601412124900000000906003E062
:1015F800B401057403F08007906003E02403F090C1
:10160800602CE0FEA3E0FFE4FCFD7B36FAF9F8D39A
:10161800121206506590602DE024DB0217239060BB
:101628002CE0FEA3E0FFE4FCFD7BAFFAF9F8C3125F
:1016380012065049E47F28FEFDFC906014E0F8A3F0
:10164800E0F9A3E0FAA3E0FBC31212065003021765
:10165800369060141212490000000090602CE0FEE1
:10166800A3E0FFE4FCFD7B13FAF9F8D3121206504D
:101678000990602DE024FE02172302172D90602C9C
:10168800E0FEA3E0FFE4FCFD7B9DFAF9F8C312122B
:10169800065047E47FF0FEFDFC906014E0F8A3E0FC
:1016A800F9A3E0FAA3E0FBC31212065003021736AF
:1016B8009060141212490000000090602CE0FEA314
:1016C800E0FFE4FCFD7B13FAF9F8D3121206500888
:1016D80090602DE024FE8043804BE47FA47E01FDD2
:1016E800FC906014E0F8A3E0F9A3E0FAA3E0FBC3E0
:1016F800121206403990601412124900000000903E
:10170800602CE0FEA3E0FFE4FCFD7B13FAF9F8D3BC
:10171800121206501090602DE024FEF090602CE02C
:1017280034FFF0800990602CE4F0A37411F090600D
:0A1738002CE0FEA3E0FF121F432285
:031F9800021F43E2
:101BD50078E3E2543FF2E24440F2907195E4F0C2BA
:101BE500A778C2E2543FF2E24440F2907181E4F0FA
:101BF500C28378F2E254FCF2E24401F2E4F0C2B0AE
:101C050078D2E254FCF2E24401F2907186E4F0C22B
:101C15009078C3E2543FF2E24440F2907185E4F0DB
:031C2500C2872251
:031F9B00D28322CC
:031F9E00C28322D9
:031FA100D2B02299
:031FA400C2B022A6
:031FA700D29022B3
:031FAA00C29022C0
:031FAD00D28722B6
:031FB000C28722C3
:101B55000218A4E493A3F8E493A34003F68001F2EA
:101B650008DFF48029E493A3F85407240CC8C33391
:101B7500C4540F4420C8834004F456800146F6DF60
:101B8500E4800B010204081020408090199DE47E3A
:101B9500019360BCA3FF543F30E509541FFEE49355
:101BA500A360010ECF54C025E060A840B8E493A31C
:101BB500FAE493A3F8E493A3C8C582C8CAC583CA47
:101BC500F0A3C8C582C8CAC583CADFE9DEE780BEFF
:011A7900006C
:1010CA00EF8DF0A4A8F0CF8CF0A428CE8DF0A42E3A
:0210DA00FE22F4
:1010DC00E88FF0A4CC8BF0A42CFCE98EF0A42CFCB3
:1010EC008AF0EDA42CFCEA8EF0A4CDA8F08BF0A431
:1010FC002DCC3825F0FDE98FF0A42CCD35F0FCEB90
:10110C008EF0A4FEA9F0EB8FF0A4CFC5F02ECD3954
:0F111C00FEE43CFCEAA42DCE35F0FDE43CFC22C1
:10112B0075F008758200EF2FFFEE33FECD33CDCC7B
:10113B0033CCC58233C5829BED9AEC99E5829840FE
:10114B000CF582EE9BFEED9AFDEC99FC0FD5F0D6DB
:10115B00E4CEFBE4CDFAE4CCF9A88222B800C1B905
:10116B000059BA002DEC8BF084CFCECDFCE5F0CB43
:10117B00F97818EF2FFFEE33FEED33FDEC33FCEB7C
:10118B0033FB10D703994004EB99FB0FD8E5E4F937
:10119B00FA227818EF2FFFEE33FEED33FDEC33FC24
:1011AB00C933C910D7059BE99A4007EC9BFCE99A18
:1011BB00F90FD8E0E4C9FAE4CCFB2275F010EF2F5D
:1011CB00FFEE33FEED33FDCC33CCC833C810D7075D
:1011DB009BEC9AE899400AED9BFDEC9AFCE899F898
:0E11EB000FD5F0DAE4CDFBE4CCFAE4C8F9222B
:0D11F900CFF4CFCEF4CECDF4CDCCF4CC228B
:10120600EB9FF5F0EA9E42F0E99D42F0E89C45F03E
:0112160022B5
:10121700E8600FECC313FCED13FDEE13FEEF13FFB5
:03122700D8F122D9
:10122A00E8600FEFC333FFEE33FEED33FDEC33FC22
:03123A00D8F122C6
:0C123D00ECF0A3EDF0A3EEF0A3EFF02224
:10124900A8828583F0D083D08212126012126012B4
:101259001260121260E473E493A3C583C5F0C583D9
:10126900C8C582C8F0A3C583C5F0C583C8C582C8EF
:011279002252
:10127A00D083D082F8E4937012740193700DA3A303
:10128A0093F8740193F5828883E473740293686017
:06129A00EFA3A3A380DF17
:1012A000EC8EF0A4CCC5F0CCCDF8EFA4CEC5F02DDB
:1012B000FDE43CFCE8A42EC8C5F03DFDE43CFCEF99
:0D12C000A4FFE5F028FEE43DFDE43CFC2227
:100A2D00E5082459F582E43460F583E00508229049
:100A3D006056301103906059E475F00112132502D0
:100A4D0012CD200AE97F2ED20A8018EF540F249080
:100A5D00D43440D4FF300E0BEF24BFB41A00500332
:100A6D002461FFE50960021509050CE50C7002050E
:100A7D000B30110E906056E475F001121325EF0244
:100A8D001313021F907403D2118003E4C211F508F1
:100A9D0090605612133CE4F509F50BF50CE5096071
:100AAD00077F20120A7080F5750AFFC20BC20AC2B9
:100ABD000CC20DC20FC210C212120A3CFF700D30D3
:100ACD0011057F00120A81AF0CAE0B22B4255FC257
:100ADD00D5C20E120A3CFF24D0B40A00501A75F08C
:100AED000A780930D50508B6FF0106C6A426F620FA
:100AFD00D5047002D20D80D924CFB41A00EF500462
:100B0D00C2E5D20E020C82D20B80C6D20A80C0D2B0
:100B1D000C80BCD2D580BAD20F80B47F20120A705F
:100B2D00200C077401B5090040F1120A2DFF120ABD
:100B3D0070020AAAD212D2108095120A2DFB120A47
:100B4D002DFA120A2DF94A4B700679537A0D7BFF57
:100B5D00200C2EE509602A7E008E8275830012120C
:100B6D00E660060EEE650A70F0C2D5EBC0E0EAC095
:100B7D00E0E9C0E0EE120CC9D0E0F9D0E0FAD0E027
:100B8D00FB1212CDFF60AAEBC0E0EAC0E0E9C0E0C5
:100B9D00120A70D0E02401F9D0E03400FAD0E0FB65
:100BAD00E50A0460DCD50AD980877BFF7A0C79C50C
:100BBD00D20C809C791080027908C210C212800874
:100BCD00D2D5790A8004790AC2D5E50A047002F5F6
:100BDD000AE4FAFDFEFF120A2DFC7B08200B13120E
:100BED000A2DFD7B10300A0A120A2DFE120A2DFF66
:100BFD007B20EC3382D592D55013C3E4300A069F87
:100C0D00FFE49EFEE4200B039DFDE49CFCE4CBF889
:100C1D00C20BEC700CCFCECDCCE824F8F870F3807D
:100C2D0017C3EF33FFEE33FEED33FDEC33FCEB3347
:100C3D00FB994002FB0FD8E9EB300B05F8D0E0C46F
:100C4D0048B20BC0E00AEC4D4E4F78207B0070C2CD
:100C5D00EAB50A0040BCC0E0120CCBD0F0D0E020C9
:100C6D000B04C4C0E0C4B20BC0F0120A59D0F0D5C9
:100C7D00F0EB020AAA12127A0B47530BC1580B184C
:100C8D004C0B14420BC54F0BCD440BCD490B2D43D3
:080C9D000BD3550BB7460BB752
:100CA500450BB7470D73500B1C2D0B202E0B432BFB
:100CB5000B24230B41200D5C2A0ADC4800000B3B6A
:100CC5003F3F3F00790AA2D5200D14300F09B91016
:100CD500020404B9080104A2D52010025001042021
:100CE5000C68920CB509005034C0E07F20300D1916
:100CF5007F30A20C7210720F500F120D22C20CC25F
:100D050010C20FC2127F30800F300F03E9C0E0120E
:100D15000A70300F03D0E0F9D0E0B509CC300F17D9
:100D25007F30B9100C120A707F58300E077F78801B
:100D350003B90803120A70300C057F2D020A707F73
:100D4500202012F87F2B2010F322920C80CF286EE2
:100D5500756C6C2900D20B120A2D300BF8C20B787A
:100D65000930D50108F6020ADC2D50434958120A0C
:100D75002D2403B405004001E4900D6E93120A6121
:0D0D8500743A120A61D20D750904020BC107
:1012CD00BB010689828A83E0225002E722BBFE021F
:0912DD00E32289828A83E4932252
:1012E600BB010CE58229F582E5833AF583E02250BD
:1012F60006E92582F8E622BBFE06E92582F8E22207
:0D130600E58229F582E5833AF583E4932220
:10131300BB010689828A83F0225002F722BBFE01B9
:02132300F322B3
:10132500F8E0FBA3A3E0F925F0F0E5821582700251
:071335001583E0FA38F022F5
:09133C00EBF0A3EAF0A3E9F022B2
:00000001FF
