:0300000002114B9F
:0C114B00787FE4F6D8FD75812102119236
:0C000300000000000000000000000000F1
:0B158E00EF1FAC0670011E4C70F6222F
:10154100AB07AA06EB1BAE0270011A4E60097FAA17
:081551007E0512158E80ED22CB
:10107C00907120E04480F07F057E0012158EE4FF15
:10108C00FE12154175A75575AC589071327450F01D
:10109C009071307403F0907136742FF07F18EF2438
:1010AC0066FDE434718D82F583E4F00FEFB433EE1A
:1010BC00904011E4935407FF90711CE054F84FF0EA
:1010CC00904017E493547FFF90711DE054804FF0D3
:1010DC00904010E493FF5401C43333335480FE909A
:1010EC007123E0547F4EF0EFC313543F4440FFA3F1
:1010FC00E054804FF0904012E493FF540FFE907137
:10110C0046E054F04EF0EFC4540FFF90714FE05492
:10111C00F04FF0904013E493543FFF907140E05433
:10112C00C04FF0904014E493907126F0904015E479
:0E113C0093907128F0904016E49390712AF081
:01114A002282
:0511D70042604F000022
:10139B0078D3E24430F278E2E24430F278F2E2447D
:1013AB000CF2786AE24478F27591FF907123E05465
:1013BB00D8F0E04459F09071227407F0439E7043CB
:0313CB0099402224
:10142300907123E054D8F0EF7006E04459F0800B3C
:10143300EFB40107907123E0445BF07869E244481C
:08144300F27F017E0002154159
:1013FA00539940EFB4010543990E8010EFB40205EA
:10140A004399128007EFB403034399197869E244B8
:09141A0048F27F017E0002154139
:100D0D00E490600CF0A3F0A3F090600F120C1100B2
:100D1D00000000E4906013F0A3F074FF906015F0F4
:100D2D00A3F0E490600CF07869E24401F2786BE294
:100D3D0030E1FAAF93EF75F010A4FFE594C4540FB2
:100D4D00FDEF4DFF90600DE5F0F0A3EFF07402F2B2
:100D5D0090600CE0C39402406D906013E0FEA3E040
:100D6D00FFD390600EE09F90600DE09E400CE0FF81
:100D7D00A3E0906013CFF0A3EFF0906015E0FEA319
:100D8D00E0FFC390600EE09F90600DE09E500CE080
:100D9D00FFA3E0906015CFF0A3EFF090600FE0F8A7
:100DAD00A3E0F9A3E0FAA3E0FB90600DE0FEA3E061
:100DBD00FFE4FCFDEB2FFFEA3EFEED39FDEC38FCC8
:100DCD0090600F120C0590600CE004F0E06414606C
:100DDD0003020D3490600FE0FCA3E0FDA3E0FEA341
:100DED00E0FFC006C007906013E0FEA3E0FBAA067B
:100DFD00D007D006C3EF9BFFEE9AFEED9400FDECFD
:100E0D009400FC90600F120C0590600FE0FCA3E0C5
:100E1D00FDA3E0FEA3E0FFC006C007906015E0FE55
:100E2D00A3E0FBAA06D007D006C3EF9BFFEE9AFE08
:100E3D00ED9400FDEC9400FC90600F120C05906099
:100E4D000FE0FCA3E0FDA3E0FEA3E0FF7804120B8E
:100E5D00DF90600DEEF0A3EFF090600DE0FEA3E0EB
:010E6D00FF85
:010E6E002261
:1011DC004260370000C10C4160330041603400C1F3
:0F11EC000D41603000426031000042603500006C
:1014F30043A820D2AF75D1017895E4F2187424F291
:0A150300789174A0F21874FDF22232
:03001E00020734A2
:10073400C0E0C0F0C083C082C0D075D000C000C08B
:1007440001C002C003C004C005C006C0077891E21E
:0A07540020E703020A77E24480F276
:10075E00D3906029E09414906028E09405500CA387
:10076E00E004F07006906028E004F030A356D20C3E
:10077E00D3906029E094B0906028E0940450030276
:10078E0008AEE4FFFEFDFC90602AE0F8A3E0F9A3BA
:10079E00E0FAA3E0FB120BCE6025200A2290602A1D
:1007AE00E0FCA3E0FDA3E0FEA3E0FF120BC190600E
:1007BE0054EFF090602A120C1100000000D20AC211
:1007CE00090208AE200C030208ACD3906029E09415
:1007DE0008906028E094005005C2090208A5D39045
:1007EE006029E09412906028E09400501590602AE1
:1007FE00E0FCA3E0FDA3E0FEA3E0FF7801120BF204
:10080E008039D3906029E0941A906028E0940050CB
:10081E003290602AE0FCA3E0FDA3E0FEA3E0FF78A7
:10082E0001120BF290602A120C0590602AE0FCA3D4
:10083E00E0FDA3E0FEA3E04401FFEC90602A120C61
:10084E00058054D3906029E09496906028E094003F
:10085E004045D3A3E094A4906028E0940150272053
:10086E000A3590602AE0FCA3E0FDA3E0FEA3E0FFC2
:10087E00120BC1906054EFF090602A120C11000020
:10088E000000D20A8011D3906029E094B0906028C5
:10089E00E094045002D209906028E4F0A3F0C20C58
:1008AE0090602FE004F0700690602EE004F09060EF
:1008BE002EE0FEA3E0FFD39414EE9400502F906030
:1008CE0044E030E002D291906044E030E102D292F6
:1008DE00906044E030E202D293906044E030E30254
:1008EE00D294906044E030E40ED295800AC291C258
:1008FE0092C293C294C295C3EF9464EE94004007E3
:07090E0090602EE4F0A3F05D
:10091500906033E004F0E0C3940A5003020A51E406
:10092500F0A3E004F0E094C850030209C8E4F09095
:10093500604BE0640260030209C8200D4490604AE0
:10094500E024FE601614601C146022146028240440
:10095500702B906044E04401F08022906044E044B4
:1009650002F08019906044E04404F08010906044E7
:10097500E04408F08007906044E04410F0D20D8018
:100985004290604AE024FE601614601C1460221434
:1009950060282404702B906044E054FEF08022907F
:1009A5006044E054FDF08019906044E054FBF08011
:1009B50010906044E054F7F08007906044E054EFF5
:1009C500F0C20D906038E004F07006906037E004E6
:1009D500F0C3906038E09488906037E09413400944
:0909E500E4F0A3F090604D04F071
:1009EE00906030E004F0E0C394C84007E4F09060FB
:0309FE003A04F0C8
:100A010090603DE064017041906032E004F0700656
:100A1100906031E004F0C3906032E094F090603176
:100A2100E09455500A121567906039E4F08021D3A3
:100A3100906032E0942C906031E09456500B121586
:100A4100599060397401F08007906031E4F0A3F0AF
:100A5100906036E004F07006906035E004F0C390D9
:100A61006036E09410906035E094274009E4F0A3EB
:060A7100F090604504F066
:100A7700D007D006D005D004D003D002D001D000D3
:0B0A8700D0D0D082D083D0F0D0E0327D
:1013CE0078E3E254F3F2E24404F29071937410F075
:1013DE0075D10278A17409F218745FF278A3E4F261
:0C13EE0018F2789D74A0F21874E2F2224C
:101496009071937410F075D10278A17401F21874EA
:1014A600CBF278A3E4F218F2789D74A0F21874E2F5
:0214B600F22220
:101471009071937410F075D10278A17409F2187407
:101481005FF278A37401F21874AFF2789D74A0F240
:051491001874E2F222D4
:0815A400E478A3F2EF18F22233
:0D1567009071937410F0789CE24402F2221F
:0E155900789CE254FCF2907193E4F0C2A5225B
:0815AC008FD7E5D430E4FB22E7
:10150D0078C2E254CFF2E24410F29071807404F08C
:0A151D0075D60175D59F75D2102216
:1013640078E3E254FCF2E24401F2907192740FF0DB
:1013740075D1049071057401F09071047476F09045
:101384007107E4F090710674BBF090710174A0F0E1
:0713940090710074FEF022CD
:0D157400907192740FF090710074FEF022DF
:0F000F00907100E054FCF0907192E4F0C2A422D2
:10132600906053EFF07E007C017D76120C68E47BC2
:10133600FFFAF9F8120B2F7808120BDF907107EFFE
:10134600F0906053E0FF7E007C017D76120C68E42D
:0E1356007BFFFAF9F8120B2F907106EFF022D0
:0B1599007379732072657365740A009B
:1011FB0041604300416044004160420041603B005C
:10120B0041604500426040000041603A0041603D52
:09121B000041603C004160390013
:10129A0078D2E254F3F2E24404F2907187E4F0C2A5
:1012AA0091E254CFF2E24410F2A3E4F0C292E25483
:1012BA003FF2E24440F2A3E4F0C29308E254FCF2A3
:1012CA00E24401F2A3E4F0C294E254F3F2E24404E9
:0712DA00F2A3E4F0C295222B
:1012E10075D9DD12107C75D95590715EE054FEF010
:1012F10075D9BB12150D1214F31213CE1215591212
:10130100136412000F12129A78E2E2543FF278E06D
:10131100E24408F212139B7BFF7A15799912043A81
:0513210012002180FB19
:0D158100E5F430E4FB8FF7E5F430E4FB22E5
:1015270078E3E254F3F2E24404F29071937404F026
:0A15370075D60175D59F75D21022FC
:081224004160520041605100DD
:0900210090603AE070030203CE86
:10002A00E4906000F0A3F0A3F0A3F0A3120C110077
:10003A00000000E4906008F0A3F0A3F0A3F0906041
:10004A003AF090603CE07054FF1214237F011213BF
:10005A00FA120D0D906048EEF0A3EFF0C3906049DC
:10006A00E09490906048E09403400690603C7401EC
:10007A00F07F021213FA120D0D906046EEF0A3EF14
:10008A00F0C3906047E09433906046E0940E4005D8
:10009A00E490603CF090603CE0706B227F011214A7
:1000AA00237F011213FA120D0D906048EEF0A3EFB0
:1000BA00F0C3906049E09493906048E0940D400941
:1000CA00E4906008F0A30203BED3906049E094F084
:1000DA00906048E094015023E4906008F0A3F09007
:1000EA006008E0FCA3E0FDEC78A3F2ED18F212152B
:1000FA0059E490603CF090603DF02290603CE064EE
:10010A000470030203CEE4FF1214237F021213FACF
:10011A00120D0D906046EEF0A3EFF090603CE064A3
:10012A00017043D3906047E094CC906046E0940A13
:10013A00502E90603DE0640170030203CE90600887
:10014A007401F0A37437F0906008E0FCA3E0FDECC2
:10015A0078A3F2ED18F212147190603D7401F02246
:10016A0090603C7402F0C3906047E094CC90604683
:10017A00E0940E403090603CE06403602890600890
:10018A007401F0A37437F0906008E0FCA3E0FDEC82
:10019A0078A3F2ED18F212147190603D7401F09098
:1001AA00603C7403F090603CE06403600302025018
:1001BA00906039E06050120D0D906046EEF0A3EFAA
:1001CA00F0C3906047E09466906046E0940E400663
:1001DA00906051E004F0906051E0C3940A402CE42E
:1001EA00F0906008F0A3F0906008E0FCA3E0FDEC5A
:1001FA0078A3F2ED18F212155990603C7404F0E4F9
:10020A0090603DF08005E4906051F0C3906047E053
:10021A0094CC906046E0940E50030203CEE49060C2
:10022A0008F0A3F0906008E0FCA3E0FDEC78A3F2EC
:10023A00ED18F212155990603C7404F0E490603D98
:06024A00F0906051F0226B
:1002500090603CE0640260030203CE90603DE06485
:1002600002601FE4906008F0A3F0906008E0FCA337
:10027000E0FDEC78A3F2ED18F212149690603D7454
:1002800002F0C3906047E09499906046E0940D902E
:10029000600A40097413F0A37488F080077467F053
:1002A000A37484F07F011214237F031213FA120D3A
:1002B0000D90603EEEF0A3EFF090603EE0FEA3E014
:1002C000FFE4FCFD7BC07A277909F8120AA4E4FB5D
:1002D0007A10F9F8120B2FE47B4CFAF9F8120B2F75
:1002E000906000EEF0A3EFF0906046E0FEA3E0FF28
:1002F0007C0F7DA0120C68E4FB7A10F9F8120B2F2A
:10030000906002EEF0A3EFF0C390603FE094FF90A6
:10031000603EE0940F400E906052E0D39400500392
:100320000203A08078906002E0FEA3E0FF906000EE
:10033000E0FCA3E0FD120C68E47BE87A03F9F81214
:100340000B2F906004120C0590600AE0FEA3E0FF02
:10035000E4FCFD906004E0F8A3E0F9A3E0FAA3E078
:10036000FBC3120BCE500E906052E0C39464503029
:10037000E004F0802B90600AE0FEA3E0FFE4FCFDC7
:10038000906004E0F8A3E0F9A3E0FAA3E0FBD31245
:100390000BCE400C906052E0D394004003E014F088
:1003A000906052E0FF7E007C017DCB120C68E47B04
:1003B00064FAF9F8120B2F906008EEF0A3EFF090BA
:0E03C0006008E0FCA3E0FDEC78A3F2ED18F27B
:0103CE00220C
:0A122C0041605400C109C10AC10B62
:1014B800E4906037F0A3F0906044E054FEF0E0540C
:0F14C800FDF0E054FBF0E054F7F0E054EFF022B9
:1014D700300B18EFB4020790604AEDF0800590607A
:0C14E7004CEDF090604BEFF01214B822B6
:100FA800200A0302107BC20A906054E0120C420F20
:100FB800F902101B18106222101530102D62100F44
:100FC800680FFD901009980FDFA21001A81005E026
:100FD8001022E20000107B300B0302107B1214B8C1
:100FE80090604BE004F0E0D39403500302107B8040
:100FF800657D01800E7D02800A7D0380067D048068
:10100800027D057F0280107D017F03800A7D027FBB
:101018000380047D037F030214D7D20B90604B74C6
:1010280002F00214B890604AE024FC600514600ADB
:10103800800E90603B7491F0800690603B747EF067
:1010480090603BE0906042F0E0FF12132612144BD0
:1010580012157490604B7401F02290603BE0D394B9
:1010680000401012144BE490603BF0906042F09006
:04107800604BF022B7
:1012360041604E0541604A0541604C0141604D00E8
:100E6F0090604BE070030214B890604BE064016037
:100E7F0003020F5D906044E04401F0D3906047E0BF
:100E8F0094CC906046E0940C400B90604EE094053B
:100E9F0040037405F0C3906047E094CC906046E047
:100EAF00940C500C90604EE0C3940440037404F013
:100EBF00C3906047E09433906046E0940C500C90E0
:100ECF00604EE0C3940340037403F0C3906047E0A7
:100EDF009466906046E0940B500C90604EE0C39483
:100EEF000240037402F0C3906047E094999060460B
:100EFF00E0940A500690604E7401F090604EE0C38B
:100F0F009405906044E040054410F0800354EFF0E6
:100F1F0090604EE0C39404906044E040054408F0B4
:100F2F00800354F7F090604EE0C39403906044E068
:100F3F0040054404F0800354FBF090604EE0C394EE
:100F4F0002906044E04002802654FDF0802D9060B6
:100F5F004BE0B40326A3E024FE60101460162402B5
:100F6F007019906044E04401F08010906044E044B8
:100F7F0002F08007906044E04404F090604DE06020
:100F8F0017E4F0906042E0600890604B7401F080CD
:090F9F0005E490604BF0C20B2246
:10144B00E4906055F01215747FA17E0012154112C5
:10145B00000F7FA17E00121541906055E004F0E073
:05146B00C3940340E002
:011470002259
:10124700906045E06010E4F0906041E004F07006C3
:0E125700906040E004F090604CE06401703460
:10126500906056E02401FFE433FE7C047DB0120A51
:1012750092C3906041E09F906040E09E4016906070
:1012850056E004F090603BE094F87480947F40044D
:04129500E024E7F07A
:011299002232
:101157000212E1E493A3F8E493A34003F68001F2BB
:1011670008DFF48029E493A3F85407240CC8C33399
:10117700C4540F4420C8834004F456800146F6DF68
:10118700E4800B01020408102040809011D7E47E10
:10119700019360BCA3FF543F30E509541FFEE4935D
:1011A700A360010ECF54C025E060A840B8E493A324
:1011B700FAE493A3F8E493A3C8C582C8CAC583CA4F
:1011C700F0A3C8C582C8CAC583CADFE9DEE780BE07
:0112460000A7
:100A9200EF8DF0A4A8F0CF8CF0A428CE8DF0A42E78
:020AA200FE2232
:100AA400E88FF0A4CC8BF0A42CFCE98EF0A42CFCF1
:100AB4008AF0EDA42CFCEA8EF0A4CDA8F08BF0A46F
:100AC4002DCC3825F0FDE98FF0A42CCD35F0FCEBCE
:100AD4008EF0A4FEA9F0EB8FF0A4CFC5F02ECD3993
:0F0AE400FEE43CFCEAA42DCE35F0FDE43CFC2200
:100AF30075F008758200EF2FFFEE33FECD33CDCCBA
:100B030033CCC58233C5829BED9AEC99E58298403C
:100B13000CF582EE9BFEED9AFDEC99FC0FD5F0D619
:100B2300E4CEFBE4CDFAE4CCF9A88222B800C1B943
:100B33000059BA002DEC8BF084CFCECDFCE5F0CB81
:100B4300F97818EF2FFFEE33FEED33FDEC33FCEBBA
:100B530033FB10D703994004EB99FB0FD8E5E4F975
:100B6300FA227818EF2FFFEE33FEED33FDEC33FC62
:100B7300C933C910D7059BE99A4007EC9BFCE99A56
:100B8300F90FD8E0E4C9FAE4CCFB2275F010EF2F9B
:100B9300FFEE33FEED33FDCC33CCC833C810D7079B
:100BA3009BEC9AE899400AED9BFDEC9AFCE899F8D6
:0E0BB3000FD5F0DAE4CDFBE4CCFAE4C8F92269
:0D0BC100CFF4CFCEF4CECDF4CDCCF4CC22C9
:100BCE00EB9FF5F0EA9E42F0E99D42F0E89C45F07D
:010BDE0022F4
:100BDF00E8600FECC313FCED13FDEE13FEEF13FFF4
:030BEF00D8F12218
:100BF200E8600FEFC333FFEE33FEED33FDEC33FC61
:030C0200D8F12204
:0C0C0500ECF0A3EDF0A3EEF0A3EFF02262
:100C1100A8828583F0D083D082120C28120C28126E
:100C21000C28120C28E473E493A3C583C5F0C58393
:100C3100C8C582C8F0A3C583C5F0C583C8C582C82D
:010C41002290
:100C4200D083D082F8E4937012740193700DA3A341
:100C520093F8740193F5828883E473740293686055
:060C6200EFA3A3A380DF55
:100C6800EC8EF0A4CCC5F0CCCDF8EFA4CEC5F02D19
:100C7800FDE43CFCE8A42EC8C5F03DFDE43CFCEFD7
:0D0C8800A4FFE5F028FEE43DFDE43CFC2265
:1003CF00E5082403F582E43460F583E00508229004
:1003DF006000300703906003E475F001120CED022A
:1003EF000C952000E97F2ED2008018EF540F249037
:1003FF00D43440D4FF30040BEF24BFB41A005003A1
:10040F002461FFE50960021509050CE50C70020572
:10041F000B30070E906000E475F001120CEDEF0247
:10042F000CDB0215AC7403D2078003E4C207F50896
:10043F00906000120D04E4F509F50BF50CE5096069
:10044F00077F2012041280F5750AFFC201C200C295
:10045F0002C203C205C206C2081203DEFF700D30CE
:10046F0007057F00120423AF0CAE0B22B4255FC229
:10047F00D5C2041203DEFF24D0B40A00501A75F05F
:10048F000A780930D50508B6FF0106C6A426F6205E
:10049F00D5047002D20380D924CFB41A00EF5004D0
:1004AF00C2E5D204020624D20180C6D20080C0D297
:1004BF000280BCD2D580BAD20580B47F201204123C
:1004CF002002077401B5090040F11203CFFF120497
:1004DF001202044CD208D20680951203CFFB1203EE
:1004EF00CFFA1203CFF94A4B700679F57A067BFFE4
:1004FF0020022EE509602A7E008E82758300120C81
:10050F00AE60060EEE650A70F0C2D5EBC0E0EAC031
:10051F00E0E9C0E0EE12066BD0E0F9D0E0FAD0E0EF
:10052F00FB120C95FF60AAEBC0E0EAC0E0E9C0E067
:10053F00120412D0E02401F9D0E03400FAD0E0FB2D
:10054F00E50A0460DCD50AD980877BFF7A067967D4
:10055F00D202809C791080027908C206C2088008F6
:10056F00D2D5790A8004790AC2D5E50A047002F55A
:10057F000AE4FAFDFEFF1203CFFC7B0820011312E1
:10058F0003CFFD7B1030000A1203CFFE1203CFFF03
:10059F007B20EC3382D592D55013C3E43000069FF5
:1005AF00FFE49EFEE42001039DFDE49CFCE4CBF8F8
:1005BF00C201EC700CCFCECDCCE824F8F870F380EC
:1005CF0017C3EF33FFEE33FEED33FDEC33FCEB33AC
:1005DF00FB994002FB0FD8E9EB300105F8D0E0C4DE
:1005EF0048B201C0E00AEC4D4E4F78207B0070C23C
:1005FF00EAB50A0040BCC0E012066DD0F0D0E02092
:10060F000104C4C0E0C4B201C0F01203FBD0F0D5A6
:10061F00F0EB02044C120C4204E95305635804BA80
:10062F004C04B64205674F056F44056F4904CF432D
:08063F000575550559460559E2
:100647004505594707155004BE2D04C22E04E52B56
:1006570004C62304E32006FE2A047E48000004DDC6
:100667003F3F3F00790AA2D5200314300509B9108E
:10067700020404B9080104A2D5200602500104208F
:1006870002689202B509005034C0E07F2030031998
:100697007F30A20272067205500F1206C4C202C250
:1006A70006C205C2087F30800F300503E9C0E0129B
:1006B7000412300503D0E0F9D0E0B509CC300517B6
:1006C7007F30B9100C1204127F583004077F7880EE
:1006D70003B908031204123002057F2D0204127FAA
:1006E700202008F87F2B2006F322920280CF286E65
:1006F700756C6C2900D2011203CF3001F8C2017862
:100707000930D50108F602047E2D504349581203DB
:10071700CF2403B405004001E490071093120403AB
:0D072700743A120403D2037509040205633D
:100C9500BB010689828A83E0225002E722BBFE025D
:090CA500E32289828A83E4932290
:100CAE00BB010CE58229F582E5833AF583E02250FB
:100CBE0006E92582F8E622BBFE06E92582F8E22245
:0D0CCE00E58229F582E5833AF583E493225F
:100CDB00BB010689828A83F0225002F722BBFE01F8
:020CEB00F322F2
:100CED00F8E0FBA3A3E0F925F0F0E5821582700290
:070CFD001583E0FA38F02234
:090D0400EBF0A3EAF0A3E9F022F0
:00000001FF
