:03000000020A4FA2
:0C0A4F00787FE4F6D8FD758141020A961C
:0C000300000000000000000000000000F1
:0B0CF700EF1FAC0670011E4C70F622CF
:100CD200AB07AA06EB1BAE0270011A4E60097FAA8F
:080CE2007E05120CF780ED22E3
:10098100907120E04480F07F057E00120CF7E4FFB7
:10099100FE120CD275A75575AC589071327450F097
:1009A1009071307403F0907136742FF07F18EF243A
:1009B10066FDE434718D82F583E4F00FBF33EF906F
:1009C1004011E4935407FF90711CE054F84FF090EC
:1009D1004017E493547FFF90711DE054804FF090D5
:1009E1004010E493FF5401C43333335480FE9071BB
:1009F10023E0547F4EF0EFC313543F4440FFA3E084
:100A010054804FF0904012E493FF540FFE907146D2
:100A1100E054F04EF0EFC4540FFF90714FE054F0EA
:100A21004FF0904013E493543FFF907140E054C065
:100A31004FF0904014E493907126F0904015E493A8
:0D0A4100907128F0904016E49390712AF017
:010A4E002285
:040C6300021C00006F
:100BCB0078D3E24430F278E2E24430F2786AE244DD
:100BDB0078F27591FF907123E054D8F0E04459F00E
:0D0BEB009071227407F0439E7043994022E0
:100C1D007869E254B7F2539940BF010543990E80AC
:100C2D0006BF02034399127869E24448F27F017EC0
:040C3D0000020CD2D3
:1008A700E4FBF522F523F527F526F525F524F528AC
:1008B700F52974FFF52AF52B7869E24401F2786B84
:1008C700E230E1FAAF93EF75F010A4FFE594C4545A
:1008D7000FFDE5F0F522EF4DF5237402F2EBC3941B
:1008E70002403DD3E5239529E52295284006852238
:1008F70028852329C3E523952BE522952A500685CC
:10090700222A85232BAE22AF23E4FCFDE5272FF512
:1009170027E5263EF526ED3525F525EC3524F52486
:100927000BEB64147092AE28AF29AB07AA06C3E598
:10093700279FF527E5269AF526E5259400F525E571
:10094700249400F524AE2AAF2BAB07AA06C3E527EC
:100957009FF527E5269AF526E5259400F525E52454
:100967009400F524AF27AE26AD25AC2478041204F5
:09097700B88E228F23AE22AF23BB
:010980002254
:020C6700C10BBF
:100C840043A820D2AF75D1017895E4F2187424F208
:0A0C9400789174A0F21874FDF222AA
:03001E0002056C6C
:10056C00C0E0C0F0C083C082C0D075D000C000C055
:10057C0001C002C003C004C005C006C0077891E2E8
:0A058C0020E7030206F9E24480F2C2
:10059600D3E52D9414E52C94055008052DE52D7012
:1005A60002052C30B045D20BD3E52D94B0E52C9442
:1005B6000450030206A8E4FFFEFDFCAB31AA30A9F5
:1005C6002FA82E1204A7601E200A1BAF31AE30AD35
:1005D6002FAC2E12049A8F41753100753000752F9D
:1005E60000752E00D20AC2090206A8200B030206D5
:1005F600A6D3E52D9408E52C94005005C209020601
:10060600A0D3E52D9412E52C94005017AF31AE30EF
:10061600AD2FAC2E78011204CB8F318E308D2F8CFE
:100626002E8077D3E52D941AE52C94005029AF310E
:10063600AE30AD2FAC2E78011204CB8F318E308DBB
:100646002F8C2EE5314401F531E530F530E52FF5F7
:100656002FE52EF52E8043D3E52D9496E52C9400B8
:100666004038D3E52D94A4E52C94015020200A2A85
:10067600AF31AE30AD2FAC2E12049A8F41753100DA
:10068600753000752F00752E00D20A800DD3E52D2A
:1006960094B0E52C94045002D209752C00752D00F7
:0206A600C20B85
:1006A8000533E53370020532D39414E532940050D3
:1006B80025E51F30E002D291E51F30E102D292E534
:1006C8001F30E202D293E51F30E302D294E51F30D7
:1006D800E40ED295800AC291C292C293C294C29586
:1006E800C3E5339464E532940040067532007533EF
:0106F8000001
:1006F900D007D006D005D004D003D002D001D00055
:0B070900D0D0D082D083D0F0D0E032FE
:100B9C0078E3E254F3F2E24404F29071937410F0AF
:100BAC0075D10278A1740DF21874F2F278A3740264
:0F0BBC00F2187482F2789D74A0F21874E2F2229B
:100C41009071937410F075D10278A17401F2187447
:100C5100C8F278A3E4F218F2789D74A0F21874E255
:020C6100F2227D
:100BF8009071937410F075D10278A1740DF2187485
:100C0800F2F278A37402F2187482F2789D74A0F25A
:050C18001874FEF22239
:0E000F00789CE254FCF2907193E4F0C2A522BA
:080D0D008FD7E5D430E4FB228E
:100C9E0078C2E254CFF2E24410F29071807404F004
:0A0CAE0075D60175D59F75D210228E
:0B0D02007379732072657365740A003A
:060C6900011E00011F0046
:100B250078D2E254F3F2E24404F2907187E4F0E201
:100B350054CFF2E24410F2A3E4F0E2543FF2E2446F
:100B450040F2A3E4F008E254FCF2E24401F2A3E42B
:0D0B5500F0E254F3F2E24404F2A3E4F022D3
:100ADB0075D9DD12098175D95590715EE054FEF020
:100AEB0075D9BB120C9E120C84120B9C12000F12A8
:100AFB000B25120BCB7BFF7A0D7902120083120CA4
:100B0B004178A3E4F2187409F2431F01431F024317
:0A0B1B001F04431F08431F1080FE53
:0D0CEA00E5F430E4FB8FF7E5F430E4FB2285
:100CB80078E3E254F3F2E24404F29071937404F09E
:0A0CC80075D60175D59F75D2102274
:100B620064697361626C65206368617267650A001B
:100B72006C6F7720666571206368617267650A0031
:100B82006375722070776D2070657263656E742074
:0A0B92003A20256C752025250A0085
:0D0C6F00014000013F00013E00023C00007A
:100714007F01120C1D1208A78E348F357F02120C34
:100724001D1208A78E368F37E540702AD3E535941D
:10073400E8E53494025003753F01C3E5359490E530
:1007440034940350030208A6E53F70030208A6E4AC
:06075400F53F7540012293
:10075A00D3E53594E8E5349402400AE5379466E532
:10076A0036940E401012000FE4F540F53E7BFF7AF6
:10077A000B79628053D3E5379466E536940B4015BE
:10078A00E5379433E536940E500BC3E53594A2E56C
:10079A003494035036E53E640170030208A6E475FA
:1007AA003B04F53AF539F538AF3BAE3AAD39AC38DA
:1007BA0078081204B878A3EFF2E53BFF18EFF27558
:1007CA003E017BFF7A0B7972020083E53E64026088
:1007DA0006120C41753E02E53E640260030208A659
:1007EA00AE34AF35FCFD7B367AA37902F812037D6D
:1007FA00E4FB7A10F9F8120408A804A905AA06C3AA
:10080A00747E9FF53B74E59AF53A740199F539E4DB
:03081A0098F53816
:10081D00053DE53D7002053CC39464E53C94004004
:10082D0027E4F53CF53D7BE87A03F9F8AF3BAE3AAA
:10083D00AD39AC381204088F0E8E0D8D0C8C0B7BE0
:08084D00FF7A0B79821200838F
:10085500E47FC87E01FDFCAB3BAA3AA939A8381252
:10086500037DE47BE87A03F9F8120408E47B64FA73
:10087500F9F81204088F3B8E3A8D398C38EF4E709B
:1008850009753B01F53AF539F538AF3BAE3AAD3967
:10089500AC3878081204B878A3EFF2E53BFF18EFFF
:0108A500F260
:0108A600222F
:070C7C00014100C109C10A9A
:100A5B00020ADBE493A3F8E493A34003F68001F2CC
:100A6B0008DFF48029E493A3F85407240CC8C3339C
:100A7B00C4540F4420C8834004F456800146F6DF6B
:100A8B00E4800B0102040810204080900C63E47E8C
:100A9B00019360BCA3FF543F30E509541FFEE49360
:100AAB00A360010ECF54C025E060A840B8E493A327
:100ABB00FAE493A3F8E493A3C8C582C8CAC583CA52
:100ACB00F0A3C8C582C8CAC583CADFE9DEE780BE0A
:010C83000070
:10037D00E88FF0A4CC8BF0A42CFCE98EF0A42CFC1F
:10038D008AF0EDA42CFCEA8EF0A4CDA8F08BF0A49D
:10039D002DCC3825F0FDE98FF0A42CCD35F0FCEBFC
:1003AD008EF0A4FEA9F0EB8FF0A4CFC5F02ECD39C1
:0F03BD00FEE43CFCEAA42DCE35F0FDE43CFC222E
:1003CC0075F008758200EF2FFFEE33FECD33CDCCE8
:1003DC0033CCC58233C5829BED9AEC99E58298406B
:1003EC000CF582EE9BFEED9AFDEC99FC0FD5F0D648
:1003FC00E4CEFBE4CDFAE4CCF9A88222B800C1B972
:10040C000059BA002DEC8BF084CFCECDFCE5F0CBAF
:10041C00F97818EF2FFFEE33FEED33FDEC33FCEBE8
:10042C0033FB10D703994004EB99FB0FD8E5E4F9A3
:10043C00FA227818EF2FFFEE33FEED33FDEC33FC90
:10044C00C933C910D7059BE99A4007EC9BFCE99A84
:10045C00F90FD8E0E4C9FAE4CCFB2275F010EF2FC9
:10046C00FFEE33FEED33FDCC33CCC833C810D707C9
:10047C009BEC9AE899400AED9BFDEC9AFCE899F804
:0E048C000FD5F0DAE4CDFBE4CCFAE4C8F92297
:0D049A00CFF4CFCEF4CECDF4CDCCF4CC22F7
:1004A700EB9FF5F0EA9E42F0E99D42F0E89C45F0AB
:0104B7002222
:1004B800E8600FECC313FCED13FDEE13FEEF13FF22
:0304C800D8F12246
:1004CB00E8600FEFC333FFEE33FEED33FDEC33FC8F
:0304DB00D8F12233
:10002100E517240BF8E60517227808300702780B4C
:10003100E475F0011205360204DE2000EB7F2ED2BA
:10004100008018EF540F2490D43440D4FF30040BB7
:10005100EF24BFB41A0050032461FFE518600215B4
:1000610018051BE51B7002051A30070D7808E475A9
:10007100F001120536EF020524020D0D7403D207BB
:100081008003E4C207F5178B088A09890AE4F51889
:10009100F51AF51BE51860077F2012005C80F575E5
:1000A10019FFC201C200C202C203C205C206C208D0
:1000B10012002AFF700D3007057F0012006DAF1B83
:1000C100AE1A22B4255FC2D5C20412002AFF24D081
:1000D100B40A00501A75F00A781830D50508B6FF31
:1000E1000106C6A426F620D5047002D20380D924C5
:1000F100CFB41A00EF5004C2E5D20402026DD2015E
:1001010080C6D20080C0D20280BCD2D580BAD205CE
:1001110080B47F2012005C2002077401B5180040F2
:10012100F1120021FF12005C020095D208D2068074
:1001310095120021FB120021FA120021F94A4B709D
:1001410006793E7A037BFF20022EE518602A7E00A5
:100151008E827583001204F760060EEE651970F049
:10016100C2D5EBC0E0EAC0E0E9C0E0EE1202B4D0D3
:10017100E0F9D0E0FAD0E0FB1204DEFF60AAEBC0A8
:10018100E0EAC0E0E9C0E012005CD0E02401F9D06F
:10019100E03400FAD0E0FBE5190460DCD519D98020
:1001A100877BFF7A0279B0D202809C791080027934
:1001B10008C206C2088008D2D5790A8004790AC229
:1001C100D5E519047002F519E4FAFDFEFF120021CC
:1001D100FC7B08200113120021FD7B1030000A1264
:1001E1000021FE120021FF7B20EC3382D592D550F5
:1001F10013C3E43000069FFFE49EFEE42001039D4B
:10020100FDE49CFCE4CBF8C201EC700CCFCECDCC6C
:10021100E824F8F870F38017C3EF33FFEE33FEEDF7
:1002210033FDEC33FCEB33FB994002FB0FD8E9EBD8
:10023100300105F8D0E0C448B201C0E00AEC4D4EEF
:100241004F78207B0070C2EAB5190040BCC0E012B3
:1002510002B6D0F0D0E0200104C4C0E0C4B201C0B5
:10026100F0120045D0F0D5F0EB02009512054601E1
:10027100325301AC5801034C00FF4201B04F01B8A9
:0F0281004401B84901184301BE5501A24601A22C
:100290004501A247035E5001072D010B2E012E2BB5
:1002A000010F23012C2003472A00C7480000012624
:1002B0003F3F3F00790AA2D5200314300509B91049
:1002C000020404B9080104A2D5200602500104204A
:1002D00002689202B518005034C0E07F2030031944
:1002E0007F30A20272067205500F12030DC202C2C5
:1002F00006C205C2087F30800F300503E9C0E01256
:10030000005C300503D0E0F9D0E0B518CC3005171B
:100310007F30B9100C12005C7F583004077F788062
:1003200003B9080312005C3002057F2D02005C7FD8
:10033000202008F87F2B2006F322920280CF286E1F
:10034000756C6C2900D2011200213001F8C20178CD
:100350001830D50108F60200C72D50434958120045
:10036000212403B405004001E49003599312004D89
:0D037000743A12004DD2037518040201AC5E
:1004DE00BB010689828A83E0225002E722BBFE021C
:0904EE00E32289828A83E493224F
:1004F700BB010CE58229F582E5833AF583E02250BA
:1005070006E92582F8E622BBFE06E92582F8E22203
:0D051700E58229F582E5833AF583E493221D
:10052400BB010689828A83F0225002F722BBFE01B6
:02053400F322B0
:10053600FAE6FB0808E6F925F0F618E6CA3AF622C6
:10054600D083D082F8E4937012740193700DA3A344
:1005560093F8740193F5828883E473740293686058
:06056600EFA3A3A380DF58
:00000001FF
