:030000000218C41F
:0C18C400787FE4F6D8FD75812102190B35
:0C000300000000000000000000000000F1
:0B1D6C00EF1FAC0670011E4C70F62249
:101D1600AB07AA06EB1BAE0270011A4E60097FAA3A
:081D26007E05121D6C80ED2208
:10174F00907120E04480F07F057E00121D6CE4FF55
:10175F00FE121D1675A75575AC589071327450F066
:10176F009071307403F0907136742FF07F18EF245E
:10177F0066FDE434718D82F583E4F00FEFB433EE40
:10178F00904011E4935407FF90711CE054F84FF010
:10179F00904017E493547FFF90711DE054804FF0F9
:1017AF00904010E493FF5401C43333335480FE90C0
:1017BF007123E0547F4EF0EFC313543F4440FFA317
:1017CF00E054804FF0904012E493FF540FFE90715D
:1017DF0046E054F04EF0EFC4540FFF90714FE054B9
:1017EF00F04FF0904013E493543FFF907140E0545A
:1017FF00C04FF0904014E493907126F0904015E4A0
:0E180F0093907128F0904016E49390712AF0A7
:01181D0022A8
:0519D7004260930000D6
:101BC10078D3E24430F278E2E24430F278F2E2444F
:101BD1000CF2786AE24478F27591FF907123E05437
:101BE100D8F0E04459F09071227407F0439E70439D
:031BF100994022F6
:101AD4007869E254B7F2539940907123E054D8F0F6
:101AE400EFB4010543990E801EEFB4020C907123EC
:101AF400E04459F0439912800EEFB4030A90712325
:101B0400E0445BF04399197869E24448F27F017E2E
:041B140000021D1698
:101B8D007869E254B7F2539940907123E054D8F03C
:101B9D00EFB40106E0445BF0800AEF70079071230B
:101BAD00E04459F043990E7869E24448F27F017E92
:041BBD0000021D16EF
:1011A800E490600AF0A3F0A3F090600D1207E3004A
:1011B800000000E4906011F0A3F074FF906013F059
:1011C800A3F0E490600AF07869E24401F2786BE2F7
:1011D80030E1FAAF93EF75F010A4FFE594C4540F13
:1011E800FDEF4DFF90600BE5F0F0A3EFF07402F215
:1011F80090600AE0C39402406D906011E0FEA3E0A5
:10120800FFD390600CE09F90600BE09E400CE0FFE5
:10121800A3E0906011CFF0A3EFF0906013E0FEA37D
:10122800E0FFC390600CE09F90600BE09E500CE0E4
:10123800FFA3E0906013CFF0A3EFF090600DE0F80B
:10124800A3E0F9A3E0FAA3E0FB90600BE0FEA3E0C3
:10125800FFE4FCFDEB2FFFEA3EFEED39FDEC38FC28
:1012680090600D1207D790600AE004F0E064146003
:10127800030211CF90600DE0FCA3E0FDA3E0FEA304
:10128800E0FFC006C007906011E0FEA3E0FBAA06DD
:10129800D007D006C3EF9BFFEE9AFEED9400FDEC5D
:1012A8009400FC90600D1207D790600DE0FCA3E05D
:1012B800FDA3E0FEA3E0FFC006C007906013E0FEB8
:1012C800A3E0FBAA06D007D006C3EF9BFFEE9AFE69
:1012D800ED9400FDEC9400FC90600D1207D790602F
:1012E8000DE0FCA3E0FDA3E0FEA3E0FF78041207F5
:1012F800B190600BEEF0A3EFF090600BE0FEA3E07E
:01130800FFE5
:0113090022C1
:1019DC004260680000C10C4160640041606500C158
:0A19EC000D416063004260660000D8
:101CC80043A820D2AF75D1017895E4F2187424F2B4
:0A1CD800789174A0F21874FDF22256
:03001E00020D0AC6
:100D0A00C0E0C0F0C083C082C0D075D000C000C0AF
:100D1A0001C002C003C004C005C006C0077891E242
:0A0D2A0020E703020FFDE24480F20F
:100D3400D390605CE0941490605BE09405500CA345
:100D4400E004F0700690605BE004F030A356D20C2F
:100D5400D390605CE094B090605BE0940450030234
:100D64000E84E4FFFEFDFC90605DE0F8A3E0F9A3CF
:100D7400E0FAA3E0FB1207A06025200A2290605D40
:100D8400E0FCA3E0FDA3E0FEA3E0FF120785906072
:100D940098EFF090605D1207E300000000D20AC2F1
:100DA40009020E84200C03020E82D390605CE0944E
:100DB4000890605BE094005005C209020E7BD3905A
:100DC400605CE0941290605BE09400501590605D6C
:100DD400E0FCA3E0FDA3E0FEA3E0FF78011207C45A
:100DE4008039D390605CE0941A90605BE09400508A
:100DF4003290605DE0FCA3E0FDA3E0FEA3E0FF7899
:100E0400011207C490605D1207D790605DE0FCA3F7
:100E1400E0FDA3E0FEA3E04401FFEC90605D120757
:100E2400D78054D390605CE0949690605BE094002B
:100E34004045D3A3E094A490605BE0940150272044
:100E44000A3590605DE0FCA3E0FDA3E0FEA3E0FFB3
:100E5400120785906098EFF090605D1207E3000040
:100E64000000D20A8011D390605CE094B090605B83
:100E7400E094045002D20990605BE4F0A3F0C20C49
:100E8400906062E004F07006906061E004F09060AD
:100E940061E0FEA3E0FFD39414EE9400502F906021
:100EA40073E030E002D291906073E030E102D292BC
:100EB400906073E030E202D293906073E030E3021A
:100EC400D294906073E030E40ED295800AC291C24D
:100ED40092C293C294C295C3EF9464EE9400400707
:070EE400906061E4F0A3F04F
:100EEB00906064E004F0E0C3940A5003020FD7E46F
:100EFB00F0A3E004F0E094C85003020F9EE4F090DE
:100F0B00608FE064026003020F9E200D4490608EA0
:100F1B00E024FE601614601C146022146028240464
:100F2B00702B906073E04401F08022906073E0447A
:100F3B0002F08019906073E04404F08010906073AD
:100F4B00E04408F08007906073E04410F0D20D800D
:100F5B004290608EE024FE601614601C1460221414
:100F6B0060282404702B906073E054FEF080229074
:100F7B006073E054FDF08019906073E054FBF080D7
:100F8B0010906073E054F7F08007906073E054EFBB
:100F9B00F0C20D906069E004F07006906068E004A8
:100FAB00F0C3906069E09488906068E09413400906
:090FBB00E4F0A3F090609104F051
:100FC400906063E004F0E0C394C84007E4F09060EC
:030FD4006B04F0BB
:100FD700906067E004F07006906066E004F0C390EC
:100FE7006067E09410906066E094274009E4F0A3FE
:060FF700F090607404F0AC
:100FFD00D007D006D005D004D003D002D001D00048
:0B100D00D0D0D082D083D0F0D0E032F1
:101BF40078E3E254F3F2E24404F29071937410F047
:101C040075D10278A1740DF21874F2F278A3E4F29B
:0C1C140018F2789D74A0F21874E2F2221D
:101C6B009071937410F075D10278A17401F218740D
:101C7B00CBF278A3E4F218F2789D74A0F21874E218
:021C8B00F22243
:101C46009071937410F075D10278A1740DF2187426
:101C5600F2F278A37402F2187482F2789D74A0F2FC
:051C66001874FEF222DB
:0E1D4400789CE254FCF2907193E4F0C2A52268
:081D82008FD7E5D430E4FB2209
:101CE20078C2E254CFF2E24410F29071807404F0B0
:0A1CF20075D60175D59F75D210223A
:101B560078E3E254FCF2E24401F2907192740FF0E1
:101B660075D1049071057401F09071047476F0904B
:101B76007107E4F090710674BBF090710174A0F0E7
:071B860090710074FEF022D3
:0D1D5200907192740FF090710074FEF022F9
:0F000F00907100E054FCF0907192E4F0C2A422D2
:101B1800906097EFF07E007C017D7612085AE47B96
:101B2800FFFAF9F81206F378081207B1907107EF77
:101B3800F0906097E0FF7E007C017D7612085AE401
:0E1B48007BFFFAF9F81206F3907106EFF02217
:0B1D77007379732072657365740A00B5
:1019F60041607200416073004160710041606C009B
:101A06004160740042606F000041606B0041606A93
:011A160000CF
:101A8D0078D2E254F3F2E24404F2907187E4F0C2AA
:101A9D0091E254CFF2E24410F2A3E4F0C292E25488
:101AAD003FF2E24440F2A3E4F0C29308E254FCF2A8
:101ABD00E24401F2A3E4F0C294E254F3F2E24404EE
:071ACD00F2A3E4F0C2952230
:0614430090603A1207D789
:10144900E4FFFE7D807C3F90603AE0F8A3E0F9A3D9
:10145900E0FAA3E0FB120028C004C005C006C007DB
:10146900E4FFFE7D807CBF90603AE0F8A3E0F9A339
:10147900E0FAA3E0FB120028D003D002D001D0008B
:1014890012022290603F1207D79060431207E300CF
:1014990000000090603FE0FCA3E0FDA3E0FEA3E0B4
:1014A900FF9060471207D7E490603EF0906043E0F8
:1014B900F8A3E0F9A3E0FAA3E0FBC000C001C00271
:1014C900C00390603EE075F002A42401FDE435F00C
:1014D900FC12033DA804A905AA06AB07906047E0E2
:1014E900FCA3E0FDA3E0FEA3E0FF120222D003D09B
:1014F90002D001D0001200289060431207D79060F3
:1015090047E0F8A3E0F9A3E0FAA3E0FBC000C001BB
:10151900C002C00390603FE0FCA3E0FDA3E0FEA38E
:10152900E0FFA804A905AA06FB120119D003D002FD
:10153900D001D0001201199060471207D790603E80
:10154900E004F0E0643260030214B5E4FFFEFD7CC0
:1015590040906043E0F8A3E0F9A3E0FAA3E0FB02BE
:02156900011966
:06181E009060791207D76B
:1018240090607E1207E33F8000009060821207E31D
:101834003F80000090607D7401F0906082E0F8A326
:10184400E0F9A3E0FAA3E0FBC000C001C002C003BA
:1018540090607DE0FCE4120342A804A905AA06AB4B
:1018640007906079E0FCA3E0FDA3E0FEA3E0FF1293
:101874000222D003D002D001D0001201199060825C
:101884001207D790607EE0FCA3E0FDA3E0FEA3E096
:10189400FFA3E0F8A3E0F9A3E0FAA3E0FB12002819
:1018A40090607E1207D790607DE004F0E0641470CD
:0F18B4008990607EE0FCA3E0FDA3E0FEA3E0FFCF
:0118C3002202
:101950009060861207D7E4FFFEFDFC906086E0F8F9
:10196000A3E0F9A3E0FAA3E0FB1202BF6002500675
:10197000E4FFFEFDFC22E4FFFEFDFC90608AE0F83F
:10198000A3E0F9A3E0FAA3E0FB1202BF7002801A01
:10199000E4FFFE7D807C3F906086E0F8A3E0F9A341
:1019A000E0FAA3E0FB1202BF7007FFFE7D807C3FE0
:1019B00022906086E0FCA3E0FDA3E0FEA3E0FF121E
:1019C000144390608AE0F8A3E0F9A3E0FAA3E0FBF7
:0719D00012011912181E227A
:06156B0090604B1207D74F
:1015710090604F1207E3442A00009060531207E382
:101581003FA8F5C3E47F64FEFDFC90604BE0F8A347
:10159100E0F9A3E0FAA3E0FBC31207A050037F0028
:1015A1002290604BE0FCA3E0FDA3E0FEA3E0FFE49A
:1015B1007BE87A03F9F81206F390604B1207D79093
:1015C100604BE0FCA3E0FDA3E0FEA3E0FFE4120317
:1015D10038C004C005C006C007906053E0FCA3E01A
:1015E100FDA3E0FEA3E0FF90608A1207D7D007D0E9
:1015F10006D005D004121950A804A905AA06AB0704
:1016010090604FE0FCA3E0FDA3E0FEA3E0FF120227
:10161100229060571207D7E4FFFEFDFC906057E06F
:10162100F8A3E0F9A3E0FAA3E0FB1202BF500A908D
:1016310060571207E300000000E4FFFE7DC87C4212
:10164100906057E0F8A3E0F9A3E0FAA3E0FB1202EF
:10165100BF600C400A9060571207E342C80000E4E3
:10166100FFFEFD7C3F906057E0F8A3E0F9A3E0FAAC
:09167100A3E0FB1200281203762D
:01167A00224D
:1010180075D9DD12174F75D95590715EE054FEF001
:1010280075D9BB121CE2121CC8121BF4121D441203
:101038001B5612000F121A8D78E2E2543FF278E044
:10104800E24408F2121BC17BFF7A1D79771208F27D
:10105800121C6B7F02121AD41211A8906075EEF060
:10106800A3EFF07F03121AD41211A890606DEEF06E
:09107800A3EFF090606BE060DA78
:10108100E4906000F0A3F0A3F0A3F0A31207E30043
:10109100000000E4906008F0A3F090606BF09060B5
:1010A1006DE0FEA3E0FFE4FCFD7BC07A277909F83F
:1010B100120668E4FB7A10F9F81206F3E47B4CFAA5
:1010C100F9F81206F3906000EEF0A3EFF09060756E
:1010D100E0FEA3E0FF7C0F7DA012085AE4FB7A102A
:1010E100F9F81206F3906002EEF0A3EFF0C39060FE
:1010F1006EE094FF90606DE0940F400B90606AE0A9
:10110100D394004071806C906000E0FCA3E0FDA3EB
:10111100E0FEA3E0FF1206017C037DE8120613E462
:10112100FCFDA31207D7E47FA87E61FDFC9060045B
:10113100E0F8A3E0F9A3E0FAA3E0FBC31207A05093
:101141000E90606AE0C39464502CE004F08027E4C0
:101151007FA87E61FDFC906004E0F8A3E0F9A3E0C4
:10116100FAA3E0FBD31207A0400C90606AE0D3948D
:10117100004003E014F090606AE0FF7E007C017D96
:10118100CB12085AE47B64FAF9F81206F39060086E
:10119100EEF0A3EFF0906008E0FCA3E0FDEC78A393
:0411A100F2ED18F261
:0311A50002105BDA
:0D1D5F00E5F430E4FB8FF7E5F430E4FB22FF
:101CFC0078E3E254F3F2E24404F29071937404F04A
:0A1D0C0075D60175D59F75D210221F
:081A170041609600416095005A
:101D2E00906095E0700FFF121B8D1211A8906077D6
:051D3E00EEF0A3EFF040
:011D4300227D
:0A1A1F0041609800C109C10AC10B23
:101C8D00E4906068F0A3F0906073E054FEF0E054CF
:0F1C9D00FDF0E054FBF0E054F7F0E054EFF022DC
:101CAC00300B18EFB4020790608EEDF08005906059
:0C1CBC0090EDF090608FEFF0121C8D2274
:10167B00200A0302174EC20A906098E01208341633
:10168B00CC0216EE1817352216E83017006216E258
:10169B006816D09016DC9816B2A216D4A816D8E00D
:1016AB0016F5E20000174E300B0302174E121C8D7D
:1016BB0090608FE004F0E0D39403500302174E8048
:1016CB00657D01800E7D02800A7D0380067D04808E
:1016DB00027D057F0280107D017F03800A7D027FE2
:1016EB000380047D037F03021CACD20B90608F74CC
:1016FB0002F0021C8D90608EE024FC600514600AE1
:10170B00800E90606C7491F0800690606C747EF02B
:10171B0090606CE0906071F0E0FF121B18121C20BF
:10172B00121D5290608F7401F02290606CE0D39484
:10173B00004010121C20E490606CF0906071F090EF
:04174B00608FF02299
:101A29004160920541608E054160900141609100DD
:10130A0090608FE07003021C8D90608FE064016032
:10131A00030213F8906073E04401F0D3906076E022
:10132A0094CC906075E0940C400B906092E0940528
:10133A0040037405F0C3906076E094CC906075E049
:10134A00940C500C906092E0C3940440037404F02F
:10135A00C3906076E09433906075E0940C500C90E2
:10136A006092E0C3940340037403F0C3906076E094
:10137A009466906075E0940B500C906092E0C39470
:10138A000240037402F0C3906076E094999060750D
:10139A00E0940A50069060927401F0906092E0C363
:1013AA009405906073E040054410F0800354EFF018
:1013BA00906092E0C39404906073E040054408F0A2
:1013CA00800354F7F0906092E0C39403906073E056
:1013DA0040054404F0800354FBF0906092E0C3940B
:1013EA0002906073E04002802654FDF0802D9060E8
:1013FA008FE0B40326A3E024FE60101460162402D2
:10140A007019906073E04401F08010906073E044BA
:10141A0002F08007906073E04404F0906091E0600D
:10142A0017E4F0906071E0600890608F7401F080BA
:09143A0005E490608FF0C20B2262
:101C2000E4906099F0121D527FA17E00121D1612E1
:101C3000000F7FA17E00121D16906099E004F0E075
:051C4000C3940340E025
:011C4500227C
:101A3A00906074E06010E4F0906070E004F070066A
:0E1A4A0090606FE004F0906090E064017034F2
:101A580090609AE02401FFE433FE7C047DB0120616
:101A680001C3906070E09F90606FE09E40169060A8
:101A78009AE004F090606CE094F87480947F4004DD
:041A8800E024E7F07F
:011A8C002237
:100021000203E2E86480F8E933E83360110460F028
:10003100ED33EC337009E8FCE9FDEAFEEBFF220445
:1000410060DED3EB9FEA9EE99DE8C2E78CF0C2F740
:1000510095F0400CE8CCF8E9CDF9EACEFAEBCFFB0C
:100061001203AD85D0F05804700320D5B3E80470B5
:10007100075002B2D50203EC92D5EC0460F7E4CC50
:10008100C0E0C398F8603B94186008400DD0E0FBD5
:100091000203C4E4FBFAC9FC8028E830E406E4C9A1
:1000A100FBE4CAFCE830E305E4C9CACBFCE8540729
:1000B1006010F8C3E913F9EA13FAEB13FBEC13FC34
:1000C100D8F130F52FC3E49CFCEF9BFFEE9AFEEDD7
:1000D10099FDD0E0FBEF4E4D4C701222DB03020381
:1000E100E9EC2CFCEF33FFEE33FEED33FDED30E7B1
:1000F100EB0203C4EF2BFFEE3AFEED39FDD0E0FB3E
:1001010050130BBB00030203ECED13FDEE13FEEFE6
:0801110013FFEC13FC0203C410
:10011900EC4D6011E8497017ED33EC3304600DE4E0
:10012900FCFFFEFD22E933E8330470F80203E21212
:1001390003AD58046009E4CC248150062850090213
:1001490003EC2840030203E9C0E0EB4A7044B9809C
:1001590006D0E0FB0203D8EF4E701CBD8008EBFF10
:10016900EAFEE9FD80EBE98DF0A4FEE5F00202026A
:10017900E9CDF9EAFEEBFFEF89F0A4FCE5F0CE89C1
:10018900F0A42EFFE435F0CD89F0A42DFEE435F07E
:100199008067EF4E7005BD80D780C3EF8BF0A4ACAC
:1001A900F0EE8BF0A42CFCE435F0F8EF8AF0A42CE7
:1001B900E5F038FCE433CB8DF0A42CFCE5F03BF8FA
:1001C900EE8AF0A42CFCE5F038F8E433CF89F0A4EA
:1001D9002CFCE5F038CF3400CE89F0A42FFFE5F0F0
:1001E9003EFEE433C98DF0A42EFEE5F039CD8AF048
:1001F900A42FFFE5F03EFEE43DFD33D0E0FB5007C0
:100209000BBB000F0203ECEC2CFCEF33FFEE33FECB
:06021900ED33FD0203C4F9
:10021F000203ECEC5D046005E8590470030203E28D
:10022F001203AD580460F6EC4860F2EC7004FDFE6A
:10023F00FF22C860DB2481C85009C39860025006B2
:10024F000203E99850CAF582E9294B4A7005AB823F
:10025F000203D875F0007C1A7880C3EF9BEE9AEDFD
:10026F0099400DC3EF9BFFEE9AFEED99FDE842F02A
:10027F00DC23ACF0D0E0FFD0E0FED0E0FDAB82207D
:10028F00E7101BEB60BAEC2CFCEF33FFEE33FEED07
:10029F0033FD0203C4E803F830E705C0F075F00042
:1002AF00EF2FFFEE33FEED33FD40B830E7C280AAEB
:1002BF0074F8CC6480CCC86480C8F58204604FC3E6
:1002CF00EB9FF5F0EA9E42F0E99D42F0E89C45F085
:1002DF00603C501DE5825FFFE582D313CB5BCBF40F
:1002EF002B5582FB50280ABA002409B90020088038
:1002FF001DE5825BFBE582D313CF5FCFF4C3132FD2
:10030F005582FF50090EBE00050DBD00010CC3EB59
:10031F009FF5F0EA9E42F0E99D42F0E89C45F060BF
:09032F0007CC4820E701B3EC22E1
:1003380075F020800E75F010800575F0087D007E40
:10034800007F003392D530D503120792EC3340106A
:10035800EF33FFEE33FEED33FDEC33FCD5F0ED2249
:0E036800E5F0247EA2D513CC92E7CDCEFF2285
:10037600EDD2E7CD33EC3392D524814006E4FFFE7F
:10038600FDFC22FCE4CFCECDCC24E0501174FF80DE
:10039600EDC3CC13CCCD13CDCE13CECF13CF04707B
:0703A600F030D5DE020792E2
:10088700E508240DF582E43460F583E0050822903D
:10089700600A30070390600DE475F0011208140236
:1008A70005A92000E97F2ED2008018EF540F24906D
:1008B700D43440D4FF30040BEF24BFB41A005003E4
:1008C7002461FFE50960021509050CE50C700205B6
:1008D7000B30070E90600AE475F001120814EF025E
:1008E70005EF021D827403D2078003E4C207F508EF
:1008F70090600A12082BE4F509F50BF50CE5096081
:10090700077F201208CA80F5750AFFC201C200C21C
:1009170002C203C205C206C208120896FF700D3054
:1009270007057F001208DBAF0CAE0B22B4255FC2B0
:10093700D5C204120896FF24D0B40A00501A75F0E5
:100947000A780930D50508B6FF0106C6A426F620A1
:10095700D5047002D20380D924CFB41A00EF500413
:10096700C2E5D204020BCDD20180C6D20080C0D22C
:100977000280BCD2D580BAD20580B47F201208CAC3
:100987002002077401B5090040F1120887FF120819
:10099700CA020904D208D2068095120887FB1208FA
:1009A70087FA120887F94A4B700679CB7A0C7BFFD6
:1009B70020022EE509602A7E008E827583001205CB
:1009C700C260060EEE650A70F0C2D5EBC0E0EAC061
:1009D700E0E9C0E0EE120C2ED0E0F9D0E0FAD0E06A
:1009E700FB1205A9FF60AAEBC0E0EAC0E0E9C0E09E
:1009F7001208CAD0E02401F9D0E03400FAD0E0FBB5
:100A0700E50A0460DCD50AD98087D20280A2120CDD
:100A17001060F7E50A7001041203F7A90A600DE5F3
:100A27000A600914F50A120CB8EF60F3EA30E7021E
:100A3700F404C3995079EAF4250A0430E701E40481
:100A4700F50A800D120C1060C1EA050A250A120387
:100A5700F7EA906039F030E701E4250A04D50A0483
:100A670020050114120C2EE4C0E0120CB890603976
:100A7700E0601320E70714F01208B2802204F0D0D8
:100A8700E014C0E07F001208B2E50A60071208A967
:100A9700150A800B3005031208A9D0E0020904D01B
:100AA700E00480C4120C10609EE50A041203F7905C
:100AB7006039EAF0E50A2005026001042404120CFB
:010AC7002E00
:100AC80074FF04C0E0120CB81208B2E50A2005024F
:100AD80060031208A9D0E0B50AE87F451208BC9067
:100AE8006039E07F2B30E7047F2DF404C0E0120862
:100AF800CAD0E075F00A84C0F01208B3D0E012083A
:100B0800B3020904791080027908C206C208800875
:100B1800D2D5790A8004790AC2D5E50A047002F5AB
:100B28000AE4FAFDFEFF120887FC7B082001131275
:100B38000887FD7B1030000A120887FE120887FF1D
:100B48007B20EC3382D592D55013C3E43000069F46
:100B5800FFE49EFEE42001039DFDE49CFCE4CBF849
:100B6800C201EC700CCFCECDCCE824F8F870F3803D
:100B780017C3EF33FFEE33FEED33FDEC33FCEB33FD
:100B8800FB994002FB0FD8E9EB300105F8D0E0C42F
:100B980048B201C0E00AEC4D4E4F78207B0070C28D
:100BA800EAB50A0040BCC0E0120C30D0F0D0E0201A
:100BB8000104C4C0E0C4B201C0F01208B3D0F0D53B
:100BC800F0EB02090412083409A1530B0C580972FE
:100BD8004C096E420B104F0B18440B1849098743F8
:100BE8000B1E550A4B460AAB450A15470CEB500934
:100BF800762D097A2E099D2B097E23099B200CD47A
:100C08002A09364800000995E50AB4FF03750A0663
:100C1800120887FC120887FD120887FE120887FF52
:100C2800906032020434790AA2D5200314300509F1
:100C3800B910020404B9080104A2D5200602500123
:100C4800042002689202B509005034C0E07F2030C9
:100C580003197F30A20272067205500F120C87C268
:100C680002C206C205C2087F30800F300503E9C002
:100C7800E01208CA300503D0E0F9D0E0B509CC305D
:100C880005177F30B9100C1208CA7F583004077F47
:100C9800788003B908031208CA3002057F2D0208BC
:100CA800CA7F202008F87F2B2006F322920280CFEB
:100CB8007F00B40700500B2432F582E43460F583DA
:100CC800E0FF22286E756C6C2900D201120887306B
:100CD80001F8C201780930D50108F60209362D500D
:100CE8004349581208872403B405004001E4900CD6
:100CF800E6931208BB743A1208BBD20375090402C2
:020D08000B0CD2
:1003AD00E9D2E7C933E833F892D5EDD2E7CD33EC96
:0703BD0033FC5002B2D5220F
:1003C400EC30E7100FBF000C0EBE00080DBD00049A
:1003D4000BEB6014A2D5EB13FCED92E7FD2274FF46
:1003E400FCFDFEFF22E480F8A2D574FF13FC7D809F
:0303F400E480EFB3
:1003F700F920E73624F950037907E4F42402FBE5F2
:1004070082158270021583DBF6E024FB501BE9603E
:1004170014E4F0E582158270021583E004F0B40A53
:0D04270008E4F0D9EE7401F00A22C2D522DB
:10043400ED33EC3392D5FA602AB4FF33EDC2E77B97
:10044400FF60067A047959E4227A04796220D5049B
:100454007A04795D224E614E002B494E46002D49A7
:100464004E4600E47A08F0A3DAFC7B00740722C04D
:1004740083C082ECC0E0EDC0E0EEC0E0EFC0E0EA93
:1004840075F010A4CAABF075F04DA42BFBE435F065
:10049400FCEA2410FAEB34C5FBEC34D9FCEDC2E7DA
:1004A400FF75F056A4F42411C5F0F434C58FF0A4FC
:1004B4002AE5F03BE43CF020E714120569D0E0FFA4
:1004C400D0E0FED0E0FDD0E0FC1202228014F4045F
:1004D400120569D0E0FFD0E0FED0E0FDD0E0FC12D0
:1004E4000119D082D083E0FAEDD2E7CD33EC332486
:1004F40082FBE4C3CF33CFCE33CECD33CD33DBF366
:100504007B0775F00A846004F0A31B0AE5F0F0A3EE
:100514008FF0740AA4FFACF08EF0740AA42CFEAC25
:10052400F050010C8DF0740AA42CFDE435F0F0A316
:05053400DBDE7407226C
:100539003F8000004120000042C80000447A0000CA
:10054900461C400047C35000497424004B1896804C
:100559004CBEBC205A0E1BCA6753C21C749DC5AE43
:10056900FB60065407601C2323120597EB5438607F
:1005790009120583120592120119ECF8EDF9EEFA48
:10058900EFCB22EB12059280F1543803241C90051D
:1005990039FE93FC0EEE93FD0EEE930ECE93FF22E1
:1018D000021018E493A3F8E493A34003F68001F206
:1018E00008DFF48029E493A3F85407240CC8C33319
:1018F000C4540F4420C8834004F456800146F6DFE8
:10190000E4800B01020408102040809019D7E47E87
:10191000019360BCA3FF543F30E509541FFEE493DC
:10192000A360010ECF54C025E060A840B8E493A3A3
:10193000FAE493A3F8E493A3C8C582C8CAC583CACE
:10194000F0A3C8C582C8CAC583CADFE9DEE780BE86
:011A390000AC
:1005A900BB010689828A83E0225002E722BBFE0250
:0905B900E32289828A83E4932283
:1005C200BB010CE58229F582E5833AF583E02250EE
:1005D20006E92582F8E622BBFE06E92582F8E22238
:0D05E200E58229F582E5833AF583E4932252
:1005EF00BB010689828A83F0225002F722BBFE01EB
:0205FF00F322E5
:10060100EF8DF0A4A8F0CF8CF0A428CE8DF0A42E0D
:02061100FE22C7
:10061300BC000BBE0029EF8DF084FFADF022E4CCCB
:10062300F875F008EF2FFFEE33FEEC33FCEE9DEC94
:10063300984005FCEE9DFE0FD5F0E9E4CEFD22EDDA
:10064300F8F5F0EE8420D21CFEADF075F008EF2F24
:10065300FFED33FD4007985006D5F0F222C398FD15
:050663000FD5F0EA22B2
:10066800E88FF0A4CC8BF0A42CFCE98EF0A42CFC31
:100678008AF0EDA42CFCEA8EF0A4CDA8F08BF0A4AF
:100688002DCC3825F0FDE98FF0A42CCD35F0FCEB0E
:100698008EF0A4FEA9F0EB8FF0A4CFC5F02ECD39D3
:0F06A800FEE43CFCEAA42DCE35F0FDE43CFC2240
:1006B70075F008758200EF2FFFEE33FECD33CDCCFA
:1006C70033CCC58233C5829BED9AEC99E58298407D
:1006D7000CF582EE9BFEED9AFDEC99FC0FD5F0D65A
:1006E700E4CEFBE4CDFAE4CCF9A88222B800C1B984
:1006F7000059BA002DEC8BF084CFCECDFCE5F0CBC2
:10070700F97818EF2FFFEE33FEED33FDEC33FCEBFA
:1007170033FB10D703994004EB99FB0FD8E5E4F9B5
:10072700FA227818EF2FFFEE33FEED33FDEC33FCA2
:10073700C933C910D7059BE99A4007EC9BFCE99A96
:10074700F90FD8E0E4C9FAE4CCFB2275F010EF2FDB
:10075700FFEE33FEED33FDCC33CCC833C810D707DB
:100767009BEC9AE899400AED9BFDEC9AFCE899F816
:0E0777000FD5F0DAE4CDFBE4CCFAE4C8F922A9
:0D078500CFF4CFCEF4CECDF4CDCCF4CC2209
:0E079200C3E49FFFE49EFEE49DFDE49CFC2278
:1007A000EB9FF5F0EA9E42F0E99D42F0E89C45F0AF
:0107B0002226
:1007B100E8600FECC313FCED13FDEE13FEEF13FF26
:0307C100D8F1224A
:1007C400E8600FEFC333FFEE33FEED33FDEC33FC93
:0307D400D8F12237
:0C07D700ECF0A3EDF0A3EEF0A3EFF02295
:1007E300A8828583F0D083D0821207FA1207FA1207
:1007F30007FA1207FAE473E493A3C583C5F0C5832C
:10080300C8C582C8F0A3C583C5F0C583C8C582C85F
:0108130022C2
:10081400F8E0FBA3A3E0F925F0F0E582158270026D
:070824001583E0FA38F02211
:09082B00EBF0A3EAF0A3E9F022CE
:10083400D083D082F8E4937012740193700DA3A353
:1008440093F8740193F5828883E473740293686067
:06085400EFA3A3A380DF67
:10085A00EC8EF0A4CCC5F0CCCDF8EFA4CEC5F02D2B
:10086A00FDE43CFCE8A42EC8C5F03DFDE43CFCEFE9
:0D087A00A4FFE5F028FEE43DFDE43CFC2277
:00000001FF
