:0300000002195F83
:0C195F00787FE4F6D8FD7581220219A6FD
:0C000300000000000000000000000000F1
:0B1DE400EF1FAC0670011E4C70F622D1
:101D1300AB07AA06EB1BAE0270011A4E60097FAA3D
:081D23007E05121DE480ED2293
:1017CE00907120E04480F07F057E00121DE4E4FF5E
:1017DE00FE121D1375A75575AC589071327450F0EA
:1017EE009071307403F0907136742FF07F18EF24DF
:1017FE0066FDE434718D82F583E4F00FEFB433EEC1
:10180E00904011E4935407FF90711CE054F84FF090
:10181E00904017E493547FFF90711DE054804FF079
:10182E00904010E493FF5401C43333335480FE9040
:10183E007123E0547F4EF0EFC313543F4440FFA397
:10184E00E054804FF0904012E493FF540FFE9071DD
:10185E0046E054F04EF0EFC4540FFF90714FE05439
:10186E00F04FF0904013E493543FFF907140E054DA
:10187E00C04FF0904014E493907126F0904015E420
:0E188E0093907128F0904016E49390712AF028
:01189C002229
:05189D0042608A00001A
:101B4B0078D3E24430F278E2E24430F278F2E244C5
:101B5B000CF2786AE24478F27591FF907123E054AD
:101B6B00D8F0E04459F09071227407F0439E704313
:031B7B009940226C
:101C2F00907123E054D8F0EF7006E04459F0800B28
:101C3F00EFB40107907123E0445BF07869E2444808
:081C4F00F27F017E00021D136B
:101BDD00539940EFB4010543990E8010EFB40205FF
:101BED004399128007EFB403034399197869E244CE
:091BFD0048F27F017E00021D1375
:10154A00E490605CF0A3F0A3F090605F12103F009B
:10155A00000000E4906063F0A3F074FF906065F00F
:10156A00A3F0E490605CF07869E24401F2786BE2FF
:10157A0030E1FAAF93EF75F010A4FFE594C4540F6D
:10158A00FDEF4DFF90605DE5F0F0A3EFF07402F21D
:10159A0090605CE0C39402406D906063E0FEA3E05B
:1015AA00FFD390605EE09F90605DE09E400CE0FF9C
:1015BA00A3E0906063CFF0A3EFF0906065E0FEA334
:1015CA00E0FFC390605EE09F90605DE09E500CE09B
:1015DA00FFA3E0906065CFF0A3EFF090605FE0F8C2
:1015EA00A3E0F9A3E0FAA3E0FB90605DE0FEA3E0CC
:1015FA00FFE4FCFDEB2FFFEA3EFEED39FDEC38FC83
:10160A0090605F12103390605CE004F0E064146054
:10161A000302157190605FE0FCA3E0FDA3E0FEA366
:10162A00E0FFC006C007906063E0FEA3E0FBAA06E5
:10163A00D007D006C3EF9BFFEE9AFEED9400FDECB7
:10164A009400FC90605F12103390605FE0FCA3E0AE
:10165A00FDA3E0FEA3E0FFC006C007906065E0FEC0
:10166A00A3E0FBAA06D007D006C3EF9BFFEE9AFEC3
:10167A00ED9400FDEC9400FC90605F1210339060D2
:10168A005FE0FCA3E0FDA3E0FEA3E0FF78041210F4
:10169A000D90605DEEF0A3EFF090605DE0FEA3E0D8
:0116AA00FF40
:0116AB00221C
:101D4300E4FF121C2F7F02121BDD12154A9060352F
:061D5300EEF0A3EFF02208
:101D6F00121C2F7F01121BDD12154A90604EEEF0F0
:041D7F00A3EFF022BC
:101D59007F01121C2F7F03121BDD12154A906010A0
:061D6900EEF0A3EFF022F2
:1018A200C10D4160870041608000C10E416081002E
:1018B2004260820000416084004260850000426014
:0318C2008800009B
:101CC50043A820D2AF75D1017895E4F2187424F2B7
:0A1CD500789174A0F21874FDF22259
:03001E00020021BC
:10002100C0E0C0F0C083C082C0D075D000C000C0A5
:1000310001C002C003C004C005C006C0077891E238
:0A00410020E703020503E24480F209
:10004B00D3906079E09414906078E09405500CA301
:10005B00E004F07006906078E004F030A356D20D07
:10006B00D3906079E094B0906078E09404500302F0
:10007B00019BE4FFFEFDFC90607AE0F8A3E0F9A39E
:10008B00E0FAA3E0FB120FFC602520102290607AAF
:10009B00E0FCA3E0FDA3E0FEA3E0FF120FEF9060F6
:1000AB008FEFF090607A12103F00000000D210C268
:1000BB000F02019B200D03020199D3906079E0940C
:1000CB0008906078E094005005C20F020192D39023
:1000DB006079E09412906078E09400501590607A0B
:1000EB00E0FCA3E0FDA3E0FEA3E0FF7801121020EB
:1000FB008039D3906079E0941A906078E094005046
:10010B003290607AE0FCA3E0FDA3E0FEA3E0FF7871
:10011B000112102090607A12103390607AE0FCA3E9
:10012B00E0FDA3E0FEA3E04401FFEC90607A121027
:10013B00338054D3906079E09496906078E094008B
:10014B004045D3A3E094A4906078E094015027201D
:10015B00103590607AE0FCA3E0FDA3E0FEA3E0FF86
:10016B00120FEF90608FEFF090607A12103F00004B
:10017B000000D2108011D3906079E094B090607839
:10018B00E094045002D20F906078E4F0A3F0C20D1B
:10019B0090607FE004F0700690607EE004F0906069
:1001AB007EE0FEA3E0FFD39414EE9400502F9060FA
:1001BB002EE030E002D29190602EE030E102D2923C
:1001CB0090602EE030E202D29390602EE030E3029A
:1001DB00D29490602EE030E40ED295800AC291C288
:1001EB0092C293C294C295C3EF9464EE94004007FD
:0701FB0090607EE4F0A3F028
:10020200906087E004F0E0C3940A5003020495E48E
:01021200F0FB
:10021300906080E004F0E094C8500302035FE4F0D0
:10022300906049E064046008E0640860030202C06F
:10023300200E4590600EE024FE601614601C1460CE
:10024300221460282404702B90602EE04401F08077
:100253002290602EE04402F0801990602EE0440466
:10026300F0801090602EE04408F0800790602EE04C
:100273004410F0D20E02035F90600EE024FE60167D
:1002830014601C1460221460282404702B90602EC8
:10029300E054FEF0802290602EE054FDF08019902F
:1002A300602EE054FBF0801090602EE054F7F08055
:1002B3000790602EE054EFF0C20E02035F90604996
:1002C300E06403702B90602EE0200E124401F0E0F6
:1002D3004402F0E04404F0E04408F0E0807254FE8D
:1002E300F0E054FDF0E054FBF0E054F7F0E08067F9
:1002F300906049E064027064906017E0D394025008
:100303000F90602EE0200E044402804654FD804985
:10031300906017E0D39403500F90602EE0200E04FA
:100323004404802E54FB8031906017E0D394045032
:100333000F90602EE0200E044408801654F78019B5
:10034300906017E0D39405501390602EE0200E07C1
:0C0353004410F0D20E800554EFF0C20EF2
:10035F00300C2690604CE004F0700690604BE00487
:10036F00F0C390604CE0948890604BE09413400988
:09037F00E4F0A3F090602A04F000
:10038800906081E004F0E0C394C84007E4F0906016
:030398000104F06D
:10039B0090600FE0B40136906083E004F07006903B
:1003AB006082E004F0C3906083E094F0906082E0A0
:1003BB0094555005121DA4801BD3906083E0942CA0
:1003CB00906082E094565005121D968007906082D3
:0403DB00E4F0A3F0B7
:1003DF0090604DE06011906012E0906084F0A3E4B3
:1003EF00F0A3F090604DF0906084E06071906086B3
:1003FF00E004F07006906085E004F0C3906086E042
:10040F0094A1906085E094005010906049E0604B9B
:10041F00E064026046200A43803CC3906086E0940B
:10042F0042906085E094015012906049E0600AE0CC
:10043F0064026005200A028022801B906085E4F030
:10044F00A3F0906084E014F0906049E0600DE064E8
:0E045F00026008200A05121DB1800312000F72
:10046D00300B25906031E004F07006906030E004B0
:10047D00F0C3906031E09488906030E094134008B0
:08048D00E4F0A3F0C20BD20958
:10049500906003E07061906049E0605B906089E086
:1004A50004F07006906088E004F0C3906089E094E1
:1004B50010906088E094274045E4F0A3F074FFFFB6
:1004C500FEFDFC906013E0F8A3E0F9A3E0FAA3E0D9
:1004D500FB120FFC5028906013E0FCA3E0FDA3E0A5
:1004E500FEA3E02401FFE43EFEE43DFDE43CFC9078
:0E04F50060131210338007906088E4F0A3F0CB
:10050300D007D006D005D004D003D002D001D0004C
:0B051300D0D0D082D083D0F0D0E032F6
:101BB10078E3E254F3F2E24404F29071937410F08A
:101BC10075D10278A17409F218745FF278A3E4F276
:0C1BD10018F2789D74A0F21874E2F22261
:101CA3009071937410F075D10278A17401F21874D5
:101CB300CBF278A3E4F218F2789D74A0F21874E2E0
:021CC300F2220B
:101C7E009071937410F075D10278A17409F21874F2
:101C8E005FF278A37401F21874AFF2789D74A0F22B
:051C9E001874E2F222BF
:081DF800E478A3F2EF18F222D7
:0D1DA4009071937410F0789CE24402F222DA
:0E1D9600789CE254FCF2907193E4F0C2A52216
:081E00008FD7E5D430E4FB228A
:101CDF0078C2E254CFF2E24410F29071807404F0B3
:0A1CEF0075D60175D59F75D210223D
:101B140078E3E254FCF2E24401F2907192740FF023
:101B240075D1049071057401F09071047476F0908D
:101B34007107E4F090710674BBF090710174A0F029
:071B440090710074FEF02215
:0D1DB100907192740FF090710074FEF0229A
:0F000F00907100E054FCF0907192E4F0C2A422D2
:0D1DBE00AC06EC907107F0EF907106F0227A
:1019EB007379732072657365740A006C6564206D7E
:1019FB006F6465206F66660A006C6564206D6F64AA
:101A0B00652062617420696E64696361746F720A28
:101A1B00006C6564206D6F64652063686172676933
:101A2B006E670A006C6564206D6F64652073657466
:061A3B0074696E670A00E9
:1018C50041602D0041602E004160010041600F0024
:1018D50041600300C10C41602A0042604B0000C119
:1018E5000BC1094260300000446013000000004154
:1018F50060020142602B000041603200416033000C
:1019050041604D0041601200C10A52603701380143
:101915001300EE00C900A3007E00590034001152E7
:10192500601800110037005C008100A600CC00F5AE
:10193500011601384A60040138011500F100D5008F
:05194500BA4160000042
:101A940078D2E254F3F2E24404F2907187E4F0C2A3
:101AA40091E254CFF2E24410F2A3E4F0C292E25481
:101AB4003FF2E24440F2A3E4F0C29308E254FCF2A1
:101AC400E24401F2A3E4F0C294E254F3F2E24404E7
:071AD400F2A3E4F0C2952229
:101D83009060027401F090600E7405F090604A74E4
:031D930002F02239
:1016AC0075D9DD1217CE75D95590715EE054FEF0E8
:1016BC0075D9BB121CDF121A41121CC5121BB112B8
:1016CC001D96121B1412000F121A9478E2E2543F6A
:1016DC00F278E0E24408F2121B4B7BFF7A1979EBAB
:1016EC00120589121D837F01121DEF121ADB1208DD
:1016FC0083120BDD906003E06015906049E064029A
:10170C006008E060057F02121DEF12000F800F9041
:10171C006049E0B402087F01121DEF121DB1121DC9
:07172C004312113B1213B040
:10173300906000E004F0E0C394C84034E4F09060AB
:1017430049E014601214601714601C240370217B99
:10175300FF7A1979F680167BFF7A1A7904800E7B5B
:10176300FF7A1A791C80067BFF7A1A792F12058972
:10177300906003E0700F121E14121E1A121E201224
:101783001E0B0216FA906003E0B4020F121E0E1233
:101793001E1A121E20121E110216FA906003E0B4E4
:1017A300030F121E0E121E14121E20121E170216F3
:1017B300FA906003E0640460030216FA121E0E122C
:0B17C3001E14121E1A121E1D0216FA40
:0D1DCB00E5F430E4FB8FF7E5F430E4FB2293
:101CF90078E3E254F3F2E24404F29071937404F04D
:0A1D090075D60175D59F75D2102222
:08194A0041608D0041608C003A
:09088300906001E07003020BDC3F
:10088C00E4906050F0A3F0A3F0A3F0A312103F008B
:10089C00000000E4906058F0A3F0A3F0A3F0906087
:1008AC0001F0906003E07030FF121C2F7F01121BCF
:1008BC00DD12154A90604EEEF0A3EFF0C390604F3E
:1008CC00E0949090604EE0940340069060037401B5
:1008DC00F0906003E07069227F01121C2F7F0112DF
:1008EC001BDD12154A90604EEEF0A3EFF0C3906042
:1008FC004FE0949390604EE0940D4009E490605862
:10090C00F0A3020BCCD390604FE094F090604EE0DB
:10091C0094015021E4906058F0A3F0906058E0FCF2
:10092C00A3E0FDEC78A3F2ED18F2121D96E49060B2
:10093C0003F0020A57906003E064047003020BDCBE
:10094C00E4FF121C2F7F02121BDD12154A9060353A
:10095C00EEF0A3EFF0906003E064017043D390607D
:10096C0036E094CC906035E0940A502E90600FE005
:10097C0064017003020BDC9060587401F0A37437AF
:10098C00F0906058E0FCA3E0FDEC78A3F2ED18F2D7
:10099C00121C7E90600F7401F0229060037402F0C0
:1009AC00C3906036E09447906035E0940E403F90E1
:1009BC006003E06403603790608D7405F0E0FF7EA7
:1009CC00007C017DCB121096E47B64FAF9F8120FCF
:1009DC005D906058EEF0A3EFF0906058E0FCA3E05F
:1009EC00FDEC78A3F2ED18F29060037403F09060C4
:0609FC0003E06403705AE1
:100A0200C3906036E09433906035E0940E5005E474
:100A120090608CF0C3906036E09499906035E094D9
:100A22000E5003020BDC90608CE004F0E0940A505C
:100A320003020BDCE4F0906058F0A3F0906058E001
:100A4200FCA3E0FDEC78A3F2ED18F2121D96906083
:0A0A5200037404F0E490600FF0223A
:100A5C00906003E064026003020BDC90600FE064C2
:100A6C00026021906058E4F0A37408F0906058E0A4
:100A7C00FCA3E0FDEC78A3F2ED18F2121CA390603D
:100A8C000F7402F0C3906036E09433906035E094BC
:100A9C000E90605A40097413F0A37488F0800774A8
:100AAC0067F0A37484F07F01121C2F7F03121BDDEF
:100ABC0012154A906010EEF0A3EFF0906010E0FE7B
:100ACC00A3E0FFE4FCFD7BC07A277909F8120ED273
:100ADC00E4FB7A10F9F8120F5DE47B4CFAF9F8128A
:100AEC000F5D906050EEF0A3EFF0906035E0FEA348
:100AFC00E0FF7C0F7DA0121096E4FB7A10F9F8123F
:100B0C000F5D906052EEF0A3EFF0C3906011E09493
:100B1C00FF906010E0940F400E90608DE0D3940035
:100B2C005003020BAE8078906052E0FEA3E0FF9081
:100B3C006050E0FCA3E0FD121096E47BE87A03F928
:100B4C00F8120F5D90605412103390605AE0FEA3BF
:100B5C00E0FFE4FCFD906054E0F8A3E0F9A3E0FAB8
:100B6C00A3E0FBC3120FFC500E90608DE0C39464A5
:100B7C005030E004F0802B90605AE0FEA3E0FFE4DC
:100B8C00FCFD906054E0F8A3E0F9A3E0FAA3E0FBCD
:100B9C00D3120FFC400C90608DE0D394084003E01E
:100BAC0014F090608DE0FF7E007C017DCB121096DE
:100BBC00E47B64FAF9F8120F5D906058EEF0A3EF45
:100BCC00F0906058E0FCA3E0FDEC78A3F2ED18F295
:010BDC0022F6
:0C19520041608F00C10FC11041608E0089
:101B7E00906051EDF0300C2AEFB40407E090600E47
:101B8E00F08008906051E090604AF0906049EFF06C
:101B9E00121D2BE490604BF0A3F0906051E0FF1209
:031BAE001DD8221D
:100BDD00906003E0600AC210C20FE490608EF022B4
:100BED00201003020E1BC21090608FE090608EF0FB
:100BFD00A3E01210700C69020DC4180DF6220DBE83
:100C0D00300DE9620DB8680C6D900D77980C2AA225
:100C1D000CCDA80CD4E00DCDE200000E1B300C0362
:100C2D00020EBF121D2BE4906030F0A3F0906049CE
:100C3D00E07002D20BE4906030F0A3F0906049E0D8
:100C4D00C394065002800F906049E004F0E0D39405
:100C5D00095003020E1B7407F0020E1B7D0180620A
:0D0C6D007D027F04121B7E300C03020E1B63
:100C7A00E4906050F0906050E0FFC394085026EF73
:100C8A0025E02437F582E43460F583E0FEA3E0FF33
:100C9A00D390602CE09F90602BE09E5008906050AB
:100CAA00E004F080D0906050E025E02437F582E43B
:100CBA003460F583E0FFA3E090602BCFF0A3EFF060
:100CCA00020D697D037F04020DC87D047F04121B97
:070CDA007E300C03020E1B2B
:100CE100E4906050F0906050E0FFC394085026EF0C
:100CF10025E02418F582E43460F583E0FEA3E0FFEB
:100D0100C390602CE09F90602BE09E400890605063
:100D1100E004F080D090600EE025E02402F582E44A
:100D21003460F583E0FEA3E0FF906050E025E0240D
:100D310018F582E43460F583E0FCA3E0FDD39FEC79
:100D41009E401D90600EE025E02402F582E43460AF
:100D5100F583E0FFA3E090602BCFF0A3EFF08008D4
:100D610090602BECF0A3EDF090602BE0FEA3E0FF90
:030D7100121DBE92
:100D7400020E1B7D057F04121B7E300C03020E1B2A
:100D840090600EE025E02402F582E43460F583E00F
:100D9400FFA3E090602BCFF0A3EFF090601312104C
:100DA4003F0000000090602BE0FEA3E0FF121DBE98
:100DB4007F03802C7D017F05800A7D027F058004EE
:100DC4007D037F05121B7E804E200C4B906049E012
:100DD4007002D20AD20C7F03121DEF90600EE0FF66
:100DE400121DD88032121C06121ADB7F01121DEF6D
:100DF4008025D390602CE0940090602BE094004018
:100E040016906003E07010906049F07F02121DD8C4
:100E1400E490602BF0A3F0200F03020EBFC20F90EA
:100E2400608EE064E0705290600EE025E02402F5EC
:100E340082E43460F583E0FEA3E024F7FFEE34FFA0
:100E4400FEC390602CE09F90602BE09E500EA3E0C8
:100E54002409F090602BE03400F0805490600EE0A0
:100E640025E02402F582E43460F583E0FFA3E090FA
:100E7400602BCFF0A3EFF0803790608EE0B4903B0E
:100E8400906047E0FEA3E0FF2409FDE43EFCD3901C
:100E9400602CE09D90602BE09C400DA3E024F7F0D3
:100EA40090602BE034FFF02290602BEEF0A3EFF083
:0B0EB40090602BE0FEA3E0FF121DBECB
:010EBF002210
:101C570090602EE054FEF0E054FDF0E054FBF0E01D
:101C670054F7F0E054EFF0E490602FF0906017F035
:071C770090604BF0A3F02286
:101C060090602EE054FEF0E054FDF0E054FBF0E06E
:101C160054F7F0E054EFF0E490602FF0906017F086
:091C260090604BF0A3F0C20B2208
:101D2B0090602EE054FEF0E054FDF0E054FBF0E048
:081D3B0054F7F0E054EFF02230
:091DEF00121D2B906049EFF02257
:10113B00906049E07003021D2B906049E0640160F0
:10114B000302122E90602EE04401F0D3906036E043
:10115B0094CC906035E0940C40089060347405F0AA
:10116B008048D3906036E09433906035E0940C4027
:10117B00089060347404F08031D3906036E094664C
:10118B00906035E0940B40089060347403F0801A43
:10119B00D3906036E09499906035E0940A90603477
:1011AB0040057402F080037401F090602FE0700A28
:1011BB00906034E090602FF0801590602FE0FF90EE
:1011CB006034E0D39F400890602FE0906034F09043
:1011DB006034E0C3940590602EE040054410F0802D
:1011EB000354EFF0906034E0C3940490602EE04021
:1011FB00054408F0800354F7F0906034E0C3940387
:10120B0090602EE040054404F0800354FBF09060A6
:10121B0034E0C3940290602EE04002803354FDF022
:10122B00021362906049E064056005E06409703068
:10123B0090604AE024FE601414601B2402600302D9
:10124B00136290602EE04401F002136290602EE076
:10125B004402F002136290602EE04404F002136229
:10126B00906049E06402600302136290602EE044D8
:10127B0001F0D3906036E094CC906035E0940C4054
:10128B00089060347405F08048D3906036E0943356
:10129B00906035E0940C40089060347404F0803119
:1012AB00D3906036E09466906035E0940B400890E4
:1012BB0060347403F0801AD3906036E09499906098
:1012CB0035E0940A90603440057402F08003740199
:1012DB00F0906003E064036004E0B40406906034B3
:1012EB007406F090602FE0700A906034E090602FED
:1012FB00F0801590602FE0FF906034E0C39F5008A2
:10130B0090602FE0906034F0906034E0906017F0C4
:10131B007F017E00121D13906034E0C394034007DD
:10132B0090602EE04402F0906034E0C394044007D8
:10133B0090602EE04404F0906034E0C394054007C5
:10134B0090602EE04408F0906034E0C394064007B0
:10135B0090602EE04410F090602AE06020E4F09062
:10136B00602BE07002A3E0600B200A0890604974C8
:10137B0001F08005E4906049F0C20CC20A30090705
:10138B00C209E4906049F0906049E0701790602EBC
:10139B00E054FEF0E054FDF0E054FBF0E054F7F0C5
:0513AB00E054EFF02208
:0C1DD800906012EFF090604D7401F0225A
:101ADB0090600EE025E02402F582E43460F583E0AB
:101AEB00FFA3E090602BCFF0A3EFF090602BE0FE14
:101AFB00A3E0FF121DBE121DB17F03121DD8906013
:091B0B001312103F00000000223B
:1013B000906003E06003021549906049E070030209
:1013C000154990604AE064017064906002E0FF7E1D
:1013D000007C047DB0120EC0E4FCFD906013E0F8C8
:1013E000A3E0F9A3E0FAA3E0FBC3120FFC50030251
:1013F000153E90601312103F00000000906002E064
:10140000B401057403F08007906002E02403F090BB
:10141000602BE0FEA3E0FFE4FCFD7B36FAF9F8D395
:10142000120FFC506590602CE024DB02152B9060BD
:101430002BE0FEA3E0FFE4FCFD7BAFFAF9F8C3125A
:101440000FFC5049E47F28FEFDFC906013E0F8A3F8
:10145000E0F9A3E0FAA3E0FBC3120FFC500302156E
:101460003E90601312103F0000000090602BE0FEE1
:10147000A3E0FFE4FCFD7B13FAF9F8D3120FFC5054
:101480000990602CE024FE02152B02153590602B8C
:10149000E0FEA3E0FFE4FCFD7B9DFAF9F8C3120F28
:1014A000FC5047E47FF0FEFDFC906013E0F8A3E001
:1014B000F9A3E0FAA3E0FBC3120FFC500302153EB0
:1014C00090601312103F0000000090602BE0FEA31C
:1014D000E0FFE4FCFD7B13FAF9F8D3120FFC50088F
:1014E00090602CE024FE8043804BE47FA47E01FDCD
:1014F000FC906013E0F8A3E0F9A3E0FAA3E0FBC3DB
:10150000120FFC403990601312103F000000009051
:10151000602BE0FEA3E0FFE4FCFD7B13FAF9F8D3B7
:10152000120FFC501090602CE024FEF090602BE035
:1015300034FFF0800990602BE4F0A37411F0906008
:0A1540002BE0FEA3E0FF121DBE2207
:031E0800021DBEFA
:101A410078E3E2543FF2E24440F2907195E4F0C24F
:101A5100A778C2E2543FF2E24440F2907181E4F08F
:101A6100C28378F2E254FCF2E24401F2E4F0C2B043
:101A710078D2E254FCF2E24401F2907186E4F0C2C1
:101A81009078C3E2543FF2E24440F2907185E4F071
:031A9100C28722E7
:031E0B00D283225D
:031E0E00C283226A
:031E1100D2B0222A
:031E1400C2B02237
:031E1700D2902244
:031E1A00C2902251
:031E1D00D2872247
:031E2000C2872254
:10196B000216ACE493A3F8E493A34003F68001F2D0
:10197B0008DFF48029E493A3F85407240CC8C3337D
:10198B00C4540F4420C8834004F456800146F6DF4C
:10199B00E4800B010204081020408090189DE47E27
:1019AB00019360BCA3FF543F30E509541FFEE49341
:1019BB00A360010ECF54C025E060A840B8E493A308
:1019CB00FAE493A3F8E493A3C8C582C8CAC583CA33
:1019DB00F0A3C8C582C8CAC583CADFE9DEE780BEEB
:01195E000088
:100EC000EF8DF0A4A8F0CF8CF0A428CE8DF0A42E46
:020ED000FE2200
:100ED200E88FF0A4CC8BF0A42CFCE98EF0A42CFCBF
:100EE2008AF0EDA42CFCEA8EF0A4CDA8F08BF0A43D
:100EF2002DCC3825F0FDE98FF0A42CCD35F0FCEB9C
:100F02008EF0A4FEA9F0EB8FF0A4CFC5F02ECD3960
:0F0F1200FEE43CFCEAA42DCE35F0FDE43CFC22CD
:100F210075F008758200EF2FFFEE33FECD33CDCC87
:100F310033CCC58233C5829BED9AEC99E58298400A
:100F41000CF582EE9BFEED9AFDEC99FC0FD5F0D6E7
:100F5100E4CEFBE4CDFAE4CCF9A88222B800C1B911
:100F61000059BA002DEC8BF084CFCECDFCE5F0CB4F
:100F7100F97818EF2FFFEE33FEED33FDEC33FCEB88
:100F810033FB10D703994004EB99FB0FD8E5E4F943
:100F9100FA227818EF2FFFEE33FEED33FDEC33FC30
:100FA100C933C910D7059BE99A4007EC9BFCE99A24
:100FB100F90FD8E0E4C9FAE4CCFB2275F010EF2F69
:100FC100FFEE33FEED33FDCC33CCC833C810D70769
:100FD1009BEC9AE899400AED9BFDEC9AFCE899F8A4
:0E0FE1000FD5F0DAE4CDFBE4CCFAE4C8F92237
:0D0FEF00CFF4CFCEF4CECDF4CDCCF4CC2297
:100FFC00EB9FF5F0EA9E42F0E99D42F0E89C45F04B
:01100C0022C1
:10100D00E8600FECC313FCED13FDEE13FEEF13FFC1
:03101D00D8F122E5
:10102000E8600FEFC333FFEE33FEED33FDEC33FC2E
:03103000D8F122D2
:0C103300ECF0A3EDF0A3EEF0A3EFF02230
:10103F00A8828583F0D083D08212105612105612D8
:10104F001056121056E473E493A3C583C5F0C583FD
:10105F00C8C582C8F0A3C583C5F0C583C8C582C8FB
:01106F00225E
:10107000D083D082F8E4937012740193700DA3A30F
:1010800093F8740193F5828883E473740293686023
:06109000EFA3A3A380DF23
:10109600EC8EF0A4CCC5F0CCCDF8EFA4CEC5F02DE7
:1010A600FDE43CFCE8A42EC8C5F03DFDE43CFCEFA5
:0D10B600A4FFE5F028FEE43DFDE43CFC2233
:10051E00E5082453F582E43460F583E00508229063
:10052E006050300703906053E475F00112111B0206
:10053E0010C32000E97F2ED2008018EF540F2490B4
:10054E00D43440D4FF30040BEF24BFB41A00500350
:10055E002461FFE50960021509050CE50C70020522
:10056E000B30070E906050E475F00112111BEF0274
:10057E001109021E007403D2078003E4C207F508B6
:10058E00906050121132E4F509F50BF50CE5096097
:10059E00077F2012056180F5750AFFC201C200C2F5
:1005AE0002C203C205C206C20812052DFF700D302D
:1005BE0007057F00120572AF0CAE0B22B4255FC289
:1005CE00D5C20412052DFF24D0B40A00501A75F0BE
:1005DE000A780930D50508B6FF0106C6A426F6200E
:1005EE00D5047002D20380D924CFB41A00EF500480
:1005FE00C2E5D204020773D20180C6D20080C0D2F7
:10060E000280BCD2D580BAD20580B47F201205619B
:10061E002002077401B5090040F112051EFF1205F4
:10062E006102059BD208D206809512051EFB1205AB
:10063E001EFA12051EF94A4B700679447A087BFFA2
:10064E0020022EE509602A7E008E8275830012102C
:10065E00DC60060EEE650A70F0C2D5EBC0E0EAC0B3
:10066E00E0E9C0E0EE1207BAD0E0F9D0E0FAD0E04F
:10067E00FB1210C3FF60AAEBC0E0EAC0E0E9C0E0E5
:10068E00120561D0E02401F9D0E03400FAD0E0FB8D
:10069E00E50A0460DCD50AD980877BFF7A0779B634
:1006AE00D202809C791080027908C206C2088008A6
:1006BE00D2D5790A8004790AC2D5E50A047002F50A
:1006CE000AE4FAFDFEFF12051EFC7B082001131240
:1006DE00051EFD7B1030000A12051EFE12051EFFC0
:1006EE007B20EC3382D592D55013C3E43000069FA5
:1006FE00FFE49EFEE42001039DFDE49CFCE4CBF8A8
:10070E00C201EC700CCFCECDCCE824F8F870F3809B
:10071E0017C3EF33FFEE33FEED33FDEC33FCEB335B
:10072E00FB994002FB0FD8E9EB300105F8D0E0C48D
:10073E0048B201C0E00AEC4D4E4F78207B0070C2EB
:10074E00EAB50A0040BCC0E01207BCD0F0D0E020F1
:10075E000104C4C0E0C4B201C0F012054AD0F0D505
:10076E00F0EB02059B12107006385306B2580609BC
:10077E004C06054206B64F06BE4406BE49061E434B
:08078E0006C45506A84606A8A2
:100796004506A847086450060D2D06112E06342B73
:1007A600061523063220084D2A05CD480000062CE2
:1007B6003F3F3F00790AA2D5200314300509B9103E
:1007C600020404B9080104A2D5200602500104203F
:1007D60002689202B509005034C0E07F2030031948
:1007E6007F30A20272067205500F120813C202C2AF
:1007F60006C205C2087F30800F300503E9C0E0124B
:100806000561300503D0E0F9D0E0B509CC30051715
:100816007F30B9100C1205617F583004077F78804D
:1008260003B908031205613002057F2D0205617FB9
:10083600202008F87F2B2006F322920280CF286E14
:10084600756C6C2900D20112051E3001F8C20178C0
:100856000930D50108F60205CD2D50434958120539
:100866001E2403B405004001E490085F931205526C
:0D087600743A120552D2037509040206B24D
:1010C300BB010689828A83E0225002E722BBFE022B
:0910D300E32289828A83E493225E
:1010DC00BB010CE58229F582E5833AF583E02250C9
:1010EC0006E92582F8E622BBFE06E92582F8E22213
:0D10FC00E58229F582E5833AF583E493222D
:10110900BB010689828A83F0225002F722BBFE01C5
:02111900F322BF
:10111B00F8E0FBA3A3E0F925F0F0E582158270025D
:07112B001583E0FA38F02201
:09113200EBF0A3EAF0A3E9F022BE
:00000001FF
