:030000000211E00A
:0C11E000787FE4F6D8FD7581210212270B
:0C000300000000000000000000000000F1
:0B162800EF1FAC0670011E4C70F62294
:1015DB00AB07AA06EB1BAE0270011A4E60097FAA7D
:0815EB007E0512162880ED2296
:10111100907120E04480F07F057E00121628E4FFE4
:10112100FE1215DB75A75575AC589071327450F0ED
:101131009071307403F0907136742FF07F18EF24A2
:1011410066FDE434718D82F583E4F00FEFB433EE84
:10115100904011E4935407FF90711CE054F84FF054
:10116100904017E493547FFF90711DE054804FF03D
:10117100904010E493FF5401C43333335480FE9004
:101181007123E0547F4EF0EFC313543F4440FFA35B
:10119100E054804FF0904012E493FF540FFE9071A1
:1011A10046E054F04EF0EFC4540FFF90714FE054FD
:1011B100F04FF0904013E493543FFF907140E0549E
:1011C100C04FF0904014E493907126F0904015E4E4
:0E11D10093907128F0904016E49390712AF0EC
:0111DF0022ED
:05126C00426055000086
:1014350078D3E24430F278E2E24430F278F2E244E2
:101445000CF2786AE24478F27591FF907123E054CA
:10145500D8F0E04459F09071227407F0439E704330
:0314650099402289
:1014BD00907123E054D8F0EF7006E04459F0800BA2
:1014CD00EFB40107907123E0445BF07869E2444882
:0814DD00F27F017E000215DB25
:10149400539940EFB4010543990E8010EFB402054F
:1014A4004399128007EFB403034399197869E2441E
:0914B40048F27F017E000215DB05
:100DA200E490600CF0A3F0A3F090600F120CA60088
:100DB200000000E4906013F0A3F074FF906015F05F
:100DC200A3F0E490600CF07869E24401F2786BE2FF
:100DD20030E1FAAF93EF75F010A4FFE594C4540F1D
:100DE200FDEF4DFF90600DE5F0F0A3EFF07402F21D
:100DF20090600CE0C39402406D906013E0FEA3E0AB
:100E0200FFD390600EE09F90600DE09E400CE0FFEB
:100E1200A3E0906013CFF0A3EFF0906015E0FEA383
:100E2200E0FFC390600EE09F90600DE09E500CE0EA
:100E3200FFA3E0906015CFF0A3EFF090600FE0F811
:100E4200A3E0F9A3E0FAA3E0FB90600DE0FEA3E0CB
:100E5200FFE4FCFDEB2FFFEA3EFEED39FDEC38FC32
:100E620090600F120C9A90600CE004F0E064146041
:100E720003020DC990600FE0FCA3E0FDA3E0FEA316
:100E8200E0FFC006C007906013E0FEA3E0FBAA06E5
:100E9200D007D006C3EF9BFFEE9AFEED9400FDEC67
:100EA2009400FC90600F120C9A90600FE0FCA3E09B
:100EB200FDA3E0FEA3E0FFC006C007906015E0FEC0
:100EC200A3E0FBAA06D007D006C3EF9BFFEE9AFE73
:100ED200ED9400FDEC9400FC90600F120C9A90606F
:100EE2000FE0FCA3E0FDA3E0FEA3E0FF7804120CF8
:100EF2007490600DEEF0A3EFF090600DE0FEA3E0C1
:010F0200FFEF
:010F030022CB
:101271004260370000C10C4160330041603400C15D
:0F1281000D4160300042603100004260350000D6
:10158D0043A820D2AF75D1017895E4F2187424F2F6
:0A159D00789174A0F21874FDF22298
:03001E000207C90D
:1007C900C0E0C0F0C083C082C0D075D000C000C0F6
:1007D90001C002C003C004C005C006C0077891E289
:0A07E90020E703020B0CE24480F24B
:1007F300D3906029E09414906028E09405500CA3F2
:10080300E004F07006906028E004F030A356D20CA8
:10081300D3906029E094B0906028E09404500302E0
:100823000943E4FFFEFDFC90602AE0F8A3E0F9A38E
:10083300E0FAA3E0FB120C636025200A2290602AF1
:10084300E0FCA3E0FDA3E0FEA3E0FF120C569060E2
:1008530058EFF090602A120CA600000000D20AC2E2
:1008630009020943200C03020941D3906029E09453
:1008730008906028E094005005C20902093AD39019
:100883006029E09412906028E09400501590602A4B
:10089300E0FCA3E0FDA3E0FEA3E0FF7801120C87D8
:1008A3008039D3906029E0941A906028E094005036
:1008B3003290602AE0FCA3E0FDA3E0FEA3E0FF7812
:1008C30001120C8790602A120C9A90602AE0FCA314
:1008D300E0FDA3E0FEA3E04401FFEC90602A120CCC
:1008E3009A8054D3906029E09496906028E0940015
:1008F3004045D3A3E094A4906028E09401502720BE
:100903000A3590602AE0FCA3E0FDA3E0FEA3E0FF2C
:10091300120C56906058EFF090602A120CA600005B
:100923000000D20A8011D3906029E094B09060282F
:10093300E094045002D209906028E4F0A3F0C20CC2
:1009430090602FE004F0700690602EE004F0906059
:100953002EE0FEA3E0FFD39414EE9400502F90609A
:1009630044E030E002D291906044E030E102D29260
:10097300906044E030E202D293906044E030E302BE
:10098300D294906044E030E40ED295800AC291C2C2
:1009930092C293C294C295C3EF9464EE940040074D
:0709A30090602EE4F0A3F0C8
:1009AA00906033E004F0E0C3940A5003020AE6E4DC
:1009BA00F0A3E004F0E094C85003020A5DE4F0906A
:1009CA006051E064026003020A5D200D44906050A9
:1009DA00E024FE601614601C1460221460282404AB
:1009EA00702B906044E04401F08022906044E0441F
:1009FA0002F08019906044E04404F0801090604452
:100A0A00E04408F08007906044E04410F0D20D8082
:100A1A0042906050E024FE601614601C1460221498
:100A2A0060282404702B906044E054FEF0802290E9
:100A3A006044E054FDF08019906044E054FBF0807B
:100A4A0010906044E054F7F08007906044E054EF5F
:100A5A00F0C20D906038E004F07006906037E00450
:100A6A00F0C3906038E09488906037E094134009AE
:090A7A00E4F0A3F090605304F0D5
:100A8300906030E004F0E0C394C84007E4F0906065
:030A93003A04F032
:100A960090603DE064017041906032E004F07006C1
:100AA600906031E004F0C3906032E094F0906031E1
:100AB600E09455500A121601906039E4F08021D373
:100AC600906032E0942C906031E09456500B1215F1
:100AD600F39060397401F08007906031E4F0A3F080
:100AE600906036E004F07006906035E004F0C39044
:100AF6006036E09410906035E094274009E4F0A356
:060B0600F090604504F0D0
:100B0C00D007D006D005D004D003D002D001D0003D
:0B0B1C00D0D0D082D083D0F0D0E032E7
:1014680078E3E254F3F2E24404F29071937410F0DA
:1014780075D10278A17409F218745FF278A3E4F2C6
:0C14880018F2789D74A0F21874E2F222B1
:101530009071937410F075D10278A17401F218744F
:10154000CBF278A3E4F218F2789D74A0F21874E25A
:02155000F22285
:10150B009071937410F075D10278A17409F218746C
:10151B005FF278A37401F21874AFF2789D74A0F2A5
:05152B001874E2F22239
:08163E00E478A3F2EF18F22298
:0D1601009071937410F0789CE24402F22284
:0E15F300789CE254FCF2907193E4F0C2A522C1
:081646008FD7E5D430E4FB224C
:1015A70078C2E254CFF2E24410F29071807404F0F2
:0A15B70075D60175D59F75D210227C
:1013FE0078E3E254FCF2E24401F2907192740FF041
:10140E0075D1049071057401F09071047476F090AA
:10141E007107E4F090710674BBF090710174A0F046
:07142E0090710074FEF02232
:0D160E00907192740FF090710074FEF02244
:0F000F00907100E054FCF0907192E4F0C2A422D2
:1013C000906057EFF07E007C017D76120CFDE47B8F
:1013D000FFFAF9F8120BC47808120C74907107EF39
:1013E000F0906057E0FF7E007C017D76120CFDE4FA
:0E13F0007BFFFAF9F8120BC4907106EFF022A1
:0B1633007379732072657365740A0000
:1012900041604300416044004160420041603B00C6
:1012A00041604500426040000041603A0041603DBD
:0912B0000041603C00416039007E
:1013340078D2E254F3F2E24404F2907187E4F0C20A
:1013440091E254CFF2E24410F2A3E4F0C292E254E8
:101354003FF2E24440F2A3E4F0C29308E254FCF208
:10136400E24401F2A3E4F0C294E254F3F2E244044E
:07137400F2A3E4F0C2952290
:10137B0075D9DD12111175D95590715EE054FEF0DF
:10138B0075D9BB1215A712158D1214681215F3120D
:10139B0013FE12000F12133478E2E2543FF278E09E
:1013AB00E24408F21214357BFF7A1679331204CF1C
:0513BB0012002180FB7F
:0D161B00E5F430E4FB8FF7E5F430E4FB224A
:1015C10078E3E254F3F2E24404F29071937404F08C
:0A15D10075D60175D59F75D2102262
:0D12B90041604D0042604E000041604A005F
:0900210090603AE07003020463F0
:10002A00E4906000F0A3F0A3F0A3F0A3120CA600E2
:10003A00000000E4906008F0A3F0A3F0A3F0906041
:10004A003AF090603CE07054FF1214BD7F01121424
:10005A0094120DA2906048EEF0A3EFF0C3906049AD
:10006A00E09490906048E09403400690603C7401EC
:10007A00F07F02121494120DA2906046EEF0A3EFE4
:10008A00F0C3906047E09433906046E0940E4005D8
:10009A00E490603CF090603CE0706B227F011214A7
:1000AA00BD7F01121494120DA2906048EEF0A3EFE6
:1000BA00F0C3906049E09493906048E0940D400941
:1000CA00E4906008F0A3020453D3906049E094F0EE
:1000DA00906048E094015023E4906008F0A3F09007
:1000EA006008E0FCA3E0FDEC78A3F2ED18F212152B
:1000FA00F3E490603CF090603DF02290603CE06454
:10010A00047003020463E4FF1214BD7F0212149404
:10011A00120DA2906046EEF0A3EFF090603CE0640E
:10012A00017043D3906047E094CC906046E0940A13
:10013A00502E90603DE064017003020463906008F1
:10014A007401F0A37437F0906008E0FCA3E0FDECC2
:10015A0078A3F2ED18F212150B90603D7401F022AB
:10016A0090603C7402F0C3906047E09499906046B6
:10017A00E0940D403D90603CE064036035E490609B
:10018A004DF0906008F0A3F0906008E0FCA3E0FD59
:10019A00EC78A3F2ED18F21215F37F017E00121526
:1001AA00DB120DA290604EEEF0A3EFF090603C746B
:0D01BA0003F090603CE06403600302031258
:1001C70090604CE004F0700690604BE004F0C39040
:1001D700604CE0940A90604BE09400401CE4F0A36C
:1001E700F01215F37F017E001215DB120DA290604D
:1001F7004EEEF0A3EFF012160190604EE0FEA3E082
:10020700FFC39466EE940E400890604AE004F080C5
:1002170005E490604AF0D3906047E09F906046E025
:100227009E404690604EE0FEA3E0FF906047E09F4F
:10023700FD906046E09EFCD3ED9400EC9404400BE7
:1002470090604DE0D39400402C8027C3906047E036
:100257009F906046E09EC39404501A90604DE0C39F
:1002670094645011E004F0800C90604DE0D394004A
:100277004003E014F090604DE0FF7E007C017DCBF1
:10028700120CFDE47B64FAF9F8120BC4906008EED7
:10029700F0A3EFF0906008E0FCA3E0FDEC78A3F298
:1002A700ED18F290604AE0C3940A4024E4F09060AD
:1002B70008F0A3F0906008E0FCA3E0FDEC08F2ED85
:1002C70018F21215F390603C7404F0E490603DF06E
:1002D700C3906047E094CC906046E0940E500302D0
:1002E7000463E4906008F0A3F0906008E0FCA3E0EA
:1002F700FDEC78A3F2ED18F21215F390603C74044C
:0B030700F0E490603DF090604AF022AE
:1003120090603CE06402600302046390603DE0642C
:1003220002601FE4906008F0A3F0906008E0FCA374
:10033200E0FDEC78A3F2ED18F212153090603D74F6
:1003420002F07F011214BD7F03121494120DA290C9
:10035200603EEEF0A3EFF090603EE0FEA3E0FFE42B
:10036200FCFD7BC07A277909F8120B39E4FB7A107D
:10037200F9F8120BC4E47B4CFAF9F8120BC4906042
:1003820000EEF0A3EFF0906046E0FEA3E0FF7C0FEA
:100392007DA0120CFDE4FB7A10F9F8120BC49060F8
:1003A20002EEF0A3EFF0C390603FE094FF90603E56
:1003B200E0940F400B90604DE0D394004075807044
:1003C200906002E0FEA3E0FF906000E0FCA3E0FD8D
:1003D200120CFDE47BE87A03F9F8120BC490600476
:1003E200120C9AE47F847E67FDFC906004E0F8A31F
:1003F200E0F9A3E0FAA3E0FBC3120C63500E906095
:100402004DE0C39464502CE004F08027E47F847EA6
:1004120067FDFC906004E0F8A3E0F9A3E0FAA3E032
:10042200FBD3120C63400C90604DE0D39400400368
:10043200E014F090604DE0FF7E007C017DCB120C59
:10044200FDE47B64FAF9F8120BC4906008EEF0A3A5
:10045200EFF0906008E0FCA3E0FDEC78A3F2ED1869
:01046200F2A7
:010463002276
:0A12C60041605800C109C10AC10BC4
:10155200E4906037F0A3F0906044E054FEF0E05471
:0F156200FDF0E054FBF0E054F7F0E054EFF0221E
:10157100300B18EFB40207906050EDF080059060D9
:0C15810052EDF0906051EFF01215522274
:10103D00200A03021110C20A906058E0120CD7105A
:10104D008E0210B01810F72210AA3010C26210A430
:10105D0068109290109E981074A21096A8109AE0A5
:10106D0010B7E200001110300B03021110121552CF
:10107D00906051E004F0E0D394035003021110800E
:10108D00657D01800E7D02800A7D0380067D0480D2
:10109D00027D057F0280107D017F03800A7D027F26
:1010AD000380047D037F03021571D20B9060517490
:1010BD0002F0021552906050E024FC600514600AA5
:1010CD00800E90603B7491F0800690603B747EF0D2
:1010DD0090603BE0906042F0E0FF1213C01214E507
:1010ED0012160E9060517401F02290603BE0D39483
:1010FD000040101214E5E490603BF0906042F090D7
:04110D006051F0221B
:1012D0004160540541605005416052014160530036
:100F0400906051E07003021552906051E0640160FA
:100F140003020FF2906044E04401F0D3906047E094
:100F240094CC906046E0940C400B906054E094059F
:100F340040037405F0C3906047E094CC906046E0B1
:100F4400940C500C906054E0C3940440037404F077
:100F5400C3906047E09433906046E0940C500C904A
:100F64006054E0C3940340037403F0C3906047E00B
:100F74009466906046E0940B500C906054E0C394E7
:100F84000240037402F0C3906047E0949990604675
:100F9400E0940A50069060547401F0906054E0C3E9
:100FA4009405906044E040054410F0800354EFF051
:100FB400906054E0C39404906044E040054408F019
:100FC400800354F7F0906054E0C39403906044E0CD
:100FD40040054404F0800354FBF0906054E0C39453
:100FE40002906044E04002802654FDF0802D906021
:100FF40051E0B40326A3E024FE601014601624021A
:101004007019906044E04401F08010906044E04422
:1010140002F08007906044E04404F0906053E06084
:1010240017E4F0906042E060089060517401F08031
:0910340005E4906051F0C20B22AA
:1014E500E4906059F012160E7FA17E001215DB12F2
:1014F500000F7FA17E001215DB906059E004F0E03B
:05150500C3940340E067
:01150A0022BE
:1012E100906045E06010E4F0906041E004F0700629
:0E12F100906040E004F0906052E064017034C0
:1012FF0090605AE02401FFE433FE7C047DB0120BB2
:10130F0027C3906041E09F906040E09E4016906040
:10131F005AE004F090603BE094F87480947F4004AE
:04132F00E024E7F0DF
:011333002297
:1011EC0002137BE493A3F8E493A34003F68001F28B
:1011FC0008DFF48029E493A3F85407240CC8C33304
:10120C00C4540F4420C8834004F456800146F6DFD2
:10121C00E4800B010204081020408090126CE47EE4
:10122C00019360BCA3FF543F30E509541FFEE493C7
:10123C00A360010ECF54C025E060A840B8E493A38E
:10124C00FAE493A3F8E493A3C8C582C8CAC583CAB9
:10125C00F0A3C8C582C8CAC583CADFE9DEE780BE71
:0112E000000D
:100B2700EF8DF0A4A8F0CF8CF0A428CE8DF0A42EE2
:020B3700FE229C
:100B3900E88FF0A4CC8BF0A42CFCE98EF0A42CFC5B
:100B49008AF0EDA42CFCEA8EF0A4CDA8F08BF0A4D9
:100B59002DCC3825F0FDE98FF0A42CCD35F0FCEB38
:100B69008EF0A4FEA9F0EB8FF0A4CFC5F02ECD39FD
:0F0B7900FEE43CFCEAA42DCE35F0FDE43CFC226A
:100B880075F008758200EF2FFFEE33FECD33CDCC24
:100B980033CCC58233C5829BED9AEC99E5829840A7
:100BA8000CF582EE9BFEED9AFDEC99FC0FD5F0D684
:100BB800E4CEFBE4CDFAE4CCF9A88222B800C1B9AE
:100BC8000059BA002DEC8BF084CFCECDFCE5F0CBEC
:100BD800F97818EF2FFFEE33FEED33FDEC33FCEB25
:100BE80033FB10D703994004EB99FB0FD8E5E4F9E0
:100BF800FA227818EF2FFFEE33FEED33FDEC33FCCD
:100C0800C933C910D7059BE99A4007EC9BFCE99AC0
:100C1800F90FD8E0E4C9FAE4CCFB2275F010EF2F05
:100C2800FFEE33FEED33FDCC33CCC833C810D70705
:100C38009BEC9AE899400AED9BFDEC9AFCE899F840
:0E0C48000FD5F0DAE4CDFBE4CCFAE4C8F922D3
:0D0C5600CFF4CFCEF4CECDF4CDCCF4CC2233
:100C6300EB9FF5F0EA9E42F0E99D42F0E89C45F0E7
:010C7300225E
:100C7400E8600FECC313FCED13FDEE13FEEF13FF5E
:030C8400D8F12282
:100C8700E8600FEFC333FFEE33FEED33FDEC33FCCB
:030C9700D8F1226F
:0C0C9A00ECF0A3EDF0A3EEF0A3EFF022CD
:100CA600A8828583F0D083D082120CBD120CBD12AF
:100CB6000CBD120CBDE473E493A3C583C5F0C583D4
:100CC600C8C582C8F0A3C583C5F0C583C8C582C898
:010CD60022FB
:100CD700D083D082F8E4937012740193700DA3A3AC
:100CE70093F8740193F5828883E4737402936860C0
:060CF700EFA3A3A380DFC0
:100CFD00EC8EF0A4CCC5F0CCCDF8EFA4CEC5F02D84
:100D0D00FDE43CFCE8A42EC8C5F03DFDE43CFCEF41
:0D0D1D00A4FFE5F028FEE43DFDE43CFC22CF
:10046400E5082403F582E43460F583E0050822906E
:100474006000300703906003E475F001120D8202FE
:100484000D2A2000E97F2ED2008018EF540F24900B
:10049400D43440D4FF30040BEF24BFB41A0050030B
:1004A4002461FFE50960021509050CE50C700205DD
:1004B4000B30070E906000E475F001120D82EF021C
:1004C4000D700216467403D2078003E4C207F508D0
:1004D400906000120D99E4F509F50BF50CE509603F
:1004E400077F201204A780F5750AFFC201C200C26B
:1004F40002C203C205C206C208120473FF700D30A3
:1005040007057F001204B8AF0CAE0B22B4255FC2FE
:10051400D5C204120473FF24D0B40A00501A75F033
:100524000A780930D50508B6FF0106C6A426F620C8
:10053400D5047002D20380D924CFB41A00EF50043A
:10054400C2E5D2040206B9D20180C6D20080C0D26C
:100554000280BCD2D580BAD20580B47F201204A711
:100564002002077401B5090040F1120464FF12046B
:10057400A70204E1D208D2068095120464FB120497
:1005840064FA120464F94A4B7006798A7A077BFF8D
:1005940020022EE509602A7E008E82758300120DEA
:1005A4004360060EEE650A70F0C2D5EBC0E0EAC007
:1005B400E0E9C0E0EE120700D0E0F9D0E0FAD0E0C4
:1005C400FB120D2AFF60AAEBC0E0EAC0E0E9C0E03C
:1005D4001204A7D0E02401F9D0E03400FAD0E0FB03
:1005E400E50A0460DCD50AD980877BFF7A0679FCAA
:1005F400D202809C791080027908C206C208800861
:10060400D2D5790A8004790AC2D5E50A047002F5C4
:100614000AE4FAFDFEFF120464FC7B0820011312B5
:100624000464FD7B1030000A120464FE120464FFAB
:100634007B20EC3382D592D55013C3E43000069F5F
:10064400FFE49EFEE42001039DFDE49CFCE4CBF862
:10065400C201EC700CCFCECDCCE824F8F870F38056
:1006640017C3EF33FFEE33FEED33FDEC33FCEB3316
:10067400FB994002FB0FD8E9EB300105F8D0E0C448
:1006840048B201C0E00AEC4D4E4F78207B0070C2A6
:10069400EAB50A0040BCC0E0120702D0F0D0E02066
:1006A4000104C4C0E0C4B201C0F0120490D0F0D57B
:1006B400F0EB0204E1120CD7057E5305F858054F00
:1006C4004C054B4205FC4F060444060449056443AB
:0806D400060A5505EE4605EE8D
:1006DC004505EE4707AA5005532D05572E057A2BD5
:1006EC00055B2305782007932A0513480000057243
:1006FC003F3F3F00790AA2D5200314300509B910F9
:10070C00020404B9080104A2D520060250010420F9
:10071C0002689202B509005034C0E07F2030031902
:10072C007F30A20272067205500F120759C202C224
:10073C0006C205C2087F30800F300503E9C0E01205
:10074C0004A7300503D0E0F9D0E0B509CC3005178B
:10075C007F30B9100C1204A77F583004077F7880C3
:10076C0003B908031204A73002057F2D0204A77FEA
:10077C00202008F87F2B2006F322920280CF286ECF
:10078C00756C6C2900D2011204643001F8C2017836
:10079C000930D50108F60205132D504349581204AF
:1007AC00642403B405004001E49007A59312049857
:0D07BC00743A120498D2037509040205F87E
:100D2A00BB010689828A83E0225002E722BBFE02C7
:090D3A00E32289828A83E49322FA
:100D4300BB010CE58229F582E5833AF583E0225065
:100D530006E92582F8E622BBFE06E92582F8E222AF
:0D0D6300E58229F582E5833AF583E49322C9
:100D7000BB010689828A83F0225002F722BBFE0162
:020D8000F3225C
:100D8200F8E0FBA3A3E0F925F0F0E58215827002FA
:070D92001583E0FA38F0229E
:090D9900EBF0A3EAF0A3E9F0225B
:00000001FF
