:03000000020A4FA2
:0C0A4F00787FE4F6D8FD758162020A96FB
:0C000300000000000000000000000000F1
:0B0D8A00EF1FAC0670011E4C70F6223B
:100D6500AB07AA06EB1BAE0270011A4E60097FAAFB
:080D75007E05120D8A80ED22BB
:10098100907120E04480F07F057E00120D8AE4FF23
:10099100FE120D6575A75575AC589071327450F003
:1009A1009071307403F0907136742FF07F18EF243A
:1009B10066FDE434718D82F583E4F00FBF33EF906F
:1009C1004011E4935407FF90711CE054F84FF090EC
:1009D1004017E493547FFF90711DE054804FF090D5
:1009E1004010E493FF5401C43333335480FE9071BB
:1009F10023E0547F4EF0EFC313543F4440FFA3E084
:100A010054804FF0904012E493FF540FFE907146D2
:100A1100E054F04EF0EFC4540FFF90714FE054F0EA
:100A21004FF0904013E493543FFF907140E054C065
:100A31004FF0904014E493907126F0904015E493A8
:0D0A4100907128F0904016E49390712AF017
:010A4E002285
:040C85000261000008
:100C580078D3E24430F278E2E24430F2786AE2444F
:100C680078F27591FF907123E054D8F0E04459F080
:0D0C78009071227407F0439E704399402252
:100CD1007869E254B7F2539940BF010543990E80F8
:100CE10006BF02034399127869E24448F27F017E0C
:040CF10000020D658B
:1008A700E4FBF508F509F50DF50CF50BF50AF50E62
:1008B700F50F74FFF510F5117869E24401F2786BD2
:1008C700E230E1FAAF93EF75F010A4FFE594C4545A
:1008D7000FFDE5F0F508EF4DF5097402F2EBC3944F
:1008E70002403DD3E509950FE508950E40068508BA
:1008F7000E85090FC3E5099511E508951050068582
:100907000810850911AE08AF09E4FCFDE50D2FF5C8
:100917000DE50C3EF50CED350BF50BEC350AF50A3C
:100927000BEB64147092AE0EAF0FAB07AA06C3E5CC
:100937000D9FF50DE50C9AF50CE50B9400F50BE50D
:100947000A9400F50AAE10AF11AB07AA06C3E50D6E
:100957009FF50DE50C9AF50CE50B9400F50BE50AF0
:100967009400F50AAF0DAE0CAD0BAC0A7804120477
:09097700B88E088F09AE08AF0923
:010980002254
:020C8900C10B9D
:100D170043A820D2AF75D1017895E4F2187424F274
:0A0D2700789174A0F21874FDF22216
:03001E0002056C6C
:10056C00C0E0C0F0C083C082C0D075D000C000C055
:10057C0001C002C003C004C005C006C0077891E2E8
:0A058C0020E7030206F9E24480F2C2
:10059600D3E54D9414E54C94055008054DE54D7092
:1005A60002054C30B045D20BD3E54D94B0E54C94E2
:1005B6000450030206A8E4FFFEFDFCAB51AA50A9B5
:1005C6004FA84E1204A7601E200A1BAF51AE50ADB5
:1005D6004FAC4E12049A8F1F755100755000754F1F
:1005E60000754E00D20AC2090206A8200B030206B5
:1005F600A6D3E54D9408E54C94005005C2090206C1
:10060600A0D3E54D9412E54C94005017AF51AE506F
:10061600AD4FAC4E78011204CB8F518E508D4F8C5E
:100626004E8077D3E54D941AE54C94005029AF518E
:10063600AE50AD4FAC4E78011204CB8F518E508D1B
:100646004F8C4EE5514401F551E550F550E54FF517
:100656004FE54EF54E8043D3E54D9496E54C940018
:100666004038D3E54D94A4E54C94015020200A2A45
:10067600AF51AE50AD4FAC4E12049A8F1F7551005C
:10068600755000754F00754E00D20A800DD3E54DAA
:1006960094B0E54C94045002D209754C00754D0097
:0206A600C20B85
:1006A8000553E55370020552D39414E55294005053
:1006B80025E51D30E002D291E51D30E102D292E538
:1006C8001D30E202D293E51D30E302D294E51D30DD
:1006D800E40ED295800AC291C292C293C294C29586
:1006E800C3E5539464E5529400400675520075536F
:0106F8000001
:1006F900D007D006D005D004D003D002D001D00055
:0B070900D0D0D082D083D0F0D0E032FE
:100C290078E3E254F3F2E24404F29071937410F021
:100C390075D10278A1740DF21874F2F278A37402D6
:0F0C4900F2187482F2789D74A0F21874E2F2220D
:100CF5009071937410F075D10278A17401F2187493
:100D0500C8F278A3E4F218F2789D74A0F21874E2A0
:020D1500F222C8
:100CAC009071937410F075D10278A1740DF21874D0
:100CBC00F2F278A37402F2187482F2789D74A0F2A6
:050CCC001874FEF22285
:0E000F00789CE254FCF2907193E4F0C2A522BA
:080DA0008FD7E5D430E4FB22FB
:100D310078C2E254CFF2E24410F29071807404F070
:0A0D410075D60175D59F75D21022FA
:0B0D95007379732072657365740A00A7
:090C8B00011C00011D00011E0006
:100B7F0078D2E254F3F2E24404F2907187E4F0E2A7
:100B8F0054CFF2E24410F2A3E4F0E2543FF2E24415
:100B9F0040F2A3E4F008E254FCF2E24401F2A3E4D1
:0D0BAF00F0E254F3F2E24404F2A3E4F02279
:100BF60075D9DD12098175D95590715EE054FEF004
:100C060075D9BB120D31120D17120C2912000F12D5
:100C16000B7F120C587BFF7A0D7995120083120B0D
:030C26003A80FB16
:0D0D7D00E5F430E4FB8FF7E5F430E4FB22F1
:100D4B0078E3E254F3F2E24404F29071937404F00A
:0A0D5B0075D60175D59F75D21022E0
:100BBC0064697361626C65206368617267650A00C1
:100BCC006C6F7720666571206368617267650A00D7
:100BDC006375722070776D2070657263656E74201A
:0A0BEC003A20256C752025250A002B
:0D0C9400016000015F00015E00025C0000D5
:100714007F01120CD11208A78E548F557F02120C40
:10072400D11208A78E568F57E560702AD3E55594E9
:10073400E8E55494025003755F01C3E5559490E5D0
:1007440054940350030208A6E55F70030208A6E46C
:06075400F55F7560012253
:10075A00D3E55594E8E5549402400AE5579466E5D2
:10076A0056940E401012000FE4F560F55E7BFF7A96
:10077A000B79BC8053D3E5579466E556940B401524
:10078A00E5579433E556940E500BC3E55594A2E50C
:10079A005494035036E55E640170030208A6E475BA
:1007AA005B04F55AF559F558AF5BAE5AAD59AC58DA
:1007BA0078081204B878A3EFF2E55BFF18EFF27538
:1007CA005E017BFF7A0B79CC020083E55E640260EE
:1007DA0006120CF5755E02E55E640260030208A665
:1007EA00AE54AF55FCFD7B367AA37902F812037D2D
:1007FA00E4FB7A10F9F8120408A804A905AA06C3AA
:10080A00747E9FF55B74E59AF55A740199F559E47B
:03081A0098F558F6
:10081D00055DE55D7002055CC39464E55C94004084
:10082D0027E4F55CF55D7BE87A03F9F8AF5BAE5A2A
:10083D00AD59AC581204088F0E8E0D8D0C8C0B7BA0
:08084D00FF7A0B79DC12008335
:10085500E47FC87E01FDFCAB5BAA5AA959A85812D2
:10086500037DE47BE87A03F9F8120408E47B64FA73
:10087500F9F81204088F5B8E5A8D598C58EF4E701B
:1008850009755B01F55AF559F558AF5BAE5AAD5987
:10089500AC5878081204B878A3EFF2E55BFF18EFBF
:0108A500F260
:0108A600222F
:070CA100011F00C109C10A97
:030CA800014A00FE
:040ADB00AB07AA06B5
:100ADF00E4F50BF50AF509F508AF4A054AEF25E0ED
:100AEF002422F8A60208A603E54AC394144003E49F
:100AFF00F54AE4F9E925E02422F8E6FE08E6FFE4EA
:100B0F00FCFDE50B2FF50BE50A3EF50AED3509F572
:100B1F0009EC3508F50809B914DAE47B14FAF9F889
:0B0B2F00AF0BAE0AAD09AC08020408D1
:100B3A007F02120CD11208A7120ADBE54B7035436B
:100B4A001D01C3EF94B1EE940A4005431D028003D0
:100B5A00531DFDC3EF9498EE940C4005431D048089
:100B6A0003531DFBC3EF9432EE940E4004431D0859
:040B7A0022531DF7EE
:010B7E002254
:100A5B00020BF6E493A3F8E493A34003F68001F2B0
:100A6B0008DFF48029E493A3F85407240CC8C3339C
:100A7B00C4540F4420C8834004F456800146F6DF6B
:100A8B00E4800B0102040810204080900C85E47E6A
:100A9B00019360BCA3FF543F30E509541FFEE49360
:100AAB00A360010ECF54C025E060A840B8E493A327
:100ABB00FAE493A3F8E493A3C8C582C8CAC583CA52
:100ACB00F0A3C8C582C8CAC583CADFE9DEE780BE0A
:010CAB000048
:10037D00E88FF0A4CC8BF0A42CFCE98EF0A42CFC1F
:10038D008AF0EDA42CFCEA8EF0A4CDA8F08BF0A49D
:10039D002DCC3825F0FDE98FF0A42CCD35F0FCEBFC
:1003AD008EF0A4FEA9F0EB8FF0A4CFC5F02ECD39C1
:0F03BD00FEE43CFCEAA42DCE35F0FDE43CFC222E
:1003CC0075F008758200EF2FFFEE33FECD33CDCCE8
:1003DC0033CCC58233C5829BED9AEC99E58298406B
:1003EC000CF582EE9BFEED9AFDEC99FC0FD5F0D648
:1003FC00E4CEFBE4CDFAE4CCF9A88222B800C1B972
:10040C000059BA002DEC8BF084CFCECDFCE5F0CBAF
:10041C00F97818EF2FFFEE33FEED33FDEC33FCEBE8
:10042C0033FB10D703994004EB99FB0FD8E5E4F9A3
:10043C00FA227818EF2FFFEE33FEED33FDEC33FC90
:10044C00C933C910D7059BE99A4007EC9BFCE99A84
:10045C00F90FD8E0E4C9FAE4CCFB2275F010EF2FC9
:10046C00FFEE33FEED33FDCC33CCC833C810D707C9
:10047C009BEC9AE899400AED9BFDEC9AFCE899F804
:0E048C000FD5F0DAE4CDFBE4CCFAE4C8F92297
:0D049A00CFF4CFCEF4CECDF4CDCCF4CC22F7
:1004A700EB9FF5F0EA9E42F0E99D42F0E89C45F0AB
:0104B7002222
:1004B800E8600FECC313FCED13FDEE13FEEF13FF22
:0304C800D8F12246
:1004CB00E8600FEFC333FFEE33FEED33FDEC33FC8F
:0304DB00D8F12233
:10002100E517240BF8E60517227808300702780B4C
:10003100E475F0011205360204DE2000EB7F2ED2BA
:10004100008018EF540F2490D43440D4FF30040BB7
:10005100EF24BFB41A0050032461FFE518600215B4
:1000610018051BE51B7002051A30070D7808E475A9
:10007100F001120536EF020524020DA07403D20728
:100081008003E4C207F5178B088A09890AE4F51889
:10009100F51AF51BE51860077F2012005C80F575E5
:1000A10019FFC201C200C202C203C205C206C208D0
:1000B10012002AFF700D3007057F0012006DAF1B83
:1000C100AE1A22B4255FC2D5C20412002AFF24D081
:1000D100B40A00501A75F00A781830D50508B6FF31
:1000E1000106C6A426F620D5047002D20380D924C5
:1000F100CFB41A00EF5004C2E5D20402026DD2015E
:1001010080C6D20080C0D20280BCD2D580BAD205CE
:1001110080B47F2012005C2002077401B5180040F2
:10012100F1120021FF12005C020095D208D2068074
:1001310095120021FB120021FA120021F94A4B709D
:1001410006793E7A037BFF20022EE518602A7E00A5
:100151008E827583001204F760060EEE651970F049
:10016100C2D5EBC0E0EAC0E0E9C0E0EE1202B4D0D3
:10017100E0F9D0E0FAD0E0FB1204DEFF60AAEBC0A8
:10018100E0EAC0E0E9C0E012005CD0E02401F9D06F
:10019100E03400FAD0E0FBE5190460DCD519D98020
:1001A100877BFF7A0279B0D202809C791080027934
:1001B10008C206C2088008D2D5790A8004790AC229
:1001C100D5E519047002F519E4FAFDFEFF120021CC
:1001D100FC7B08200113120021FD7B1030000A1264
:1001E1000021FE120021FF7B20EC3382D592D550F5
:1001F10013C3E43000069FFFE49EFEE42001039D4B
:10020100FDE49CFCE4CBF8C201EC700CCFCECDCC6C
:10021100E824F8F870F38017C3EF33FFEE33FEEDF7
:1002210033FDEC33FCEB33FB994002FB0FD8E9EBD8
:10023100300105F8D0E0C448B201C0E00AEC4D4EEF
:100241004F78207B0070C2EAB5190040BCC0E012B3
:1002510002B6D0F0D0E0200104C4C0E0C4B201C0B5
:10026100F0120045D0F0D5F0EB02009512054601E1
:10027100325301AC5801034C00FF4201B04F01B8A9
:0F0281004401B84901184301BE5501A24601A22C
:100290004501A247035E5001072D010B2E012E2BB5
:1002A000010F23012C2003472A00C7480000012624
:1002B0003F3F3F00790AA2D5200314300509B91049
:1002C000020404B9080104A2D5200602500104204A
:1002D00002689202B518005034C0E07F2030031944
:1002E0007F30A20272067205500F12030DC202C2C5
:1002F00006C205C2087F30800F300503E9C0E01256
:10030000005C300503D0E0F9D0E0B518CC3005171B
:100310007F30B9100C12005C7F583004077F788062
:1003200003B9080312005C3002057F2D02005C7FD8
:10033000202008F87F2B2006F322920280CF286E1F
:10034000756C6C2900D2011200213001F8C20178CD
:100350001830D50108F60200C72D50434958120045
:10036000212403B405004001E49003599312004D89
:0D037000743A12004DD2037518040201AC5E
:1004DE00BB010689828A83E0225002E722BBFE021C
:0904EE00E32289828A83E493224F
:1004F700BB010CE58229F582E5833AF583E02250BA
:1005070006E92582F8E622BBFE06E92582F8E22203
:0D051700E58229F582E5833AF583E493221D
:10052400BB010689828A83F0225002F722BBFE01B6
:02053400F322B0
:10053600FAE6FB0808E6F925F0F618E6CA3AF622C6
:10054600D083D082F8E4937012740193700DA3A344
:1005560093F8740193F5828883E473740293686058
:06056600EFA3A3A380DF58
:00000001FF
