:030000000215E9FD
:0C15E900787FE4F6D8FD758121021630F1
:0C000300000000000000000000000000F1
:0B1A1B00EF1FAC0670011E4C70F6229D
:10198100AB07AA06EB1BAE0270011A4E60097FAAD3
:081991007E05121A1B80ED22F5
:10148100907120E04480F07F057E00121A1BE4FF7A
:10149100FE12198175A75575AC589071327450F0D0
:1014A1009071307403F0907136742FF07F18EF242F
:1014B10066FDE434718D82F583E4F00FEFB433EE11
:1014C100904011E4935407FF90711CE054F84FF0E1
:1014D100904017E493547FFF90711DE054804FF0CA
:1014E100904010E493FF5401C43333335480FE9091
:1014F1007123E0547F4EF0EFC313543F4440FFA3E8
:10150100E054804FF0904012E493FF540FFE90712D
:1015110046E054F04EF0EFC4540FFF90714FE05489
:10152100F04FF0904013E493543FFF907140E0542A
:10153100C04FF0904014E493907126F0904015E470
:0E15410093907128F0904016E49390712AF078
:01154F002279
:0516750042605400007A
:1017BA0078D3E24430F278E2E24430F278F2E2445A
:1017CA000CF2786AE24478F27591FF907123E05442
:1017DA00D8F0E04459F09071227407F0439E7043A8
:0317EA0099402201
:10184200907123E054D8F0EF7006E04459F0800B19
:10185200EFB40107907123E0445BF07869E24448F9
:08186200F27F017E00021981F2
:10181900539940EFB4010543990E8010EFB40205C6
:101829004399128007EFB403034399197869E24495
:0918390048F27F017E00021981D2
:1011D000E490600CF0A3F0A3F090600F120CFB0001
:1011E000000000E4906013F0A3F074FF906015F02D
:1011F000A3F0E490600CF07869E24401F2786BE2CD
:1012000030E1FAAF93EF75F010A4FFE594C4540FEA
:10121000FDEF4DFF90600DE5F0F0A3EFF07402F2EA
:1012200090600CE0C39402406D906013E0FEA3E078
:10123000FFD390600EE09F90600DE09E400CE0FFB9
:10124000A3E0906013CFF0A3EFF0906015E0FEA351
:10125000E0FFC390600EE09F90600DE09E500CE0B8
:10126000FFA3E0906015CFF0A3EFF090600FE0F8DF
:10127000A3E0F9A3E0FAA3E0FB90600DE0FEA3E099
:10128000FFE4FCFDEB2FFFEA3EFEED39FDEC38FC00
:1012900090600F120CEF90600CE004F0E0641460BA
:1012A000030211F790600FE0FCA3E0FDA3E0FEA3B2
:1012B000E0FFC006C007906013E0FEA3E0FBAA06B3
:1012C000D007D006C3EF9BFFEE9AFEED9400FDEC35
:1012D0009400FC90600F120CEF90600FE0FCA3E014
:1012E000FDA3E0FEA3E0FFC006C007906015E0FE8E
:1012F000A3E0FBAA06D007D006C3EF9BFFEE9AFE41
:10130000ED9400FDEC9400FC90600F120CEF9060E7
:101310000FE0FCA3E0FDA3E0FEA3E0FF7804120CC5
:10132000C990600DEEF0A3EFF090600DE0FEA3E039
:01133000FFBD
:011331002299
:10199900E4FF1218427F021218191211D090603D0B
:0619A900EEF0A3EFF022B6
:1019C5001218427F011218191211D0906041EEF0E1
:0419D500A3EFF0226A
:1019AF007F011218427F031218191211D090602F65
:0619BF00EEF0A3EFF022A0
:10167A004260520000C10C41604E0041604F00C1FF
:0F168A000D41604B0042604C0000426050000078
:1019330043A820D2AF75D1017895E4F2187424F24C
:0A194300789174A0F21874FDF222EE
:03001E00020021BC
:10002100C0E0C0F0C083C082C0D075D000C000C0A5
:1000310001C002C003C004C005C006C0077891E238
:0A00410020E703020434E24480F2D9
:10004B00D3906044E09414906043E09405500CA36B
:10005B00E004F07006906043E004F030A356D20C3D
:10006B00D3906044E094B0906043E094045003025A
:10007B00019BE4FFFEFDFC906045E0F8A3E0F9A3D3
:10008B00E0FAA3E0FB120CB86025200A2290604531
:10009B00E0FCA3E0FDA3E0FEA3E0FF120CAB90603D
:1000AB0059EFF0906045120CFB00000000D20AC221
:1000BB000902019B200C03020199D3906044E09448
:1000CB0008906043E094005005C209020192D3905E
:1000DB006044E09412906043E094005015906045AA
:1000EB00E0FCA3E0FDA3E0FEA3E0FF7801120CDC33
:1000FB008039D3906044E0941A906043E0940050B0
:10010B0032906045E0FCA3E0FDA3E0FEA3E0FF78A6
:10011B0001120CDC906045120CEF906045E0FCA3E3
:10012B00E0FDA3E0FEA3E04401FFEC906045120C60
:10013B00EF8054D3906044E09496906043E0940039
:10014B004045D3A3E094A4906043E0940150272052
:10015B000A35906045E0FCA3E0FDA3E0FEA3E0FFC1
:10016B00120CAB906059EFF0906045120CFB000045
:10017B000000D20A8011D3906044E094B0906043A9
:10018B00E094045002D209906043E4F0A3F0C20C57
:10019B0090604AE004F07006906049E004F09060D3
:1001AB0049E0FEA3E0FFD39414EE9400502F90602F
:1001BB0039E030E002D291906039E030E102D29226
:1001CB00906039E030E202D293906039E030E30284
:1001DB00D294906039E030E40ED295800AC291C27D
:1001EB0092C293C294C295C3EF9464EE94004007FD
:0701FB00906049E4F0A3F05D
:1002020090604EE004F0E0C3940A50030203D5E488
:10021200F0A3E004F0E094C85003020358E4F09025
:10022200603FE0640260030202B9200D4590602D38
:10023200E024FE601614601C14602214602824045A
:10024200702B906039E04401F08022906039E044E4
:1002520002F08019906039E04404F0801090603917
:10026200E04408F08007906039E04410F0D20D02BB
:10027200035890602DE024FE601614601C14602266
:100282001460282404702B906039E054FEF0802220
:10029200906039E054FDF08019906039E054FBF031
:1002A2008010906039E054F7F08007906039E05494
:1002B200EFF0C20D02035890603FE06405702B908E
:1002C2006039E0200D124401F0E04402F0E0440401
:1002D200F0E04408F0E0807254FEF0E054FDF0E0FB
:1002E20054FBF0E054F7F0E0806790603FE0640474
:1002F2007064906035E0D39402500F906039E02032
:100302000D044402804654FD8049906035E0D39448
:1003120003500F906039E0200D044404802E54FBFA
:100322008031906035E0D39404500F906039E02022
:100332000D044408801654F78019906035E0D39478
:10034200055013906039E0200D074410F0D20D8063
:100352000554EFF0C20D906053E004F07006906017
:1003620052E004F0C3906053E09488906052E094AD
:0C037200134009E4F0A3F090605A04F07E
:10037E0090604BE004F0E0C394C84007E4F0906056
:03038E002804F050
:1003910090602EE0B4013690604DE004F07006905C
:1003A100604CE004F0C390604DE094F090604CE04C
:1003B100945550051219E7801BD390604DE0942CA1
:1003C10090604CE0945650051219D9800790604C0A
:0403D100E4F0A3F0C1
:0603D50090602CE070595D
:1003DB00906051E004F07006906050E004F0C39020
:1003EB006051E09410906050E09427403CE4F0A3FF
:1003FB00F074FFFFFEFDFC906031E0F8A3E0F9A381
:10040B00E0FAA3E0FB120CB8501F906031E0FCA3A4
:10041B00E0FDA3E0FEA3E02401FFE43EFEE43DFD8E
:09042B00E43CFC906031120CEF7E
:10043400D007D006D005D004D003D002D001D0001C
:0B044400D0D0D082D083D0F0D0E032C6
:1017ED0078E3E254F3F2E24404F29071937410F052
:1017FD0075D10278A17409F218745FF278A3E4F23E
:0C180D0018F2789D74A0F21874E2F22228
:1018B5009071937410F075D10278A17401F21874C7
:1018C500CBF278A3E4F218F2789D74A0F21874E2D2
:0218D500F222FD
:101890009071937410F075D10278A17409F21874E4
:1018A0005FF278A37401F21874AFF2789D74A0F21D
:0518B0001874E2F222B1
:081A3100E478A3F2EF18F222A1
:0D19E7009071937410F0789CE24402F2229B
:0E19D900789CE254FCF2907193E4F0C2A522D7
:081A39008FD7E5D430E4FB2255
:10194D0078C2E254CFF2E24410F29071807404F048
:0A195D0075D60175D59F75D21022D2
:1017830078E3E254FCF2E24401F2907192740FF0B8
:1017930075D1049071057401F09071047476F09022
:1017A3007107E4F090710674BBF090710174A0F0BE
:0717B30090710074FEF022AA
:0D19F400907192740FF090710074FEF0225B
:0F000F00907100E054FCF0907192E4F0C2A422D2
:0D1A0100AC06EC907107F0EF907106F0223A
:0B1A26007379732072657365740A0009
:101699004160380041603900426036000042602AEA
:1016A900000041603B004160280041602E0041601C
:1016B9002C00446031000000004160290141602D87
:0516C900054160400135
:10173C0078D2E254F3F2E24404F2907187E4F0C2FE
:10174C0091E254CFF2E24410F2A3E4F0C292E254DC
:10175C003FF2E24440F2A3E4F0C29308E254FCF2FC
:10176C00E24401F2A3E4F0C294E254F3F2E2440442
:07177C00F2A3E4F0C2952284
:071A41009060297401F022FE
:1015500075D9DD12148175D95590715EE054FEF095
:1015600075D9BB12194D1216E91219331217ED1263
:1015700019D912178312000F12173C78E2E2543F78
:10158000F278E0E24408F21217BA7BFF7A1A792661
:1015900012088212044F90602CE0700E121A511241
:1015A0001A57121A5D121A4880E990602CE0B402B2
:1015B0000E121A4B121A57121A5D121A4E80D4903C
:1015C000602CE0B4030E121A4B121A51121A5D125B
:1015D0001A5480BF90602CE0B404B8121A4B121A4F
:0915E00051121A57121A5A80AA7E
:0D1A0E00E5F430E4FB8FF7E5F430E4FB2253
:1019670078E3E254F3F2E24404F29071937404F0E2
:0A19770075D60175D59F75D21022B8
:0816CE00416057004160560025
:09044F00906028E0700302081619
:10045800E4906000F0A3F0A3F0A3F0A3120CFB005B
:10046800000000E4906008F0A3F0A3F0A3F090600F
:1004780028F090602CE07030FF1218427F011218AB
:10048800191211D0906041EEF0A3EFF0C3906042D2
:10049800E09490906041E09403400690602C7401D1
:1004A800F090602CE07069227F011218427F0112DF
:1004B80018191211D0906041EEF0A3EFF0C39060CC
:1004C80042E09493906041E0940D4009E490600804
:1004D800F0A3020806D3906042E094F0906041E0F7
:1004E80094015021E4906008F0A3F0906008E0FCCB
:1004F800A3E0FDEC78A3F2ED18F21219D9E49060AC
:100508002CF002067090602CE06404700302081658
:10051800E4FF1218427F021218191211D090603DA0
:10052800EEF0A3EFF090602CE064017043D390608C
:100538003EE094CC90603DE0940A502E90602EE00E
:10054800640170030208169060087401F0A3743700
:10055800F0906008E0FCA3E0FDEC78A3F2ED18F25F
:1005680012189090602E7401F02290602C7402F0A2
:10057800C390603EE0944790603DE0940E400B903D
:10058800602CE0640360037403F090602CE0640363
:0505980060030206965D
:10059D007F011218427F031218191211D090602F8B
:1005AD00EEF0A3EFF090602FE0FEA3E0FFE4FCFD82
:1005BD007BC07A277909F8120B8EE4FB7A10F9F8D3
:1005CD00120C19E47B4CFAF9F8120C19906000EE3C
:1005DD00F0A3EFF0906000E0FEA3E0FFD3942CEECB
:1005ED009401400E906057E0D39405401AE014F04A
:1005FD008015C3EF942CEE9401500C906057E0C31E
:10060D0094645003E004F0C390603EE09433906036
:10061D003DE0940E500BE4906056F090602C740207
:10062D00F0C390603EE0949990603DE0940E4038A8
:10063D00906056E004F0A37405F0906056E0940AC3
:10064D004026E4F0906008F0A3F0906008E0FCA371
:10065D00E0FDEC78A3F2ED18F21219D990602C742C
:10066D0004F0E490602EF022906057E0FF7E007C55
:10067D00017DCB120D52E47B64FAF9F8120C19903E
:09068D006008EEF0A3EF0208067C
:1006960090602CE06402600302081690602EE0640D
:1006A600026021906008E4F0A37408F0906008E00E
:1006B600FCA3E0FDEC78A3F2ED18F21218B59060F9
:1006C6002E7402F0C390603EE0943390603DE09457
:1006D6000E90600A40097413F0A37488F0800774C2
:1006E60067F0A37484F07F011218427F0312181971
:1006F6001211D090602FEEF0A3EFF090602FE0FE85
:10070600A3E0FFE4FCFD7BC07A277909F8120B8E83
:10071600E4FB7A10F9F8120C19E47B4CFAF9F8129A
:100726000C19906000EEF0A3EFF090603DE0FEA3A0
:10073600E0FF7C0F7DA0120D52E4FB7A10F9F8124F
:100746000C19906002EEF0A3EFF0C3906030E094D5
:10075600FF90602FE0940F400E906057E0D3940016
:1007660050030207E88078906002E0FEA3E0FF9065
:100776006000E0FCA3E0FD120D52E47BE87A03F989
:10078600F8120C19906004120CEF90600AE0FEA3B8
:10079600E0FFE4FCFD906004E0F8A3E0F9A3E0FAD2
:1007A600A3E0FBC3120CB8500E906057E0C39464EC
:1007B6005030E004F0802B90600AE0FEA3E0FFE4F6
:1007C600FCFD906004E0F8A3E0F9A3E0FAA3E0FBE7
:1007D600D3120CB8400C906057E0D394084003E065
:1007E60014F0906057E0FF7E007C017DCB120D5225
:1007F600E47B64FAF9F8120C19906008EEF0A3EFA6
:10080600F0906008E0FCA3E0FDEC78A3F2ED18F2AE
:0108160022BF
:0E16D60041605900C109C10AC10B41605800B2
:1018F800E4906052F0A3F0906039E054FEF0E054B8
:0F190800FDF0E054FBF0E054F7F0E054EFF02274
:10191700300B18EFB4020790602DEDF08005906052
:0C19270040EDF090603FEFF01218F82245
:1013320090602CE06008C20AE4906058F022200A13
:101342000302147BC20A906059E0906058F0A3E057
:10135200120D2C13980213BA1814492213B4301325
:10136200D26213AE68139C9013A898137DA213A0A7
:10137200A813A4E013C4E20000147B300B03021490
:10138200801218F890603FE004F0E0D39403500319
:1013920002147B0214447D01800E7D02800A7D03CB
:1013A20080067D0480027D057F0280107D017F031F
:1013B200800A7D027F0380047D037F0312191702D6
:1013C200147BD20B1218F890603F7405F002147B64
:1013D20090602DE024FE601914602214602A1460CB
:1013E200322404703790602A7401F0A37438F080BC
:1013F2002B90602A7401F0A37415F0801F90602A6C
:10140200E4F0A374F1F0801490602AE4F0A374D5A0
:10141200F0800990602AE4F0A374BAF090602AE0A8
:10142200FFA3E0906036CFF0A3EFF0906036E0FECD
:10143200A3E0FF121A011219F412186A1218F89096
:10144200603F7401F08032D390602BE09400906092
:101452002AE09400402390602CE0701D12186AE488
:1014620090602AF0A3F0906036F0A3F0FFFE121A0B
:0E1472000112000FE490603FF0300902C20941
:011480002249
:0416E40041605A0007
:1018D700906039E054FEF0E054FDF0E054FBF0E096
:1018E70054F7F0E054EFF0E490603AF0906035F090
:0118F70022CE
:100DF70090603FE064016003020EE1906039E044D7
:100E070001F0D390603EE094CC90603DE0940C40BC
:100E17000890603C7405F08048D390603EE09433BE
:100E270090603DE0940C400890603C7404F0803181
:100E3700D390603EE0946690603DE0940B4008904C
:100E4700603C7403F0801AD390603EE09499906000
:100E57003DE0940A90603C40057402F08003740101
:100E6700F090603AE0700A90603CE090603AF08061
:100E77001590603AE0FF90603CE0D39F4008906097
:100E87003AE090603CF090603CE0C3940590603994
:100E9700E040054410F0800354EFF090603CE0C35D
:100EA7009404906039E040054408F0800354F7F05B
:100EB70090603CE0C39403906039E040054404F03F
:100EC700800354FBF090603CE0C39402906039E0EB
:100ED7004002802E54FDF002101590603FE064033D
:100EE7007030906040E024FE601414601B240260A0
:100EF70003021015906039E04401F002101590606C
:100F070039E04402F0021015906039E04404F00221
:100F1700101590603FE0640460030210159060397B
:100F2700E04401F0D390603EE0949990603DE094F6
:100F37000D400890603C7406F0805FD390603EE0FF
:100F470094CC90603DE0940C400890603C7405F0B0
:100F57008048D390603EE0943390603DE0940C402D
:100F67000890603C7404F08031D390603EE0946652
:100F770090603DE0940B400890603C7403F0801A49
:100F8700D390603EE0949990603DE0940A90603C75
:100F970040057402F080037401F090603AE0700A33
:100FA70090603CE090603AF0801590603AE0FF90E6
:100FB700603CE0C39F500890603AE090603CF0903E
:100FC700603CE0906035F07F017E001219819060EF
:100FD7003CE0C394034007906039E04402F090601E
:100FE7003CE0C394044007906039E04404F090600B
:100FF7003CE0C394054007906039E04408F09060F6
:101007003CE0C394064007906039E04410F09060DC
:101017005AE0601BE4F0906036E07002A3E06008DD
:1010270090603F7401F08005E490603FF0C20B9040
:10103700603FE07017906039E054FEF0E054FDF037
:0D104700E054FBF0E054F7F0E054EFF0222D
:10186A00E490605BF01219F47FA17E0012198112D4
:10187A00000F7FA17E0012198190605BE004F0E006
:05188A00C3940340E0DF
:01188F002236
:10105400906040E064017064906029E0FF7E007C51
:10106400047DB0120B7CE4FCFD906031E0F8A3E059
:10107400F9A3E0FAA3E0FBC3120CB850030211CFAA
:10108400906031120CFB00000000906029E0B40174
:10109400057403F08007906029E02403F090602A2F
:1010A400E0FEA3E0FFE4FCFD7B36FAF9F8D3120C72
:1010B400B8506590602BE024DB0211BD906036E0EF
:1010C400FEA3E0FFE4FCFD7BAFFAF9F8C3120CB811
:1010D4005049E47F28FEFDFC906031E0F8A3E0F97C
:1010E400A3E0FAA3E0FBC3120CB850030211CF90A3
:1010F4006031120CFB0000000090602AE0FEA3E0C7
:10110400FFE4FCFD7B13FAF9F8D3120CB8500990F4
:10111400602BE024FE0211BD0211C6906036E0FE91
:10112400A3E0FFE4FCFD7B9DFAF9F8C3120CB85070
:1011340047E47FF0FEFDFC906031E0F8A3E0F9A302
:10114400E0FAA3E0FBC3120CB850030211CF906085
:1011540031120CFB0000000090602AE0FEA3E0FFC7
:10116400E4FCFD7B13FAF9F8D3120CB85008906034
:101174002BE024FE8043804AE47FA47E01FDFC90A2
:101184006031E0F8A3E0F9A3E0FAA3E0FBC3120C9A
:10119400B84038906031120CFB0000000090602AC7
:1011A400E0FEA3E0FFE4FCFD7B13FAF9F8D3120C94
:1011B400B8500F90602BE024FEF090602AE034FFDA
:0C11C400F02290602AE4F0A37411F022E5
:1016E90078E3E2543FF2E24440F2907195E4F0C2AB
:1016F900A778C2E2543FF2E24440F2907181E4F0EB
:10170900C28378F2E254FCF2E24401F2E4F0C2B09E
:1017190078D2E254FCF2E24401F2907186E4F0C21C
:101729009078C3E2543FF2E24440F2907185E4F0CC
:03173900C2872242
:031A4800D2832224
:031A4B00C2832231
:031A4E00D2B022F1
:031A5100C2B022FE
:031A5400D290220B
:031A5700C2902218
:031A5A00D287220E
:031A5D00C287221B
:1015F500021550E493A3F8E493A34003F68001F2A7
:1016050008DFF48029E493A3F85407240CC8C333F6
:10161500C4540F4420C8834004F456800146F6DFC5
:10162500E4800B0102040810204080901675E47ECA
:10163500019360BCA3FF543F30E509541FFEE493BA
:10164500A360010ECF54C025E060A840B8E493A381
:10165500FAE493A3F8E493A3C8C582C8CAC583CAAC
:10166500F0A3C8C582C8CAC583CADFE9DEE780BE64
:0116E8000001
:100B7C00EF8DF0A4A8F0CF8CF0A428CE8DF0A42E8D
:020B8C00FE2247
:100B8E00E88FF0A4CC8BF0A42CFCE98EF0A42CFC06
:100B9E008AF0EDA42CFCEA8EF0A4CDA8F08BF0A484
:100BAE002DCC3825F0FDE98FF0A42CCD35F0FCEBE3
:100BBE008EF0A4FEA9F0EB8FF0A4CFC5F02ECD39A8
:0F0BCE00FEE43CFCEAA42DCE35F0FDE43CFC2215
:100BDD0075F008758200EF2FFFEE33FECD33CDCCCF
:100BED0033CCC58233C5829BED9AEC99E582984052
:100BFD000CF582EE9BFEED9AFDEC99FC0FD5F0D62F
:100C0D00E4CEFBE4CDFAE4CCF9A88222B800C1B958
:100C1D000059BA002DEC8BF084CFCECDFCE5F0CB96
:100C2D00F97818EF2FFFEE33FEED33FDEC33FCEBCF
:100C3D0033FB10D703994004EB99FB0FD8E5E4F98A
:100C4D00FA227818EF2FFFEE33FEED33FDEC33FC77
:100C5D00C933C910D7059BE99A4007EC9BFCE99A6B
:100C6D00F90FD8E0E4C9FAE4CCFB2275F010EF2FB0
:100C7D00FFEE33FEED33FDCC33CCC833C810D707B0
:100C8D009BEC9AE899400AED9BFDEC9AFCE899F8EB
:0E0C9D000FD5F0DAE4CDFBE4CCFAE4C8F9227E
:0D0CAB00CFF4CFCEF4CECDF4CDCCF4CC22DE
:100CB800EB9FF5F0EA9E42F0E99D42F0E89C45F092
:010CC8002209
:100CC900E8600FECC313FCED13FDEE13FEEF13FF09
:030CD900D8F1222D
:100CDC00E8600FEFC333FFEE33FEED33FDEC33FC76
:030CEC00D8F1221A
:0C0CEF00ECF0A3EDF0A3EEF0A3EFF02278
:100CFB00A8828583F0D083D082120D12120D1212AE
:100D0B000D12120D12E473E493A3C583C5F0C583D2
:100D1B00C8C582C8F0A3C583C5F0C583C8C582C842
:010D2B0022A5
:100D2C00D083D082F8E4937012740193700DA3A356
:100D3C0093F8740193F5828883E47374029368606A
:060D4C00EFA3A3A380DF6A
:100D5200EC8EF0A4CCC5F0CCCDF8EFA4CEC5F02D2E
:100D6200FDE43CFCE8A42EC8C5F03DFDE43CFCEFEC
:0D0D7200A4FFE5F028FEE43DFDE43CFC227A
:10081700E5082403F582E43460F583E005082290B7
:100827006000300703906003E475F001120DD702F2
:100837000D7F2000E97F2ED2008018EF540F2490FF
:10084700D43440D4FF30040BEF24BFB41A00500354
:100857002461FFE50960021509050CE50C70020526
:100867000B30070E906000E475F001120DD7EF0210
:100877000DC5021A397403D2078003E4C207F508CD
:10088700906000120DEEE4F509F50BF50CE5096033
:10089700077F2012085A80F5750AFFC201C200C2FD
:1008A70002C203C205C206C208120826FF700D3035
:1008B70007057F0012086BAF0CAE0B22B4255FC291
:1008C700D5C204120826FF24D0B40A00501A75F0C6
:1008D7000A780930D50508B6FF0106C6A426F62012
:1008E700D5047002D20380D924CFB41A00EF500484
:1008F700C2E5D204020A6CD20180C6D20080C0D2FF
:100907000280BCD2D580BAD20580B47F2012085AA3
:100917002002077401B5090040F1120817FF1208F9
:100927005A020894D208D2068095120817FB1208BB
:1009370017FA120817F94A4B7006793D7A0B7BFFB5
:1009470020022EE509602A7E008E82758300120D33
:100957009860060EEE650A70F0C2D5EBC0E0EAC0FB
:10096700E0E9C0E0EE120AB3D0E0F9D0E0FAD0E057
:10097700FB120D7FFF60AAEBC0E0EAC0E0E9C0E030
:1009870012085AD0E02401F9D0E03400FAD0E0FB95
:10099700E50A0460DCD50AD980877BFF7A0A79AF3C
:1009A700D202809C791080027908C206C2088008AA
:1009B700D2D5790A8004790AC2D5E50A047002F50E
:1009C7000AE4FAFDFEFF120817FC7B082001131248
:1009D7000817FD7B1030000A120817FE120817FFD0
:1009E7007B20EC3382D592D55013C3E43000069FA9
:1009F700FFE49EFEE42001039DFDE49CFCE4CBF8AC
:100A0700C201EC700CCFCECDCCE824F8F870F3809F
:100A170017C3EF33FFEE33FEED33FDEC33FCEB335F
:100A2700FB994002FB0FD8E9EB300105F8D0E0C491
:100A370048B201C0E00AEC4D4E4F78207B0070C2EF
:100A4700EAB50A0040BCC0E0120AB5D0F0D0E020F9
:100A57000104C4C0E0C4B201C0F0120843D0F0D50D
:100A6700F0EB020894120D2C09315309AB58090217
:100A77004C08FE4209AF4F09B74409B74909174364
:080A870009BD5509A14609A1B2
:100A8F004509A1470B5D5009062D090A2E092D2B8B
:100A9F00090E23092B200B462A08C64800000925FA
:100AAF003F3F3F00790AA2D5200314300509B91042
:100ABF00020404B9080104A2D52006025001042043
:100ACF0002689202B509005034C0E07F203003194C
:100ADF007F30A20272067205500F120B0CC202C2B7
:100AEF0006C205C2087F30800F300503E9C0E0124F
:100AFF00085A300503D0E0F9D0E0B509CC3005171E
:100B0F007F30B9100C12085A7F583004077F788055
:100B1F0003B9080312085A3002057F2D02085A7FC5
:100B2F00202008F87F2B2006F322920280CF286E18
:100B3F00756C6C2900D2011208173001F8C20178C8
:100B4F000930D50108F60208C62D5043495812083E
:100B5F00172403B405004001E4900B589312084B7F
:0D0B6F00743A12084BD2037509040209AB59
:100D7F00BB010689828A83E0225002E722BBFE0272
:090D8F00E32289828A83E49322A5
:100D9800BB010CE58229F582E5833AF583E0225010
:100DA80006E92582F8E622BBFE06E92582F8E2225A
:0D0DB800E58229F582E5833AF583E4932274
:100DC500BB010689828A83F0225002F722BBFE010D
:020DD500F32207
:100DD700F8E0FBA3A3E0F925F0F0E58215827002A5
:070DE7001583E0FA38F02249
:090DEE00EBF0A3EAF0A3E9F02206
:00000001FF
