:030000000215E105
:0C15E100787FE4F6D8FD75812102162801
:0C000300000000000000000000000000F1
:0B1A7500EF1FAC0670011E4C70F62243
:1019DB00AB07AA06EB1BAE0270011A4E60097FAA79
:0819EB007E05121A7580ED2241
:10151200907120E04480F07F057E00121A75E4FF8E
:10152200FE1219DB75A75575AC589071327450F0E4
:101532009071307403F0907136742FF07F18EF249D
:1015420066FDE434718D82F583E4F00FEFB433EE7F
:10155200904011E4935407FF90711CE054F84FF04F
:10156200904017E493547FFF90711DE054804FF038
:10157200904010E493FF5401C43333335480FE90FF
:101582007123E0547F4EF0EFC313543F4440FFA356
:10159200E054804FF0904012E493FF540FFE90719C
:1015A20046E054F04EF0EFC4540FFF90714FE054F8
:1015B200F04FF0904013E493543FFF907140E05499
:1015C200C04FF0904014E493907126F0904015E4DF
:0E15D20093907128F0904016E49390712AF0E7
:0115E00022E8
:05166D00426055000081
:10182D0078D3E24430F278E2E24430F278F2E244E6
:10183D000CF2786AE24478F27591FF907123E054CE
:10184D00D8F0E04459F09071227407F0439E704334
:03185D009940228D
:1018B500907123E054D8F0EF7006E04459F0800BA6
:1018C500EFB40107907123E0445BF07869E2444886
:0818D500F27F017E000219DB25
:10188C00539940EFB4010543990E8010EFB4020553
:10189C004399128007EFB403034399197869E24422
:0918AC0048F27F017E000219DB05
:1011F300E490600CF0A3F0A3F090600F120D0800D0
:10120300000000E4906013F0A3F074FF906015F009
:10121300A3F0E490600CF07869E24401F2786BE2A9
:1012230030E1FAAF93EF75F010A4FFE594C4540FC7
:10123300FDEF4DFF90600DE5F0F0A3EFF07402F2C7
:1012430090600CE0C39402406D906013E0FEA3E055
:10125300FFD390600EE09F90600DE09E400CE0FF96
:10126300A3E0906013CFF0A3EFF0906015E0FEA32E
:10127300E0FFC390600EE09F90600DE09E500CE095
:10128300FFA3E0906015CFF0A3EFF090600FE0F8BC
:10129300A3E0F9A3E0FAA3E0FB90600DE0FEA3E076
:1012A300FFE4FCFDEB2FFFEA3EFEED39FDEC38FCDD
:1012B30090600F120CFC90600CE004F0E06414608A
:1012C3000302121A90600FE0FCA3E0FDA3E0FEA36B
:1012D300E0FFC006C007906013E0FEA3E0FBAA0690
:1012E300D007D006C3EF9BFFEE9AFEED9400FDEC12
:1012F3009400FC90600F120CFC90600FE0FCA3E0E4
:10130300FDA3E0FEA3E0FFC006C007906015E0FE6A
:10131300A3E0FBAA06D007D006C3EF9BFFEE9AFE1D
:10132300ED9400FDEC9400FC90600F120CFC9060B7
:101333000FE0FCA3E0FDA3E0FEA3E0FF7804120CA2
:10134300D690600DEEF0A3EFF090600DE0FEA3E009
:01135300FF9A
:011354002276
:1019F300E4FF1218B57F0212188C1211F390603EA7
:061A0300EEF0A3EFF0225B
:101A1F001218B57F0112188C1211F3906044EEF07A
:041A2F00A3EFF0220F
:101A09007F011218B57F0312188C1211F390602F01
:061A1900EEF0A3EFF02245
:10167200C1094160510041605200C10A41604E00FF
:0A16820042604F0000426053000078
:10198D0043A820D2AF75D1017895E4F2187424F2F2
:0A199D00789174A0F21874FDF22294
:03001E00020021BC
:10002100C0E0C0F0C083C082C0D075D000C000C0A5
:1000310001C002C003C004C005C006C0077891E238
:0A00410020E7030204AFE24480F25E
:10004B00D3906047E09414906046E09405500CA365
:10005B00E004F07006906046E004F030A356D2093D
:10006B00D3906047E094B0906046E0940450030254
:10007B00019BE4FFFEFDFC906048E0F8A3E0F9A3D0
:10008B00E0FAA3E0FB120CC56025200C229060481F
:10009B00E0FCA3E0FDA3E0FEA3E0FF120CB8906030
:1000AB005AEFF0906048120D0800000000D20CC20D
:1000BB000B02019B200903020199D3906047E09446
:1000CB0008906046E094005005C20B020192D39059
:1000DB006047E09412906046E094005015906048A1
:1000EB00E0FCA3E0FDA3E0FEA3E0FF7801120CE926
:1000FB008039D3906047E0941A906046E0940050AA
:10010B0032906048E0FCA3E0FDA3E0FEA3E0FF78A3
:10011B0001120CE9906048120CFC906048E0FCA3C3
:10012B00E0FDA3E0FEA3E04401FFEC906048120C5D
:10013B00FC8054D3906047E09496906046E0940026
:10014B004045D3A3E094A4906046E094015027204F
:10015B000C35906048E0FCA3E0FDA3E0FEA3E0FFBC
:10016B00120CB890605AEFF0906048120D08000026
:10017B000000D20C8011D3906047E094B0906046A1
:10018B00E094045002D20B906046E4F0A3F0C20955
:10019B0090604DE004F0700690604CE004F09060CD
:1001AB004CE0FEA3E0FFD39414EE9400502F90602C
:1001BB0039E030E002D291906039E030E102D29226
:1001CB00906039E030E202D293906039E030E30284
:1001DB00D294906039E030E40ED295800AC291C27D
:1001EB0092C293C294C295C3EF9464EE94004007FD
:0701FB0090604CE4F0A3F05A
:10020200906051E004F0E0C3940A50030203E6E474
:10021200F0A3E004F0E094C85003020358E4F09025
:100222006040E0640260030202B9200A4590602D3A
:10023200E024FE601614601C14602214602824045A
:10024200702B906039E04401F08022906039E044E4
:1002520002F08019906039E04404F0801090603917
:10026200E04408F08007906039E04410F0D20A02BE
:10027200035890602DE024FE601614601C14602266
:100282001460282404702B906039E054FEF0802220
:10029200906039E054FDF08019906039E054FBF031
:1002A2008010906039E054F7F08007906039E05494
:1002B200EFF0C20A020358906040E06405702B9090
:1002C2006039E0200A124401F0E04402F0E0440404
:1002D200F0E04408F0E0807254FEF0E054FDF0E0FB
:1002E20054FBF0E054F7F0E08067906040E0640473
:1002F2007064906035E0D39402500F906039E02032
:100302000A044402804654FD8049906035E0D3944B
:1003120003500F906039E0200A044404802E54FBFD
:100322008031906035E0D39404500F906039E02022
:100332000A044408801654F78019906035E0D3947B
:10034200055013906039E0200A074410F0D20A8069
:100352000554EFF0C20A906040E064026009E06474
:10036200036004E0B40526906043E004F070069058
:100372006042E004F0C3906043E09488906042E001
:0D03820094134009E4F0A3F090605B04F0D8
:10038F0090604EE004F0E0C394C84007E4F0906042
:03039F002804F03F
:1003A20090602EE0B40136906050E004F070069048
:1003B200604FE004F0C3906050E094F090604FE032
:1003C20094555005121A41801BD3906050E0942C32
:1003D20090604FE094565005121A33800790604F98
:0403E200E4F0A3F0B0
:1003E60090602CE07061906040E0605B906054E04B
:1003F60004F07006906053E004F0C3906054E094FB
:1004060010906053E094274045E4F0A3F074FFFF9A
:10041600FEFDFC906031E0F8A3E0F9A3E0FAA3E06A
:10042600FB120CC55028906031E0FCA3E0FDA3E070
:10043600FEA3E02401FFE43EFEE43DFDE43CFC9027
:0E0446006031120CFC8007906053E4F0A3F0CC
:1004540090602CE07055906040E0604F906029E01F
:10046400FEA3E0FFD3906037E09F906036E09E40AB
:100474000EA3E024FFF0906036E034FFF08021907A
:100484006029E0FEA3E0FFC3906037E09F906036F0
:10049400E09E500CA3E004F07006906036E004F097
:1004A400906036E0FEA3E0FF121A5BD007D006D0BE
:1004B40005D004D003D002D001D000D0D0D082D057
:0604C40083D0F0D0E0320D
:1018600078E3E254F3F2E24404F29071937410F0DE
:1018700075D10278A17409F218745FF278A3E4F2CA
:0C18800018F2789D74A0F21874E2F222B5
:10194F009071937410F075D10278A17401F218742C
:10195F00CBF278A3E4F218F2789D74A0F21874E237
:02196F00F22262
:10192A009071937410F075D10278A17409F2187449
:10193A005FF278A37401F21874AFF2789D74A0F282
:05194A001874E2F22216
:081A9400E478A3F2EF18F2223E
:0D1A41009071937410F0789CE24402F22240
:0E1A3300789CE254FCF2907193E4F0C2A5227C
:081A9C008FD7E5D430E4FB22F2
:1019A70078C2E254CFF2E24410F29071807404F0EE
:0A19B70075D60175D59F75D2102278
:1017F60078E3E254FCF2E24401F2907192740FF045
:1018060075D1049071057401F09071047476F090AE
:101816007107E4F090710674BBF090710174A0F04A
:0718260090710074FEF02236
:0D1A4E00907192740FF090710074FEF02200
:0F000F00907100E054FCF0907192E4F0C2A422D2
:0D1A5B00AC06EC907107F0EF907106F022E0
:0B1A80007379732072657365740A00AF
:10168C0041603800416039004160280041602E0003
:10169C0041602C004460310000000041602B01418E
:1016AC00602D0541604102C10D4260420000426064
:1016BC00360000426029000041603B0041603C0064
:1017AF0078D2E254F3F2E24404F2907187E4F0C28B
:1017BF0091E254CFF2E24410F2A3E4F0C292E25469
:1017CF003FF2E24440F2A3E4F0C29308E254FCF289
:1017DF00E24401F2A3E4F0C294E254F3F2E24404CF
:0717EF00F2A3E4F0C2952211
:071AA40090602B7401F02299
:1014360075D9DD12151275D95590715EE054FEF01E
:1014460075D9BB1219A712175C12198D12186012E2
:101456001A331217F612000F1217AF78E2E2543F52
:10146600F278E0E24408F212182D7BFF7A1A7980AE
:10147600120535121AA47F01121A8B1216E51208EC
:101486002F12135590602CE06015906040E06404C4
:101496006008E060057F04121A8B12000F800F901F
:1014A6006040E0B404057F01121A8B121A4E12191D
:1014B600F3120E0412106590602CE0700E121AB42E
:1014C600121ABA121AC0121AAB80B390602CE0B48A
:1014D600020E121AAE121ABA121AC0121AB1809E4F
:1014E60090602CE0B4030E121AAE121AB4121AC08F
:1014F600121AB7808990602CE064047081121AAECB
:0C150600121AB4121ABA121ABD02148490
:0D1A6800E5F430E4FB8FF7E5F430E4FB22F9
:1019C10078E3E254F3F2E24404F29071937404F088
:0A19D10075D60175D59F75D210225E
:0816CC00416058004160570025
:09082F00906028E07003020B88C0
:10083800E4906000F0A3F0A3F0A3F0A3120D080069
:10084800000000E4906008F0A3F0A3F0A3F090602B
:1008580028F090602CE07030FF1218B57F01121854
:100868008C1211F3906044EEF0A3EFF0C390604552
:10087800E09490906044E09403400690602C7401EA
:10088800F090602CE07069227F011218B57F011288
:10089800188C1211F3906044EEF0A3EFF0C390604F
:1008A80045E09493906044E0940D4009E49060081A
:1008B800F0A3020B78D3906045E094F0906044E098
:1008C80094015021E4906008F0A3F0906008E0FCE7
:1008D800A3E0FDEC78A3F2ED18F2121A33E490606D
:1008E8002CF0020A0390602CE064047003020B8869
:1008F800E4FF1218B57F0212188C1211F390603EB3
:10090800EEF0A3EFF090602CE064017043D39060A8
:100918003FE094CC90603EE0940A502E90602EE028
:1009280064017003020B889060087401F0A37437A7
:10093800F0906008E0FCA3E0FDEC78A3F2ED18F27B
:1009480012192A90602E7401F02290602C7402F023
:10095800C390603FE0944790603EE0940E403F9023
:10096800602CE0640360379060587405F0E0FF7E07
:10097800007C017DCB120D5FE47B64FAF9F8120C60
:1009880026906008EEF0A3EFF0906008E0FCA3E08A
:10099800FDEC78A3F2ED18F290602C7403F09060EF
:0609A8002CE06403705A0C
:1009AE00C390603FE0943390603EE0940E5005E4B7
:1009BE00906057F0C390603FE0949990603EE09451
:1009CE000E5003020B88906057E004F0E0940A503A
:1009DE0003020B88E4F0906008F0A3F0906008E04A
:1009EE00FCA3E0FDEC78A3F2ED18F2121A3390603E
:0A09FE002C7404F0E490602EF02247
:100A080090602CE064026003020B8890602EE06422
:100A1800026021906008E4F0A37408F0906008E098
:100A2800FCA3E0FDEC78A3F2ED18F212194F9060E8
:100A38002E7402F0C390603FE0943390603EE094DF
:100A48000E90600A40097413F0A37488F08007744C
:100A580067F0A37484F07F011218B57F0312188C15
:100A68001211F390602FEEF0A3EFF090602FE0FEEC
:100A7800A3E0FFE4FCFD7BC07A277909F8120B9B01
:100A8800E4FB7A10F9F8120C26E47B4CFAF9F81218
:100A98000C26906000EEF0A3EFF090603EE0FEA31D
:100AA800E0FF7C0F7DA0120D5FE4FB7A10F9F812CD
:100AB8000C26906002EEF0A3EFF0C3906030E09453
:100AC800FF90602FE0940F400E906058E0D39400A0
:100AD8005003020B5A8078906002E0FEA3E0FF907A
:100AE8006000E0FCA3E0FD120D5FE47BE87A03F907
:100AF800F8120C26906004120CFC90600AE0FEA329
:100B0800E0FFE4FCFD906004E0F8A3E0F9A3E0FA5C
:100B1800A3E0FBC3120CC5500E906058E0C3946468
:100B28005030E004F0802B90600AE0FEA3E0FFE480
:100B3800FCFD906004E0F8A3E0F9A3E0FAA3E0FB71
:100B4800D3120CC5400C906058E0D394084003E0E1
:100B580014F0906058E0FF7E007C017DCB120D5FA1
:100B6800E47B64FAF9F8120C26906008EEF0A3EF23
:100B7800F0906008E0FCA3E0FDEC78A3F2ED18F239
:010B8800224A
:0C16D40041605A00C10BC10C416059007C
:10197100300D18EFB4020790602DEDF080059060F6
:0C19810041EDF0906040EFF01218DD2204
:1013550090602CE0600AC20CC20BE4906059F02248
:10136500200C03021430C20C90605AE0906059F0D2
:10137500A3E0120D3913BC0213DE1813FE2213D895
:101385003013F46213D26813C09013CC9813A2A241
:1013950013C4A813C8E013E7E200001430300D03AE
:1013A5000214351218DD906040E004F0E0D3940398
:1013B50040797401F080747D01800E7D02800A7D84
:1013C5000380067D0480027D057F0280107D017FFC
:1013D50003800A7D027F0380047D037F0312197158
:1013E5008049D20D1218DD9060407405F0803C12E2
:1013F50016E57F01121A8B8032D390602AE09400A3
:10140500906029E09400402390602CE0701D121933
:1014150004E4906029F0A3F0906036F0A3F0FFFE9D
:10142500121A5B12000FE4906040F0300B02C20B01
:011435002294
:0416E00041605B000A
:1018DD00906039E054FEF0E054FDF0E054FBF0E090
:1018ED0054F7F0E054EFF0E490603AF0906035F08A
:0718FD00906042F0A3F0220D
:091A8B001218DD906040EFF0221A
:100E0400906040E070030218DD906040E06401608F
:100E140003020EF7906039E04401F0D390603FE0A4
:100E240094CC90603EE0940C400890603D7405F0D2
:100E34008048D390603FE0943390603EE0940C404F
:100E44000890603D7404F08031D390603FE0946674
:100E540090603EE0940B400890603D7403F0801A6B
:100E6400D390603FE0949990603EE0940A90603D96
:100E740040057402F080037401F090603AE0700A57
:100E840090603DE090603AF0801590603AE0FF9009
:100E9400603DE0D39F400890603AE090603DF09060
:100EA400603DE0C39405906039E040054410F08053
:100EB4000354EFF090603DE0C39404906039E04047
:100EC400054408F0800354F7F090603DE0C39403B8
:100ED400906039E040054404F0800354FBF09060D6
:100EE4003DE0C39402906039E04002802E54FDF04E
:100EF400021026906040E064037030906041E0246A
:100F0400FE601414601B24026003021026906039F2
:100F1400E04401F0021026906039E04402F002102F
:100F240026906039E04404F0021026906040E064AA
:100F3400046003021026906039E04401F0D390600D
:100F44003FE094CC90603EE0940C400890603D7487
:100F540005F08048D390603FE0943390603EE09485
:100F64000C400890603D7404F08031D390603FE001
:100F7400946690603EE0940B400890603D7403F0EA
:100F8400801AD390603FE0949990603EE0940A9078
:100F9400603D40057402F080037401F090602CE021
:100FA40064036004E0B4040690603D7406F090604D
:100FB4003AE0700A90603DE090603AF080159060ED
:100FC4003AE0FF90603DE0C39F500890603AE090A3
:100FD400603DF090603DE0906035F07F017E00124E
:100FE40019DB90603DE0C394034007906039E0440E
:100FF40002F090603DE0C394044007906039E044FF
:1010040004F090603DE0C394054007906039E044EB
:1010140008F090603DE0C394064007906039E044D6
:1010240010F090605BE0601BE4F0906036E07002CA
:10103400A3E060089060407401F08005E490604093
:10104400F0C20D906040E07017906039E054FEF0FB
:10105400E054FDF0E054FBF0E054F7F0E054EFF01E
:011064002269
:10190400E4906000F0121A4E7FA17E001219DB12DF
:10191400000F7FA17E001219DB906000E004F0E06C
:05192400C3940340E044
:01192900229B
:1016E50090602DE024FE601914602214602A1460B5
:1016F50032240470379060297401F0A37438F080A7
:101705002B9060297401F0A37415F0801F90602957
:10171500E4F0A374F1F08014906029E4F0A374D58B
:10172500F08009906029E4F0A374BAF0906029E094
:10173500FFA3E0906036CFF0A3EFF0906036E0FEB7
:10174500A3E0FF121A5B121A4E12190490603112AF
:071755000D08000000002256
:1010650090602CE060030211F2906040E070030292
:1010750011F2906041E06401706490602BE0FF7EA6
:10108500007C047DB0120B89E4FCFD906031E0F832
:10109500A3E0F9A3E0FAA3E0FBC3120CC5500302D9
:1010A50011F2906031120D080000000090602BE0F5
:1010B500B401057403F0800790602BE02403F090E1
:1010C5006029E0FEA3E0FFE4FCFD7B36FAF9F8D3E6
:1010D500120CC5506590602AE024DB0211E0906097
:1010E50036E0FEA3E0FFE4FCFD7BAFFAF9F8C3129E
:1010F5000CC55049E47F28FEFDFC906031E0F8A363
:10110500E0F9A3E0FAA3E0FBC3120CC550030211FA
:10111500F2906031120D0800000000906029E0FE99
:10112500A3E0FFE4FCFD7B13FAF9F8D3120CC550DC
:101135000990602AE024FE0211E00211E990603670
:10114500E0FEA3E0FFE4FCFD7B9DFAF9F8C3120C79
:10115500C55047E47FF0FEFDFC906031E0F8A3E068
:10116500F9A3E0FAA3E0FBC3120CC550030211F288
:10117500906031120D0800000000906029E0FEA388
:10118500E0FFE4FCFD7B13FAF9F8D3120CC5500817
:1011950090602AE024FE8043804AE47FA47E01FD1E
:1011A500FC906031E0F8A3E0F9A3E0FAA3E0FBC30B
:1011B500120CC54038906031120D080000000090F7
:1011C5006029E0FEA3E0FFE4FCFD7B13FAF9F8D308
:1011D500120CC5500F90602AE024FEF0906029E0C3
:0E11E50034FFF022906029E4F0A37411F02290
:10175C0078E3E2543FF2E24440F2907195E4F0C237
:10176C00A778C2E2543FF2E24440F2907181E4F077
:10177C00C28378F2E254FCF2E24401F2E4F0C2B02B
:10178C0078D2E254FCF2E24401F2907186E4F0C2A9
:10179C009078C3E2543FF2E24440F2907185E4F059
:0317AC00C28722CF
:031AAB00D28322C1
:031AAE00C28322CE
:031AB100D2B0228E
:031AB400C2B0229B
:031AB700D29022A8
:031ABA00C29022B5
:031ABD00D28722AB
:031AC000C28722B8
:1015ED00021436E493A3F8E493A34003F68001F2CA
:1015FD0008DFF48029E493A3F85407240CC8C333FF
:10160D00C4540F4420C8834004F456800146F6DFCD
:10161D00E4800B010204081020408090166DE47EDA
:10162D00019360BCA3FF543F30E509541FFEE493C2
:10163D00A360010ECF54C025E060A840B8E493A389
:10164D00FAE493A3F8E493A3C8C582C8CAC583CAB4
:10165D00F0A3C8C582C8CAC583CADFE9DEE780BE6C
:0116E4000005
:100B8900EF8DF0A4A8F0CF8CF0A428CE8DF0A42E80
:020B9900FE223A
:100B9B00E88FF0A4CC8BF0A42CFCE98EF0A42CFCF9
:100BAB008AF0EDA42CFCEA8EF0A4CDA8F08BF0A477
:100BBB002DCC3825F0FDE98FF0A42CCD35F0FCEBD6
:100BCB008EF0A4FEA9F0EB8FF0A4CFC5F02ECD399B
:0F0BDB00FEE43CFCEAA42DCE35F0FDE43CFC2208
:100BEA0075F008758200EF2FFFEE33FECD33CDCCC2
:100BFA0033CCC58233C5829BED9AEC99E582984045
:100C0A000CF582EE9BFEED9AFDEC99FC0FD5F0D621
:100C1A00E4CEFBE4CDFAE4CCF9A88222B800C1B94B
:100C2A000059BA002DEC8BF084CFCECDFCE5F0CB89
:100C3A00F97818EF2FFFEE33FEED33FDEC33FCEBC2
:100C4A0033FB10D703994004EB99FB0FD8E5E4F97D
:100C5A00FA227818EF2FFFEE33FEED33FDEC33FC6A
:100C6A00C933C910D7059BE99A4007EC9BFCE99A5E
:100C7A00F90FD8E0E4C9FAE4CCFB2275F010EF2FA3
:100C8A00FFEE33FEED33FDCC33CCC833C810D707A3
:100C9A009BEC9AE899400AED9BFDEC9AFCE899F8DE
:0E0CAA000FD5F0DAE4CDFBE4CCFAE4C8F92271
:0D0CB800CFF4CFCEF4CECDF4CDCCF4CC22D1
:100CC500EB9FF5F0EA9E42F0E99D42F0E89C45F085
:010CD50022FC
:100CD600E8600FECC313FCED13FDEE13FEEF13FFFC
:030CE600D8F12220
:100CE900E8600FEFC333FFEE33FEED33FDEC33FC69
:030CF900D8F1220D
:0C0CFC00ECF0A3EDF0A3EEF0A3EFF0226B
:100D0800A8828583F0D083D082120D1F120D1F1286
:100D18000D1F120D1FE473E493A3C583C5F0C583AB
:100D2800C8C582C8F0A3C583C5F0C583C8C582C835
:010D38002298
:100D3900D083D082F8E4937012740193700DA3A349
:100D490093F8740193F5828883E47374029368605D
:060D5900EFA3A3A380DF5D
:100D5F00EC8EF0A4CCC5F0CCCDF8EFA4CEC5F02D21
:100D6F00FDE43CFCE8A42EC8C5F03DFDE43CFCEFDF
:0D0D7F00A4FFE5F028FEE43DFDE43CFC226D
:1004CA00E5082403F582E43460F583E00508229008
:1004DA006000300703906003E475F001120DE40236
:1004EA000D8C2000E97F2ED2008018EF540F249043
:1004FA00D43440D4FF30040BEF24BFB41A005003A5
:10050A002461FFE50960021509050CE50C70020576
:10051A000B30070E906000E475F001120DE4EF0253
:10052A000DD2021A9C7403D2078003E4C207F508AD
:10053A00906000120DFBE4F509F50BF50CE5096076
:10054A00077F2012050D80F5750AFFC201C200C29D
:10055A0002C203C205C206C2081204D9FF700D30D6
:10056A0007057F0012051EAF0CAE0B22B4255FC231
:10057A00D5C2041204D9FF24D0B40A00501A75F067
:10058A000A780930D50508B6FF0106C6A426F62062
:10059A00D5047002D20380D924CFB41A00EF5004D4
:1005AA00C2E5D20402071FD20180C6D20080C0D29F
:1005BA000280BCD2D580BAD20580B47F2012050D44
:1005CA002002077401B5090040F11204CAFF12059E
:1005DA000D020547D208D20680951204CAFB1204FE
:1005EA00CAFA1204CAF94A4B700679F07A077BFFF5
:1005FA0020022EE509602A7E008E82758300120D84
:10060A00A560060EEE650A70F0C2D5EBC0E0EAC03E
:10061A00E0E9C0E0EE120766D0E0F9D0E0FAD0E0F7
:10062A00FB120D8CFF60AAEBC0E0EAC0E0E9C0E073
:10063A0012050DD0E02401F9D0E03400FAD0E0FB35
:10064A00E50A0460DCD50AD980877BFF7A077962DC
:10065A00D202809C791080027908C206C2088008FA
:10066A00D2D5790A8004790AC2D5E50A047002F55E
:10067A000AE4FAFDFEFF1204CAFC7B0820011312E9
:10068A0004CAFD7B1030000A1204CAFE1204CAFF13
:10069A007B20EC3382D592D55013C3E43000069FF9
:1006AA00FFE49EFEE42001039DFDE49CFCE4CBF8FC
:1006BA00C201EC700CCFCECDCCE824F8F870F380F0
:1006CA0017C3EF33FFEE33FEED33FDEC33FCEB33B0
:1006DA00FB994002FB0FD8E9EB300105F8D0E0C4E2
:1006EA0048B201C0E00AEC4D4E4F78207B0070C240
:1006FA00EAB50A0040BCC0E0120768D0F0D0E0209A
:10070A000104C4C0E0C4B201C0F01204F6D0F0D5AE
:10071A00F0EB020547120D3905E453065E5805B59C
:10072A004C05B14206624F066A44066A4905CA4345
:08073A000670550654460654F2
:100742004506544708105005B92D05BD2E05E02B6E
:1007520005C12305DE2007F92A057948000005D8DE
:100762003F3F3F00790AA2D5200314300509B91092
:10077200020404B9080104A2D52006025001042093
:1007820002689202B509005034C0E07F203003199C
:100792007F30A20272067205500F1207BFC202C258
:1007A20006C205C2087F30800F300503E9C0E0129F
:1007B200050D300503D0E0F9D0E0B509CC300517BE
:1007C2007F30B9100C12050D7F583004077F7880F6
:1007D20003B9080312050D3002057F2D02050D7FB6
:1007E200202008F87F2B2006F322920280CF286E69
:1007F200756C6C2900D2011204CA3001F8C201786A
:100802000930D50108F60205792D504349581204E2
:10081200CA2403B405004001E490080B931204FEBD
:0D082200743A1204FED20375090402065E4A
:100D8C00BB010689828A83E0225002E722BBFE0265
:090D9C00E32289828A83E4932298
:100DA500BB010CE58229F582E5833AF583E0225003
:100DB50006E92582F8E622BBFE06E92582F8E2224D
:0D0DC500E58229F582E5833AF583E4932267
:100DD200BB010689828A83F0225002F722BBFE0100
:020DE200F322FA
:100DE400F8E0FBA3A3E0F925F0F0E5821582700298
:070DF4001583E0FA38F0223C
:090DFB00EBF0A3EAF0A3E9F022F9
:00000001FF
