:0300000002129950
:0C129900787FE4F6D8FD7581210212E098
:0C000300000000000000000000000000F1
:0B166F00EF1FAC0670011E4C70F6224D
:10162200AB07AA06EB1BAE0270011A4E60097FAA35
:081632007E0512166F80ED2207
:1011CA00907120E04480F07F057E0012166FE4FFE4
:1011DA00FE12162275A75575AC589071327450F0EC
:1011EA009071307403F0907136742FF07F18EF24E9
:1011FA0066FDE434718D82F583E4F00FEFB433EECB
:10120A00904011E4935407FF90711CE054F84FF09A
:10121A00904017E493547FFF90711DE054804FF083
:10122A00904010E493FF5401C43333335480FE904A
:10123A007123E0547F4EF0EFC313543F4440FFA3A1
:10124A00E054804FF0904012E493FF540FFE9071E7
:10125A0046E054F04EF0EFC4540FFF90714FE05443
:10126A00F04FF0904013E493543FFF907140E054E4
:10127A00C04FF0904014E493907126F0904015E42A
:0E128A0093907128F0904016E49390712AF032
:011298002233
:051325004260510000D0
:1014560078D3E24430F278E2E24430F278F2E244C1
:101466000CF2786AE24478F27591FF907123E054A9
:10147600D8F0E04459F09071227407F0439E70430F
:0314860099402268
:1014DE00907123E054D8F0EF7006E04459F0800B81
:1014EE00EFB40107907123E0445BF07869E2444861
:0814FE00F27F017E00021622BC
:1014B500539940EFB4010543990E8010EFB402052E
:1014C5004399128007EFB403034399197869E244FD
:0914D50048F27F017E000216229C
:100D5100E490600AF0A3F0A3F090600D120C55002E
:100D6100000000E4906011F0A3F074FF906013F0B4
:100D7100A3F0E490600AF07869E24401F2786BE252
:100D810030E1FAAF93EF75F010A4FFE594C4540F6E
:100D9100FDEF4DFF90600BE5F0F0A3EFF07402F270
:100DA10090600AE0C39402406D906011E0FEA3E000
:100DB100FFD390600CE09F90600BE09E400CE0FF41
:100DC100A3E0906011CFF0A3EFF0906013E0FEA3D9
:100DD100E0FFC390600CE09F90600BE09E500CE040
:100DE100FFA3E0906013CFF0A3EFF090600DE0F867
:100DF100A3E0F9A3E0FAA3E0FB90600BE0FEA3E01F
:100E0100FFE4FCFDEB2FFFEA3EFEED39FDEC38FC83
:100E110090600D120C4990600AE004F0E0641460E7
:100E210003020D7890600DE0FCA3E0FDA3E0FEA3BA
:100E3100E0FFC006C007906011E0FEA3E0FBAA0638
:100E4100D007D006C3EF9BFFEE9AFEED9400FDECB8
:100E51009400FC90600D120C4990600DE0FCA3E041
:100E6100FDA3E0FEA3E0FFC006C007906013E0FE13
:100E7100A3E0FBAA06D007D006C3EF9BFFEE9AFEC4
:100E8100ED9400FDEC9400FC90600D120C49906013
:100E91000DE0FCA3E0FDA3E0FEA3E0FF7804120C4B
:100EA1002390600BEEF0A3EFF090600BE0FEA3E067
:010EB100FF41
:010EB200221D
:10132A0042604A0000C10C4160460041604700C16A
:0F133A000D4160430042604400004260480000E3
:1015D40043A820D2AF75D1017895E4F2187424F2AF
:0A15E400789174A0F21874FDF22251
:03001E000203E6F4
:1003E600C0E0C0F0C083C082C0D075D000C000C0DD
:1003F60001C002C003C004C005C006C0077891E270
:0A04060020E703020756E24480F2EB
:10041000D390603CE0941490603BE09405500CA3B2
:10042000E004F0700690603BE004F030A356D20C7C
:10043000D390603CE094B090603BE09404500302A1
:100440000560E4FFFEFDFC90603DE0F8A3E0F9A349
:10045000E0FAA3E0FB120C126025200A2290603D16
:10046000E0FCA3E0FDA3E0FEA3E0FF120C0590601A
:1004700054EFF090603D120C5500000000D20AC20B
:1004800009020560200C0302055ED390603CE094F5
:100490000890603BE094005005C209020557D390D4
:1004A000603CE0941290603BE09400501590603DF9
:1004B000E0FCA3E0FDA3E0FEA3E0FF7801120C3610
:1004C0008039D390603CE0941A90603BE0940050F7
:1004D0003290603DE0FCA3E0FDA3E0FEA3E0FF78E6
:1004E00001120C3690603D120C4990603DE0FCA377
:1004F000E0FDA3E0FEA3E04401FFEC90603D120CA0
:10050000498054D390603CE0949690603BE0940026
:100510004045D3A3E094A490603BE0940150272091
:100520000A3590603DE0FCA3E0FDA3E0FEA3E0FF00
:10053000120C05906054EFF090603D120C550000D5
:100540000000D20A8011D390603CE094B090603BF0
:10055000E094045002D20990603BE4F0A3F0C20C96
:10056000906042E004F07006906041E004F090601A
:1005700041E0FEA3E0FFD39414EE9400502F90606E
:1005800035E030E002D291906035E030E102D29265
:10059000906035E030E202D293906035E030E302C3
:1005A000D294906035E030E40ED295800AC291C2B8
:1005B00092C293C294C295C3EF9464EE9400400734
:0705C000906041E4F0A3F09C
:1005C700906046E004F0E0C3940A50030206F7E4A3
:1005D700F0A3E004F0E094C8500302067AE4F09038
:1005E700604DE06402600302067A200D4490604C7F
:1005F700E024FE601614601C146022146028240492
:10060700702B906035E04401F08022906035E04423
:1006170002F08019906035E04404F0801090603556
:10062700E04408F08007906035E04410F0D20D8078
:100637004290604CE024FE601614601C1460221483
:1006470060282404702B906035E054FEF0802290DF
:100657006035E054FDF08019906035E054FBF08080
:1006670010906035E054F7F08007906035E054EF64
:10067700F0C20D90604BE004F0700690604AE00411
:10068700F0C390604BE0948890604AE0941340096F
:09069700E4F0A3F090604F04F0C0
:1006A000906043E004F0E0C394C84007E4F0906039
:0306B0002804F02B
:1006B30090602CE0B40136906045E004F070069041
:1006C3006044E004F0C3906045E094F0906044E03F
:1006D30094555005121648801BD3906045E0942C26
:1006E300906044E09456500512163A800790604497
:0406F300E4F0A3F09C
:0606F70090602BE0705939
:1006FD00906049E004F07006906048E004F0C3900B
:10070D006049E09410906048E09427403CE4F0A3E9
:10071D00F074FFFFFEFDFC90602FE0F8A3E0F9A35D
:10072D00E0FAA3E0FB120C12501F90602FE0FCA327
:10073D00E0FDA3E0FEA3E02401FFE43EFEE43DFD69
:09074D00E43CFC90602F120C4901
:10075600D007D006D005D004D003D002D001D000F7
:0B076600D0D0D082D083D0F0D0E032A1
:1014890078E3E254F3F2E24404F29071937410F0B9
:1014990075D10278A17409F218745FF278A3E4F2A5
:0C14A90018F2789D74A0F21874E2F22290
:101577009071937410F075D10278A17401F2187408
:10158700CBF278A3E4F218F2789D74A0F21874E213
:02159700F2223E
:101552009071937410F075D10278A17409F2187425
:101562005FF278A37401F21874AFF2789D74A0F25E
:051572001874E2F222F2
:08168500E478A3F2EF18F22251
:0D1648009071937410F0789CE24402F2223D
:0E163A00789CE254FCF2907193E4F0C2A52279
:08168D008FD7E5D430E4FB2205
:1015EE0078C2E254CFF2E24410F29071807404F0AB
:0A15FE0075D60175D59F75D2102235
:10141F0078E3E254FCF2E24401F2907192740FF01F
:10142F0075D1049071057401F09071047476F09089
:10143F007107E4F090710674BBF090710174A0F025
:07144F0090710074FEF02211
:0D165500907192740FF090710074FEF022FD
:0F000F00907100E054FCF0907192E4F0C2A422D2
:10150600AB077E007C017D76120CAC7808120C23AA
:10151600907107EFF0AF037E007C017D76120CAC74
:06152600907106EFF022B7
:0B167A007379732072657365740A00B9
:1013490041603400416035004160330041602A004A
:10135900416036004160280041602C0041602B004B
:0B13690044602F0000000041602901DB
:1013930078D2E254F3F2E24404F2907187E4F0C2AB
:1013A30091E254CFF2E24410F2A3E4F0C292E25489
:1013B3003FF2E24440F2A3E4F0C29308E254FCF2A9
:1013C300E24401F2A3E4F0C294E254F3F2E24404EF
:0713D300F2A3E4F0C2952231
:071695009060297401F022AE
:1013DA0075D9DD1211CA75D95590715EE054FEF0C7
:1013EA0075D9BB1215EE1215D412148912163A12B7
:1013FA00141F12000F12139378E2E2543FF278E0BE
:10140A00E24408F21214567BFF7A16797A1207DC44
:05141A0012002180FB1F
:0D166200E5F430E4FB8FF7E5F430E4FB2203
:1016080078E3E254F3F2E24404F29071937404F044
:0A16180075D60175D59F75D210221A
:041374004160530081
:09002100906028E070030203E581
:10002A00E4906000F0A3F0A3F0A3F0A3120C550033
:10003A00000000E4906008F0A3F0906028F090605F
:10004A002BE07030FF1214DE7F011214B5120D512D
:10005A00906039EEF0A3EFF0C390603AE09490908C
:10006A006039E09403400690602B7401F090602B95
:10007A00E07069227F011214DE7F011214B5120D9D
:10008A0051906039EEF0A3EFF0C390603AE0949398
:10009A00906039E0940D4009E4906008F0A30203EF
:1000AA00D5D390603AE094F0906039E09401502101
:1000BA00E4906008F0A3F0906008E0FCA3E0FDEC97
:1000CA0078A3F2ED18F212163AE490602BF00202CD
:1000DA008F90602BE0640470030203E5E4FF1214BE
:1000EA00DE7F021214B5120D51906037EEF0A3EFC5
:1000FA00F090602BE064017043D3906038E094CCB8
:10010A00906037E0940A502E90602CE064017003EE
:10011A000203E59060087401F0A37437F090600858
:10012A00E0FCA3E0FDEC78A3F2ED18F21215529070
:10013A00602C7401F02290602B7402F0C390603836
:10014A00E09499906037E0940D402890602BE06429
:10015A00036020E4906053F0906008F0A3F0906090
:10016A0008E0FCA3E0FDEC78A3F2ED18F290602B16
:10017A007403F090602BE0640360030202947F0131
:10018A001214DE7F031214B5120D5190602DEEF099
:10019A00A3EFF090602DE0FEA3E0FFE4FCFD7BC03E
:1001AA007A277909F8120AE8E4FB7A10F9F8120BAF
:1001BA0073E47B4CFAF9F8120B73906000EEF0A32B
:1001CA00EFF0C3906037E0940E502E906000E0FE8E
:1001DA00A3E0FF94D0EE9407400B906053E0D394D1
:1001EA00004049802DC3EF94D0EE9407503E9060B2
:1001FA0053E0C3946450358030906000E0FEA3E081
:10020A00FFD3942CEE9401400E906053E0D39400F7
:10021A00401AE014F08015C3EF942CEE9401500CB0
:10022A00906053E0C394645003E004F0906053E09C
:10023A00FF7E007C017DCB120CACE47B64FAF9F8FA
:10024A00120B73906008EEF0A3EFF0906008E0FCE8
:10025A00A3E0FDEC78A3F2ED18F2C3906037E094C6
:10026A000F50030203E5E4906008F0A3F0906008E1
:10027A00E0FCA3E0FDEC08F2ED18F212163A9060E9
:10028A002B7404F0E490602CF02290602BE064025E
:10029A0060030203E590602CE06402601FE4906052
:1002AA0008F0A3F0906008E0FCA3E0FDEC78A3F26C
:1002BA00ED18F212157790602C7402F07F01121477
:1002CA00DE7F031214B5120D5190602DEEF0A3EFEC
:1002DA00F090602DE0FEA3E0FFE4FCFD7BC07A27EE
:1002EA007909F8120AE8E4FB7A10F9F8120B73E4B8
:1002FA007B4CFAF9F8120B73906000EEF0A3EFF062
:10030A00906037E0FEA3E0FF7C0F7DA0120CACE406
:10031A00FB7A10F9F8120B73906002EEF0A3EFF07B
:10032A00C390602EE094FF90602DE0940F400B90F4
:10033A006053E0D3940040758070906002E0FEA3A1
:10034A00E0FF906000E0FCA3E0FD120CACE47BE867
:10035A007A03F9F8120B73906004120C49E47F8453
:10036A007E67FDFC906004E0F8A3E0F9A3E0FAA33D
:10037A00E0FBC3120C12500E906053E0C394645019
:10038A002CE004F08027E47F847E67FDFC90600403
:10039A00E0F8A3E0F9A3E0FAA3E0FBD3120C1240C1
:1003AA000C906053E0D394004003E014F090605343
:1003BA00E0FF7E007C017DCB120CACE47B64FAF991
:1003CA00F8120B73906008EEF0A3EFF0906008E06B
:0B03DA00FCA3E0FDEC78A3F2ED18F2AC
:0103E50022F5
:0A13780041605400C109C10AC10B15
:10159900E490604AF0A3F0906035E054FEF0E05426
:0F15A900FDF0E054FBF0E054F7F0E054EFF022D7
:1015B800300B18EFB4020790604CEDF08005906096
:0C15C8004EEDF090604DEFF012159922EE
:1010F600200A030211C9C20A906054E0120C86113C
:10110600470211691811B022116330117B62115D1B
:1011160068114B90115798112DA2114FA81153E049
:101126001170E2000011C9300B030211C9121599A2
:1011360090604DE004F0E0D3940350030211C9809F
:10114600657D01800E7D02800A7D0380067D048018
:10115600027D057F0280107D017F03800A7D027F6C
:101166000380047D037F030215B8D20B90604D7493
:1011760002F002159990604CE024FC600514600AA8
:10118600800E90602A7491F0800690602A747EF03A
:1011960090602AE0906033F0E0FF12150612152CDD
:1011A60012165590604D7401F02290602AE0D39497
:1011B60000401012152CE490602AF0906033F090F5
:0411C600604DF02266
:101382004160500541604C0541604E0141604F0093
:100EB30090604DE0700302159990604DE06401600D
:100EC30003020FA1906035E04401F0D3906038E055
:100ED30094CC906037E0940C400B906050E0940504
:100EE30040037405F0C3906038E094CC906037E021
:100EF300940C500C906050E0C3940440037404F0CD
:100F0300C3906038E09433906037E0940C500C90B9
:100F13006050E0C3940340037403F0C3906038E06F
:100F23009466906037E0940B500C906050E0C3944B
:100F33000240037402F0C3906038E09499906037E4
:100F4300E0940A50069060507401F0906050E0C342
:100F53009405906035E040054410F0800354EFF0B1
:100F6300906050E0C39404906035E040054408F07D
:100F7300800354F7F0906050E0C39403906035E031
:100F830040054404F0800354FBF0906050E0C394A8
:100F930002906035E04002802654FDF0802D906081
:100FA3004DE0B40326A3E024FE601014601624026F
:100FB3007019906035E04401F08010906035E04492
:100FC30002F08007906035E04404F090604FE060E9
:100FD30017E4F0906033E0600890604D7401F08096
:090FE30005E490604DF0C20B2200
:10152C00E4906055F01216557FA17E00121622121F
:10153C00000F7FA17E00121622906055E004F0E0AF
:05154C00C3940340E020
:011551002277
:100FEC0090604EE064017053906029E0FF7E007CBD
:100FFC00047DB0120AD6E4FCFD90602FE0F8A3E06B
:10100C00F9A3E0FAA3E0FBC3120C1250030210F593
:10101C0090602F120C5500000000906029E0B40184
:10102C00057403F08007906029E02403F090602A97
:10103C00E0C39436403FE024DBF022906033E0D3F1
:10104C0094AF4033E47F28FEFDFC90602FE0F8A3C2
:10105C00E0F9A3E0FAA3E0FB120C1250030210F526
:10106C0090602F120C550000000090602AE0C39491
:10107C001340028069806C906033E0D3949D4030C3
:10108C00E47FF0FEFDFC90602FE0F8A3E0F9A3E014
:10109C00FAA3E0FB120C12405090602F120C55007A
:1010AC0000000090602AE0C394134002803080332B
:1010BC00E47FA47E01FDFC90602FE0F8A3E0F9A38F
:1010CC00E0FAA3E0FBC3120C12401E90602F120C2E
:1010DC00550000000090602AE0C394134005E02402
:0A10EC00FEF02290602A7411F02239
:1012A5000213DAE493A3F8E493A34003F68001F272
:1012B50008DFF48029E493A3F85407240CC8C3334A
:1012C500C4540F4420C8834004F456800146F6DF19
:1012D500E4800B0102040810204080901325E47E71
:1012E500019360BCA3FF543F30E509541FFEE4930E
:1012F500A360010ECF54C025E060A840B8E493A3D5
:10130500FAE493A3F8E493A3C8C582C8CAC583CAFF
:10131500F0A3C8C582C8CAC583CADFE9DEE780BEB7
:01139200005A
:100AD600EF8DF0A4A8F0CF8CF0A428CE8DF0A42E34
:020AE600FE22EE
:100AE800E88FF0A4CC8BF0A42CFCE98EF0A42CFCAD
:100AF8008AF0EDA42CFCEA8EF0A4CDA8F08BF0A42B
:100B08002DCC3825F0FDE98FF0A42CCD35F0FCEB89
:100B18008EF0A4FEA9F0EB8FF0A4CFC5F02ECD394E
:0F0B2800FEE43CFCEAA42DCE35F0FDE43CFC22BB
:100B370075F008758200EF2FFFEE33FECD33CDCC75
:100B470033CCC58233C5829BED9AEC99E5829840F8
:100B57000CF582EE9BFEED9AFDEC99FC0FD5F0D6D5
:100B6700E4CEFBE4CDFAE4CCF9A88222B800C1B9FF
:100B77000059BA002DEC8BF084CFCECDFCE5F0CB3D
:100B8700F97818EF2FFFEE33FEED33FDEC33FCEB76
:100B970033FB10D703994004EB99FB0FD8E5E4F931
:100BA700FA227818EF2FFFEE33FEED33FDEC33FC1E
:100BB700C933C910D7059BE99A4007EC9BFCE99A12
:100BC700F90FD8E0E4C9FAE4CCFB2275F010EF2F57
:100BD700FFEE33FEED33FDCC33CCC833C810D70757
:100BE7009BEC9AE899400AED9BFDEC9AFCE899F892
:0E0BF7000FD5F0DAE4CDFBE4CCFAE4C8F92225
:0D0C0500CFF4CFCEF4CECDF4CDCCF4CC2284
:100C1200EB9FF5F0EA9E42F0E99D42F0E89C45F038
:010C220022AF
:100C2300E8600FECC313FCED13FDEE13FEEF13FFAF
:030C3300D8F122D3
:100C3600E8600FEFC333FFEE33FEED33FDEC33FC1C
:030C4600D8F122C0
:0C0C4900ECF0A3EDF0A3EEF0A3EFF0221E
:100C5500A8828583F0D083D082120C6C120C6C12A2
:100C65000C6C120C6CE473E493A3C583C5F0C583C7
:100C7500C8C582C8F0A3C583C5F0C583C8C582C8E9
:010C8500224C
:100C8600D083D082F8E4937012740193700DA3A3FD
:100C960093F8740193F5828883E473740293686011
:060CA600EFA3A3A380DF11
:100CAC00EC8EF0A4CCC5F0CCCDF8EFA4CEC5F02DD5
:100CBC00FDE43CFCE8A42EC8C5F03DFDE43CFCEF93
:0D0CCC00A4FFE5F028FEE43DFDE43CFC2221
:10077100E5082403F582E43460F583E0050822905E
:100781006000300703906003E475F001120D31023F
:100791000CD92000E97F2ED2008018EF540F24904D
:1007A100D43440D4FF30040BEF24BFB41A005003FB
:1007B1002461FFE50960021509050CE50C700205CD
:1007C1000B30070E906000E475F001120D31EF025D
:1007D1000D1F02168D7403D2078003E4C207F508CA
:1007E100906000120D48E4F509F50BF50CE5096080
:1007F100077F201207B480F5750AFFC201C200C24B
:1008010002C203C205C206C208120780FF700D3082
:1008110007057F001207C5AF0CAE0B22B4255FC2DE
:10082100D5C204120780FF24D0B40A00501A75F013
:100831000A780930D50508B6FF0106C6A426F620B8
:10084100D5047002D20380D924CFB41A00EF50042A
:10085100C2E5D2040209C6D20180C6D20080C0D24C
:100861000280BCD2D580BAD20580B47F201207B4F1
:100871002002077401B5090040F1120771FF120748
:10088100B40207EED208D2068095120771FB120757
:1008910071FA120771F94A4B700679977A0A7BFF50
:1008A10020022EE509602A7E008E82758300120CDB
:1008B100F260060EEE650A70F0C2D5EBC0E0EAC048
:1008C100E0E9C0E0EE120A0DD0E0F9D0E0FAD0E0A4
:1008D100FB120CD9FF60AAEBC0E0EAC0E0E9C0E07E
:1008E1001207B4D0E02401F9D0E03400FAD0E0FBE3
:1008F100E50A0460DCD50AD980877BFF7A0A790989
:10090100D202809C791080027908C206C208800850
:10091100D2D5790A8004790AC2D5E50A047002F5B4
:100921000AE4FAFDFEFF120771FC7B082001131295
:100931000771FD7B1030000A120771FE120771FF6B
:100941007B20EC3382D592D55013C3E43000069F4F
:10095100FFE49EFEE42001039DFDE49CFCE4CBF852
:10096100C201EC700CCFCECDCCE824F8F870F38046
:1009710017C3EF33FFEE33FEED33FDEC33FCEB3306
:10098100FB994002FB0FD8E9EB300105F8D0E0C438
:1009910048B201C0E00AEC4D4E4F78207B0070C296
:1009A100EAB50A0040BCC0E0120A0FD0F0D0E02046
:1009B1000104C4C0E0C4B201C0F012079DD0F0D55B
:1009C100F0EB0207EE120C86088B53090558085C00
:1009D1004C08584209094F0911440911490871434A
:0809E10009175508FB4608FB4D
:1009E9004508FB470AB75008602D08642E08872B75
:1009F9000868230885200AA02A0820480000087FE3
:100A09003F3F3F00790AA2D5200314300509B910E8
:100A1900020404B9080104A2D520060250010420E9
:100A290002689202B509005034C0E07F20300319F2
:100A39007F30A20272067205500F120A66C202C204
:100A490006C205C2087F30800F300503E9C0E012F5
:100A590007B4300503D0E0F9D0E0B509CC3005176B
:100A69007F30B9100C1207B47F583004077F7880A3
:100A790003B908031207B43002057F2D0207B47FBA
:100A8900202008F87F2B2006F322920280CF286EBF
:100A9900756C6C2900D2011207713001F8C2017816
:100AA9000930D50108F60208202D5043495812078C
:100AB900712403B405004001E4900AB2931207A51A
:0D0AC900743A1207A5D2037509040209054D
:100CD900BB010689828A83E0225002E722BBFE0219
:090CE900E32289828A83E493224C
:100CF200BB010CE58229F582E5833AF583E02250B7
:100D020006E92582F8E622BBFE06E92582F8E22200
:0D0D1200E58229F582E5833AF583E493221A
:100D1F00BB010689828A83F0225002F722BBFE01B3
:020D2F00F322AD
:100D3100F8E0FBA3A3E0F925F0F0E582158270024B
:070D41001583E0FA38F022EF
:090D4800EBF0A3EAF0A3E9F022AC
:00000001FF
