:03000000020CD11E
:0C0CD100787FE4F6D8FD75814A020D180A
:0C000300000000000000000000000000F1
:0B10EB00EF1FAC0670011E4C70F622D7
:10108400AB07AA06EB1BAE0270011A4E60097FAAD9
:081094007E051210EB80ED2235
:100B5500907120E04480F07F057E001210EBE4FFE9
:100B6500FE12108475A75575AC589071327450F00B
:100B75009071307403F0907136742FF07F18EF2464
:100B850066FDE434718D82F583E4F00FBF33EF9099
:100B95004011E4935407FF90711CE054F84FF09016
:100BA5004017E493547FFF90711DE054804FF090FF
:100BB5004010E493FF5401C43333335480FE9071E5
:100BC50023E0547F4EF0EFC313543F4440FFA3E0AE
:100BD50054804FF0904012E493FF540FFE907146FD
:100BE500E054F04EF0EFC4540FFF90714FE054F015
:100BF5004FF0904013E493543FFF907140E054C090
:100C05004FF0904014E493907126F0904015E493D2
:0D0C1500907128F0904016E49390712AF041
:010C220022AF
:040DDD00021C0000F4
:100F7D0078D3E24430F278E2E24430F2786AE24427
:100F8D0078F27591FF907123E054D8F0E04459F058
:0D0F9D009071227407F0439E70439940222A
:100FCF007869E254B7F2539940BF010543990E80F7
:100FDF0006BF02034399127869E24448F27F017E0B
:040FEF000002108468
:100A7B00E4FBF508F509F50DF50CF50BF50AF50E8C
:100A8B00F50F74FFF510F5117869E24401F2786BFC
:100A9B00E230E1FAAF93EF75F010A4FFE594C45484
:100AAB000FFDE5F0F508EF4DF5097402F2EBC39479
:100ABB0002403DD3E509950FE508950E40068508E4
:100ACB000E85090FC3E5099511E5089510500685AC
:100ADB000810850911AE08AF09E4FCFDE50D2FF5F3
:100AEB000DE50C3EF50CED350BF50BEC350AF50A67
:100AFB000BEB64147092AE0EAF0FAB07AA06C3E5F7
:100B0B000D9FF50DE50C9AF50CE50B9400F50BE537
:100B1B000A9400F50AAE10AF11AB07AA06C3E50D98
:100B2B009FF50DE50C9AF50CE50B9400F50BE50A1A
:100B3B009400F50AAF0DAE0CAD0BAC0A780412079E
:090B4B00238E088F09AE08AF09E2
:010B5400227E
:100DE100022E0000C10C012A00012B00C10D022CB2
:020DF100000000
:1010360043A820D2AF75D1017895E4F2187424F252
:0A104600789174A0F21874FDF222F4
:03001E0002037D5D
:10037D00C0E0C0F0C083C082C0D075D000C000C046
:10038D0001C002C003C004C005C006C0077891E2D9
:0A039D0020E7030205BBE24480F2F2
:1003A700D3E5239414E522940550080523E523702B
:1003B70002052230A345D20CD3E52394B0E522945D
:1003C7000450030204B9E4FFFEFDFCAB27AA26A9EB
:1003D70025A824120712601E200A1BAF27AE26ADE0
:1003E70025AC241207058F1E752700752600752575
:1003F70000752400D20AC2090204B9200C030204C2
:10040700B7D3E5239408E52294005005C2090204F6
:10041700B1D3E5239412E52294005017AF27AE26F7
:10042700AD25AC2478011207368F278E268D258CB3
:10043700248077D3E523941AE52294005029AF2727
:10044700AE26AD25AC2478011207368F278E268D70
:10045700258C24E5274401F527E526F526E525F52E
:1004670025E524F5248043D3E5239496E5229400DB
:100477004038D3E52394A4E52294015020200A2A8A
:10048700AF27AE26AD25AC241207058F1E752700B2
:10049700752600752500752400D20A800DD3E52343
:1004A70094B0E52294045002D20975220075230006
:0204B700C20C75
:1004B9000529E52970020528D39414E528940050EC
:1004C90025E53530E002D291E53530E102D292E5F9
:1004D9003530E202D293E53530E302D294E5353086
:1004E900E40ED295800AC291C292C293C294C29577
:1004F900C3E5299464E52894004006752800752908
:0105090000F1
:10050A00052AE52AC3940A50030205A1752A0005A3
:10051A002BE52B94C84066752B00E5476402705D95
:10052A00200D2EE54624FE60121460141460161481
:10053A006018240470174335018012433502800D78
:10054A0043350480084335088003433510D20D80B3
:10055A002CE54624FE601214601414601614601808
:10056A00240470175335FE80125335FD800D533520
:10057A00FB80085335F780035335EFC20D052FE58D
:10058A002F7002052EC39488E52E94134009752E08
:07059A0000752F00754901F7
:1005A100052DE52D7002052CC39410E52C942740F0
:0A05B10009752C00752D0075360148
:1005BB00D007D006D005D004D003D002D001D00094
:0B05CB00D0D0D082D083D0F0D0E0323E
:100F4E0078E3E254F3F2E24404F29071937410F0F9
:100F5E0075D10278A1740DF21874F2F278A37402AE
:0F0F6E00F2187482F2789D74A0F21874E2F222E5
:100FF3009071937410F075D10278A17401F2187492
:10100300C8F278A3E4F218F2789D74A0F21874E29F
:02101300F222C7
:100FAA009071937410F075D10278A1740DF21874CF
:100FBA00F2F278A37402F2187482F2789D74A0F2A5
:050FCA001874FEF22284
:0E10C300789CE254FCF2907193E4F0C2A522F6
:081101008FD7E5D430E4FB2296
:1010500078C2E254CFF2E24410F29071807404F04E
:0A10600075D60175D59F75D21022D8
:100EE20078E3E254FCF2E24401F2907192740FF062
:100EF20075D1049071057401F09071047476F090CC
:100F02007107E4F090710674BBF090710174A0F067
:070F120090710074FEF02253
:0D10D100907192740FF090710074FEF02287
:0F000F00907100E054FCF0907192E4F0C2A422D2
:100EAA008F087E007C017D7612076FE47BFFFAF9DA
:100EBA00F81206737808120723907107EFF0AF084B
:100ECA007E007C017D7612076FE47BFFFAF9F81247
:080EDA000673907106EFF0228F
:0B10F6007379732072657365740A0043
:100DF30001340001350001330001300001360002E7
:030E0300310000BB
:100E290078D2E254F3F2E24404F2907187E4F0C21A
:100E390091E254CFF2E24410F2A3E4F0C292E254F8
:100E49003FF2E24440F2A3E4F0C29308E254FCF218
:100E5900E24401F2A3E4F0C294E254F3F2E244045E
:070E6900F2A3E4F0C29522A0
:100D5D0075D9DD120B5575D95590715EE054FEF0C5
:100D6D0075D9BB121050121036120F4E1210C3123D
:100D7D000EE212000F120E2978E2E2543FF278E0F3
:100D8D00E24408F2120F7D7BFF7A1079F612008390
:100D9D004335017FE87E03121084754701754605C2
:100DAD007548037F02120FCF120A7B8E378F3812D0
:100DBD000C23120997E533D3953040041533800980
:100DCD00E533C3953050020533AF33120EAA80D3ED
:0D10DE00E5F430E4FB8FF7E5F430E4FB228D
:10106A0078E3E254F3F2E24404F29071937404F0E8
:0A107A0075D60175D59F75D21022BE
:100E700064697361626C65206368617267650A000A
:100E80006C6F7720666571206368617267650A0020
:100E90006375722070776D2070657263656E742063
:0A0EA0003A20256C752025250A0074
:0D0E060001450001440001430002410000CD
:100804007F01120FCF120A7B8E398F3A7F02120FAB
:10081400CF120A7B8E3B8F3CE545702AD3E53A9490
:10082400E8E53994025003754401C3E53A9490E530
:100834003994035003020996E5447003020996E4CF
:06084400F5447545012298
:10084A00D3E53A94E8E5399402400AE53C9466E532
:10085A003B940E40101210C3E4F545F5437BFF7A32
:10086A000E79708053D3E53C9466E53B940B4015B2
:10087A00E53C9433E53B940E500BC3E53A94A2E56C
:10088A003994035036E54364017003020996E4750E
:10089A004004F53FF53EF53DAF40AE3FAD3EAC3DC1
:1008AA00780812072378A3EFF2E540FF18EFF275F4
:1008BA0043017BFF7A0E7980020083E5436402607C
:1008CA0006120FF3754302E54364026003020996B8
:1008DA00AE39AF3AFCFD7B367AA37902F81205E805
:1008EA00E4FB7A10F9F8120673A804A905AA06C34C
:1008FA00747E9FF54074E59AF53F740199F53EE4DC
:03090A0098F53D20
:10090D000542E54270020541C39464E541940040FF
:10091D0027E4F541F5427BE87A03F9F8AF40AE3FA5
:10092D00AD3EAC3D1206738F0E8E0D8D0C8C0B7B78
:08093D00FF7A0E79901200838D
:10094500E47FC87E01FDFCAB40AA3FA93EA83D124D
:1009550005E8E47BE87A03F9F8120673E47B64FAA8
:10096500F9F81206738F408E3F8D3E8C3DEF4E7029
:1009750009754001F53FF53EF53DAF40AE3FAD3E53
:10098500AC3D780812072378A3EFF2E540FF18EF96
:01099500F26F
:01099600223E
:090E1300011E00C109C10AC10B56
:10109C00E4F52EF52F5335FE5335FD5335FB533503
:0510AC00F75335EF22AF
:1010B100300B0EBF02048D4680028D488F471210FF
:0210C1009C226F
:100C2300200A03020CD0C20AE51E1207490C69020E
:100C33000C8B180CBF220C85300C9A620C7F680C4D
:100C43006D900C79980C58A20C71A80C75E00C925D
:100C5300E200000CD0200B7512109C0547E547D32A
:100C63009403406980527D01800E7D02800A7D03DA
:100C730080067D0480027D057F0280107D017F0355
:100C8300800A7D027F0380047D037F030210B1D2BB
:100C93000B75470202109CE54624FC6005146007AF
:100CA3008008753091800375307E853033AF331201
:100CB3000EAA1210151210D175470122E530D394F4
:0E0CC30000400A121015E4F530F533F5472213
:0C0E1C00014A050146050148010149009A
:10099700E547700302109CE54764016003020A46BD
:1009A700433501D3E53894CCE537940C4009E54A43
:1009B70094054003754A05C3E53894CCE537940C94
:1009C700500AE54AC394044003754A04C3E53894C2
:1009D70033E537940C500AE54AC394034003754A3C
:1009E70003C3E5389466E537940B500AE54AC39488
:1009F700024003754A02C3E5389499E537940A50D3
:100A070003754A01E54AC394054005433510800341
:100A17005335EFE54AC39404400543350880035333
:100A270035F7E54AC394034005433504800353353E
:100A3700FBE54AC394024002801C5335FD801FE545
:100A470047B4031AE54824FE600C14600E240270B4
:100A57000D43350180084335028003433504E549DA
:100A67006011E4F549E53360057547018003E4F556
:040A770047C20B2245
:10101500E4F5081210D17FA17E0012108412000F92
:101025007FA17E001210840508E508C3940340E300
:011035002298
:100F1900E536600BE4F5360532E53270020531E558
:040F290048B40120A7
:100F2D00E51F2401FFE433FE7C047DB01205D6C31A
:100F3D00E5329FE5319E4008051F74E72530F530F9
:010F4D002281
:100CDD00020D5DE493A3F8E493A34003F68001F2C3
:100CED0008DFF48029E493A3F85407240CC8C33318
:100CFD00C4540F4420C8834004F456800146F6DFE7
:100D0D00E4800B0102040810204080900DDDE47E8C
:100D1D00019360BCA3FF543F30E509541FFEE493DB
:100D2D00A360010ECF54C025E060A840B8E493A3A2
:100D3D00FAE493A3F8E493A3C8C582C8CAC583CACD
:100D4D00F0A3C8C582C8CAC583CADFE9DEE780BE85
:010E280000C9
:1005D600EF8DF0A4A8F0CF8CF0A428CE8DF0A42E39
:0205E600FE22F3
:1005E800E88FF0A4CC8BF0A42CFCE98EF0A42CFCB2
:1005F8008AF0EDA42CFCEA8EF0A4CDA8F08BF0A430
:100608002DCC3825F0FDE98FF0A42CCD35F0FCEB8E
:100618008EF0A4FEA9F0EB8FF0A4CFC5F02ECD3953
:0F062800FEE43CFCEAA42DCE35F0FDE43CFC22C0
:1006370075F008758200EF2FFFEE33FECD33CDCC7A
:1006470033CCC58233C5829BED9AEC99E5829840FD
:100657000CF582EE9BFEED9AFDEC99FC0FD5F0D6DA
:10066700E4CEFBE4CDFAE4CCF9A88222B800C1B904
:100677000059BA002DEC8BF084CFCECDFCE5F0CB42
:10068700F97818EF2FFFEE33FEED33FDEC33FCEB7B
:1006970033FB10D703994004EB99FB0FD8E5E4F936
:1006A700FA227818EF2FFFEE33FEED33FDEC33FC23
:1006B700C933C910D7059BE99A4007EC9BFCE99A17
:1006C700F90FD8E0E4C9FAE4CCFB2275F010EF2F5C
:1006D700FFEE33FEED33FDCC33CCC833C810D7075C
:1006E7009BEC9AE899400AED9BFDEC9AFCE899F897
:0E06F7000FD5F0DAE4CDFBE4CCFAE4C8F9222A
:0D070500CFF4CFCEF4CECDF4CDCCF4CC2289
:10071200EB9FF5F0EA9E42F0E99D42F0E89C45F03D
:0107220022B4
:10072300E8600FECC313FCED13FDEE13FEEF13FFB4
:03073300D8F122D8
:10073600E8600FEFC333FFEE33FEED33FDEC33FC21
:03074600D8F122C5
:10074900D083D082F8E4937012740193700DA3A33F
:1007590093F8740193F5828883E473740293686053
:06076900EFA3A3A380DF53
:10076F00EC8EF0A4CCC5F0CCCDF8EFA4CEC5F02D17
:10077F00FDE43CFCE8A42EC8C5F03DFDE43CFCEFD5
:0D078F00A4FFE5F028FEE43DFDE43CFC2263
:10002100E517240BF8E60517227808300702780B4C
:10003100E475F0011207F402079C2000EB7F2ED239
:10004100008018EF540F2490D43440D4FF30040BB7
:10005100EF24BFB41A0050032461FFE518600215B4
:1000610018051BE51B7002051A30070D7808E475A9
:10007100F0011207F4EF0207E20211017403D20743
:100081008003E4C207F5178B088A09890AE4F51889
:10009100F51AF51BE51860077F2012005C80F575E5
:1000A10019FFC201C200C202C203C205C206C208D0
:1000B10012002AFF700D3007057F0012006DAF1B83
:1000C100AE1A22B4255FC2D5C20412002AFF24D081
:1000D100B40A00501A75F00A781830D50508B6FF31
:1000E1000106C6A426F620D5047002D20380D924C5
:1000F100CFB41A00EF5004C2E5D20402026DD2015E
:1001010080C6D20080C0D20280BCD2D580BAD205CE
:1001110080B47F2012005C2002077401B5180040F2
:10012100F1120021FF12005C020095D208D2068074
:1001310095120021FB120021FA120021F94A4B709D
:1001410006793E7A037BFF20022EE518602A7E00A5
:100151008E827583001207B560060EEE651970F088
:10016100C2D5EBC0E0EAC0E0E9C0E0EE1202B4D0D3
:10017100E0F9D0E0FAD0E0FB12079CFF60AAEBC0E7
:10018100E0EAC0E0E9C0E012005CD0E02401F9D06F
:10019100E03400FAD0E0FBE5190460DCD519D98020
:1001A100877BFF7A0279B0D202809C791080027934
:1001B10008C206C2088008D2D5790A8004790AC229
:1001C100D5E519047002F519E4FAFDFEFF120021CC
:1001D100FC7B08200113120021FD7B1030000A1264
:1001E1000021FE120021FF7B20EC3382D592D550F5
:1001F10013C3E43000069FFFE49EFEE42001039D4B
:10020100FDE49CFCE4CBF8C201EC700CCFCECDCC6C
:10021100E824F8F870F38017C3EF33FFEE33FEEDF7
:1002210033FDEC33FCEB33FB994002FB0FD8E9EBD8
:10023100300105F8D0E0C448B201C0E00AEC4D4EEF
:100241004F78207B0070C2EAB5190040BCC0E012B3
:1002510002B6D0F0D0E0200104C4C0E0C4B201C0B5
:10026100F0120045D0F0D5F0EB02009512074901DC
:10027100325301AC5801034C00FF4201B04F01B8A9
:0F0281004401B84901184301BE5501A24601A22C
:100290004501A247035E5001072D010B2E012E2BB5
:1002A000010F23012C2003472A00C7480000012624
:1002B0003F3F3F00790AA2D5200314300509B91049
:1002C000020404B9080104A2D5200602500104204A
:1002D00002689202B518005034C0E07F2030031944
:1002E0007F30A20272067205500F12030DC202C2C5
:1002F00006C205C2087F30800F300503E9C0E01256
:10030000005C300503D0E0F9D0E0B518CC3005171B
:100310007F30B9100C12005C7F583004077F788062
:1003200003B9080312005C3002057F2D02005C7FD8
:10033000202008F87F2B2006F322920280CF286E1F
:10034000756C6C2900D2011200213001F8C20178CD
:100350001830D50108F60200C72D50434958120045
:10036000212403B405004001E49003599312004D89
:0D037000743A12004DD2037518040201AC5E
:10079C00BB010689828A83E0225002E722BBFE025B
:0907AC00E32289828A83E493228E
:1007B500BB010CE58229F582E5833AF583E02250F9
:1007C50006E92582F8E622BBFE06E92582F8E22243
:0D07D500E58229F582E5833AF583E493225D
:1007E200BB010689828A83F0225002F722BBFE01F6
:0207F200F322F0
:1007F400FAE6FB0808E6F925F0F618E6CA3AF62206
:00000001FF
