:03000000021BF7E9
:0C1BF700787FE4F6D8FD758122021C3EC8
:0C000300000000000000000000000000F1
:0B203500EF1FAC0670011E4C70F6227D
:101F4F00AB07AA06EB1BAE0270011A4E60097FAAFF
:081F5F007E0512203580ED2201
:101B2800907120E04480F07F057E00122035E4FFAC
:101B3800FE121F4F75A75575AC589071327450F04E
:101B48009071307403F0907136742FF07F18EF2481
:101B580066FDE434718D82F583E4F00FEFB433EE63
:101B6800904011E4935407FF90711CE054F84FF033
:101B7800904017E493547FFF90711DE054804FF01C
:101B8800904010E493FF5401C43333335480FE90E3
:101B98007123E0547F4EF0EFC313543F4440FFA33A
:101BA800E054804FF0904012E493FF540FFE907180
:101BB80046E054F04EF0EFC4540FFF90714FE054DC
:101BC800F04FF0904013E493543FFF907140E0547D
:101BD800C04FF0904014E493907126F0904015E4C3
:0E1BE80093907128F0904016E49390712AF0CB
:011BF60022CC
:051A4B0042609600005E
:101DD10078D3E24430F278E2E24430F278F2E2443D
:101DE1000CF2786AE24478F27591FF907123E05425
:101DF100D8F0E04459F09071227407F0439E70438B
:031E0100994022E3
:101E5900907123E054D8F0EF7006E04459F0800BFC
:101E6900EFB40107907123E0445BF07869E24448DC
:081E7900F27F017E00021F4F01
:101E3000539940EFB4010543990E8010EFB40205A9
:101E40004399128007EFB403034399197869E24478
:091E500048F27F017E00021F4FE1
:1017C100E4906062F0A3F0A3F09060651212C8008B
:1017D100000000E4906069F0A3F074FF90606BF08A
:1017E100A3F0E4906062F07869E24401F2786BE280
:1017F10030E1FAAF93EF75F010A4FFE594C4540FF4
:10180100FDEF4DFF906063E5F0F0A3EFF07402F29D
:10181100906062E0C39402406D906069E0FEA3E0D5
:10182100FFD3906064E09F906063E09E400CE0FF16
:10183100A3E0906069CFF0A3EFF090606BE0FEA3AE
:10184100E0FFC3906064E09F906063E09E500CE015
:10185100FFA3E090606BCFF0A3EFF0906065E0F83C
:10186100A3E0F9A3E0FAA3E0FB906063E0FEA3E04C
:10187100FFE4FCFDEB2FFFEA3EFEED39FDEC38FC09
:101881009060651212BC906062E004F0E064146044
:10189100030217E8906065E0FCA3E0FDA3E0FEA36E
:1018A100E0FFC006C007906069E0FEA3E0FBAA0666
:1018B100D007D006C3EF9BFFEE9AFEED9400FDEC3E
:1018C1009400FC9060651212BC906065E0FCA3E09E
:1018D100FDA3E0FEA3E0FFC006C00790606BE0FE41
:1018E100A3E0FBAA06D007D006C3EF9BFFEE9AFE4A
:1018F100ED9400FDEC9400FC9060651212BC9060C8
:1019010065E0FCA3E0FDA3E0FEA3E0FF7804121272
:1019110096906063EEF0A3EFF0906063E0FEA3E0C9
:01192100FFC6
:0119220022A2
:101F7F00E4FF121E597F02121E301217C190603BF0
:061F8F00EEF0A3EFF022CA
:101FC000121E597F01121E301217C1906054EEF09C
:041FD000A3EFF02269
:101F95007F01121E597F03121E301217C190601166
:061FA500EEF0A3EFF022B4
:101A5000C1134160920041608700C1144160880059
:101A6000426089000041608B0042608C000044604D
:0E1A70008E000000004260930000416095006F
:101F010043A820D2AF75D1017895E4F2187424F278
:0A1F1100789174A0F21874FDF2221A
:03001E00020021BC
:10002100C0E0C0F0C083C082C0D075D000C000C0A5
:1000310001C002C003C004C005C006C0077891E238
:0A00410020E7030205B9E24480F253
:10004B00D3906080E0941490607FE09405500CA3F3
:10005B00E004F0700690607FE004F030A356D213FA
:10006B00D3906080E094B090607FE09404500302E2
:10007B00019BE4FFFEFDFC906081E0F8A3E0F9A397
:10008B00E0FAA3E0FB12128560252002229060812A
:10009B00E0FCA3E0FDA3E0FEA3E0FF12127890606A
:1000AB0035EFF09060811212C800000000D202C23E
:1000BB000002019B201303020199D3906080E0940E
:1000CB000890607FE094005005C200020192D3902B
:1000DB006080E0941290607FE094005015906081F6
:1000EB00E0FCA3E0FDA3E0FEA3E0FF78011212A960
:1000FB008039D3906080E0941A90607FE094005038
:10010B0032906081E0FCA3E0FDA3E0FEA3E0FF786A
:10011B00011212A99060811212BC906081E0FCA3C5
:10012B00E0FDA3E0FEA3E04401FFEC90608112121E
:10013B00BC8054D3906080E0949690607FE09400F4
:10014B004045D3A3E094A490607FE0940150272016
:10015B000235906081E0FCA3E0FDA3E0FEA3E0FF8D
:10016B00121278906035EFF09060811212C8000087
:10017B000000D2028011D3906080E094B090607F39
:10018B00E094045002D20090607FE4F0A3F0C2131D
:10019B00906086E004F07006906085E004F090605B
:1001AB0085E0FEA3E0FFD39414EE9400502F9060F3
:1001BB002FE030E002D29190602FE030E102D2923A
:1001CB0090602FE030E202D29390602FE030E30298
:1001DB00D29490602FE030E40ED295800AC291C287
:1001EB0092C293C294C295C3EF9464EE94004007FD
:0701FB00906085E4F0A3F021
:10020200906092E004F0E0C3940A50030204E7E431
:01021200F0FB
:10021300906087E004F0E094C8500302035FE4F0C9
:1002230090604FE064046008E0640860030202C069
:1002330020144590600FE024FE601614601C1460C7
:10024300221460282404702B90602FE04401F08076
:100253002290602FE04402F0801990602FE0440464
:10026300F0801090602FE04408F0800790602FE04A
:100273004410F0D21402035F90600FE024FE601676
:1002830014601C1460221460282404702B90602FC7
:10029300E054FEF0802290602FE054FDF08019902E
:1002A300602FE054FBF0801090602FE054F7F08053
:1002B3000790602FE054EFF0C21402035F90604F89
:1002C300E06403702B90602FE02014124401F0E0EF
:1002D3004402F0E04404F0E04408F0E0807254FE8D
:1002E300F0E054FDF0E054FBF0E054F7F0E08067F9
:1002F30090604FE064027064906018E0D394025001
:100303000F90602FE02014044402804654FD80497E
:10031300906018E0D39403500F90602FE0201404F2
:100323004404802E54FB8031906018E0D394045031
:100333000F90602FE02014044408801654F78019AE
:10034300906018E0D39405501390602FE0201407B9
:0C0353004410F0D214800554EFF0C214E6
:10035F00300926906052E004F07006906051E0047E
:10036F00F0C3906052E09488906051E0941340097C
:09037F00E4F0A3F090602B04F0FF
:10038800906088E004F0E0C394C84007E4F090600F
:030398000004F06E
:10039B00906010E0B4013690608AE004F070069033
:1003AB006089E004F0C390608AE094F0906089E08B
:1003BB0094555005121FF5801BD390608AE0942C46
:1003CB00906089E094565005121FE7800790608972
:0403DB00E4F0A3F0B7
:1003DF00906053E06011906013E090608BF0A3E4A5
:1003EF00F0A3F0906053F090608BE0607190608D9F
:1003FF00E004F0700690608CE004F0C390608DE034
:10040F0094A190608CE09400501090604FE0604B8E
:10041F00E064026046200443803CC390608DE0940A
:10042F004290608CE09401501290604FE0600AE0BF
:10043F00640260052004028022801B90608CE4F02F
:10044F00A3F090608BE014F090604FE0600DE064DB
:0E045F00026008200405122002800312000F24
:10046D00300823906037E004F07006906036E004A9
:10047D00F0C3906037E09488906036E094134006A6
:06048D00E4F0A3F0D2032D
:1004930030014590608EE0FCA3E0FDA3E0FEA3E005
:1004A3002401FFE43EFEE43DFDE43CFC90608E123B
:1004B30012BC906031E0FCA3E0FDA3E0FEA3E0FFEB
:1004C30090608EE0F8A3E0F9A3E0FAA3E0FBC31287
:1004D30012854010D207800C90608E1212C8000063
:0404E3000000C2074C
:1004E700906004E0706190604FE0605B906094E022
:1004F70004F07006906093E004F0C3906094E09479
:1005070010906093E094274045E4F0A3F074FFFF58
:10051700FEFDFC906014E0F8A3E0F9A3E0FAA3E085
:10052700FB1212855028906014E0FCA3E0FDA3E0C5
:10053700FEA3E02401FFE43EFEE43DFDE43CFC9025
:0E05470060141212BC8007906093E4F0A3F0E1
:10055500300561906095E004F0E0C394644055E493
:10056500F0906001E0FEA3E0FFD390602DE09F9046
:10057500602CE09E400EA3E024FFF090602CE03458
:10058500FFF08025906001E0FEA3E0FFC390602DA1
:10059500E09F90602CE09E500EA3E004F0700A905E
:1005A500602CE004F08002C20590602CE0FEA3E020
:0405B500FF12200F02
:1005B900D007D006D005D004D003D002D001D00096
:0B05C900D0D0D082D083D0F0D0E03240
:101E040078E3E254F3F2E24404F29071937410F034
:101E140075D10278A17409F218745FF278A3E4F220
:0C1E240018F2789D74A0F21874E2F2220B
:101EA6009071937410F075D10278A17401F21874D0
:101EB600CBF278A3E4F218F2789D74A0F21874E2DB
:021EC600F22206
:101E81009071937410F075D10278A17409F21874ED
:101E91005FF278A37401F21874AFF2789D74A0F226
:051EA1001874E2F222BA
:08205400E478A3F2EF18F22278
:0D1FF5009071937410F0789CE24402F22287
:0E1FE700789CE254FCF2907193E4F0C2A522C3
:08205C008FD7E5D430E4FB222C
:101F1B0078C2E254CFF2E24410F29071807404F074
:0A1F2B0075D60175D59F75D21022FE
:101D9A0078E3E254FCF2E24401F2907192740FF09B
:101DAA0075D1049071057401F09071047476F09005
:101DBA007107E4F090710674BBF090710174A0F0A1
:071DCA0090710074FEF0228D
:0D200200907192740FF090710074FEF02246
:0F000F00907100E054FCF0907192E4F0C2A422D2
:0D200F00AC06EC907107F0EF907106F02226
:0B2040007379732072657365740A00E9
:101A7E0041602E0041602F0041603500C100C1025F
:101A8E00416000004160100041600400C1094160E6
:101A9E002B004260510000C108C1034260360000B5
:101AAE00C106446014000000004160030142602C36
:101ABE0000004160380041603900416053004160D0
:101ACE001300C104C1054260010000C10144603130
:101ADE0000000000C10752603D0138011300EE0006
:101AEE00C900A3007E005900340011526019001184
:101AFE000037005C008100A600CC00F5011601380D
:0D1B0E004A60050138011500F100D500BA4C
:101CD60078D2E254F3F2E24404F2907187E4F0C25F
:101CE60091E254CFF2E24410F2A3E4F0C292E2543D
:101CF6003FF2E24440F2A3E4F0C29308E254FCF25D
:101D0600E24401F2A3E4F0C294E254F3F2E24404A2
:071D1600F2A3E4F0C29522E4
:101FD4009060037401F090600F7405F09060507489
:031FE40002F022E6
:1019230075D9DD121B2875D95590715EE054FEF010
:1019330075D9BB121F1B121C83121F01121E041226
:101943001FE7121D9A12000F121CD678E2E2543FD1
:10195300F278E0E24408F2121DD17BFF7A2079404D
:10196300120E4F121FD4121D61121FAB7F011220E2
:101973004B120A7B1205D4906004E0601790604F0D
:10198300E06402600AC201121EE67F0212204B12BB
:10199300000F803890604FE0B40231121EE67F01E1
:1019A30012204B90600FE025E02403F582E43460BD
:1019B300F583E0FFA3E090602CCFF0A3EFF09060FD
:1019C3002CE0FEA3E0FF12200F122002300715C205
:1019D30007C201121EE6E490604FF090602CF0A362
:1019E300F012000F121F7F1213C412162790600407
:1019F300E0700F12207012207612207C12206702F2
:101A03001974906004E0B4020F12206A1220761257
:101A1300207C12206D021974906004E0B4030F124D
:101A2300206A12207012207C1220730219749060B5
:101A330004E06404600302197412206A1220701215
:081A43002076122079021974CB
:0D201C00E5F430E4FB8FF7E5F430E4FB223F
:101F350078E3E254F3F2E24404F29071937404F00E
:0A1F450075D60175D59F75D21022E4
:081B1B0041609800416099004F
:090A7B00906000E07003020DE33D
:100A8400E4906056F0A3F0A3F0A3F0A31212C80000
:100A9400000000E490605EF0A3F0A3F0A3F0906087
:100AA40000F0906004E07020FF121FC0C3906055F6
:100AB400E09490906054E0940340069060047401C4
:100AC400F0906004E07069227F01121E597F0112C8
:100AD4001E301217C1906054EEF0A3EFF0C3906083
:100AE40055E09493906054E0940D4009E490605E66
:100AF400F0A3020DD3D3906055E094F0906054E0DD
:100B040094015021E490605EF0A3F090605EE0FCFC
:100B1400A3E0FDEC78A3F2ED18F2121FE7E4906075
:100B240004F0020C2F906004E064047003020DE3EF
:100B3400121F7F906004E064017043D390603CE036
:100B440094CC90603BE0940A502E906010E06401D5
:100B54007003020DE390605E7401F0A37437F090AB
:100B6400605EE0FCA3E0FDEC78A3F2ED18F2121E47
:100B7400819060107401F0229060047402F0C390BC
:100B8400603CE0944790603BE0940E405F906004CA
:100B9400E064036057906099E004F0906098E0D3BB
:100BA40094054004E024FEF0906099E0C394FA4078
:100BB40040E4F09060987405F0E0FF7E007C017DD5
:100BC400CB12131FE47B64FAF9F81211E690605E0D
:100BD400EEF0A3EFF090605EE0FCA3E0FDEC78A300
:100BE400F2ED18F29060047403F08005E4906099CB
:100BF400F0906004E064037037C390603CE0949923
:100C040090603BE0940E5003020DE3E490605EF0CC
:100C1400A3F090605EE0FCA3E0FDEC78A3F2ED1895
:100C2400F2121FE79060047404F0E4906010F02264
:100C3400906004E064026003020DE3906010E064DD
:100C440002602190605EE4F0A37408F090605EE0BE
:100C5400FCA3E0FDEC78A3F2ED18F2121EA690605E
:100C6400107402F0121F7FC390603CE094339060D4
:100C74003BE0940E400C9060607413F0A37488F011
:100C84008022C390603CE0949990603BE0940D9086
:100C9400606040097433F0A374C2F080077467F095
:100CA400A37484F0121F95906011E0FEA3E0FFE4AA
:100CB400FCFD7BC07A277909F812115BE4FB7A10FA
:100CC400F9F81211E6E47B4CFAF9F81211E6906097
:100CD40056EEF0A3EFF090603BE0FEA3E0FF7C0F44
:100CE4007DA012131FE4FB7A10F9F81211E690604C
:100CF40058EEF0A3EFF0C3906012E094FF906011FF
:100D0400E0940F400F906098E0D394005003020DDC
:100D1400B5020DB2906060E064677004A3E064847F
:100D24006014C3906057E0947C906056E094075040
:100D340005E4F0A304F0906058E0FEA3E0FF9060A7
:100D440056E0FCA3E0FD12131FE47BE87A03F9F8F4
:100D54001211E690605A1212BC906060E0FEA3E0AB
:100D6400FFE4FCFD90605AE0F8A3E0F9A3E0FAA3E5
:100D7400E0FBC3121285500E906098E0C394645057
:100D840030E004F0802B906060E0FEA3E0FFE4FC20
:100D9400FD90605AE0F8A3E0F9A3E0FAA3E0FBD3E6
:100DA400121285400C906098E0D394084003E0143C
:100DB400F0906098E0FF7E007C017DCB12131FE46D
:100DC4007B64FAF9F81211E690605EEEF0A3EFF09E
:0F0DD40090605EE0FCA3E0FDEC78A3F2ED18F276
:010DE30022ED
:101EC80033482070726573730A0035482070726554
:0E1ED80073730A0038482070726573730A0035
:041B230041609A0083
:1005D400906004E0600AC202C200E490609AF022D3
:1005E4002002030209BDC202906035E090609AF0D7
:1005F400906035E01212F906670208731809212287
:10060400086730090062081A68066E9007CB9806DE
:1006140029A206D0A8098CB0095FC20726E008C049
:10062400E2000009BD300903020A7A121EE6D2086C
:1006340090604FE07002D20690604FE0C394065081
:1006440002801890604FE0B401057408F0800F90A8
:10065400604FE004F0E0D3940940037407F0C2054E
:100664000209BD7D017F0402086BC2057D027F047F
:09067400121D1D3009030209BD2D
:10067D00E4906056F0906056E0FFC394085026EF6A
:10068D0025E0243DF582E43460F583E0FEA3E0FF30
:10069D00D390602DE09F90602CE09E5008906056A6
:1006AD00E004F080D0906056E025E0243DF582E432
:1006BD003460F583E0FFA3E090602CCFF0A3EFF062
:1006CD000207BDC2057D037F04121D1D3009030203
:1006DD0009BD3008030209BD90604FE070030209A7
:1006ED00BD90600FE025E02403F582E43460F583CE
:1006FD00E0FFA3E090602CCFF0A3EFF090603112FB
:10070D0012C800000BB8D2017F031220297BFF7A9B
:10071D001E79C8120E4F0209BD7D047F04121D1DE6
:06072D003009030209BDC2
:10073300E4906056F0906056E0FFC394085026EFB3
:1007430025E02419F582E43460F583E0FEA3E0FF9D
:10075300C390602DE09F90602CE09E40089060560F
:10076300E004F080D090600FE025E02403F582E4FC
:100773003460F583E0FEA3E0FF906056E025E024BB
:1007830019F582E43460F583E0FCA3E0FDD39FEC2C
:100793009E401D90600FE025E02403F582E4346061
:1007A300F583E0FFA3E090602CCFF0A3EFF0800887
:1007B30090602CECF0A3EDF0C20590602CE0FEA35A
:0507C300E0FF12200F11
:1007C8000209BD7D057F04121D1D20094020083D3A
:1007D80090604FE06037C20190600FE025E024038D
:1007E800F582E43460F583E0FFA3E090602CCFF05D
:1007F800A3EFF09060141212C80000000090602C63
:10080800E0FEA3E0FF12200F7F03122029C2050299
:1008180009BD7D017F05121D1D20093E20083B9062
:10082800604FE0603590600FE025E02403F582E436
:100838003460F583E0FFA3E090602CCFF0A3EFF0E5
:100848009060311212C800001388D2017F03122071
:10085800297BFF7A1E79D2120E4FC2050209BD7D8F
:10086800027F05121D1DC2050209BD7D037F051209
:100878001D1D20093E20083B90604FE060359060C8
:100888000FE025E02403F582E43460F583E0FFA35C
:10089800E090602CCFF0A3EFF09060311212C80006
:1008A800001F40D2017F031220297BFF7A1E79DCCA
:1008B800120E4FC2050209BDC2053009030209BD67
:1008C800121EE690604FE0701FD204D20690600FAF
:1008D800E025E02403F582E43460F583E0FFA3E03B
:1008E80090602CCFF0A3EFF090604F7403F0D20922
:1008F80090600FE0FF0209BA3009030209BD300811
:10090800030209BDC201121EE6C20690604F7401BF
:10091800F0C205121D610209BD3009030209BD308C
:1009280008030209BD90604FE070030209BDC205CB
:10093800C201D390602DE0940090602CE0940040B8
:1009480074121EE6E490604FF07F02122029E490B2
:10095800602CF0A3F0805E20095B20085890604F5F
:10096800E06052C20590600FE025E02403F582E4C0
:100978003460F583E0FFA3E090602CCFF0A3EFF0A4
:100988007F03802E20092E20082B90604FE06025E1
:10099800C20590600FE025E02403F582E43460F599
:1009A80083E0C313FFA3E01390602CCFF0A3EFF014
:1009B8007F03122029200003020A7AC200D3906024
:1009C8002DE0940090602CE094005003020A7AE035
:1009D800FFA3E0906001CFF0A3EFF090609AE0FFF2
:1009E80064E0705590600FE025E02403F582E4345C
:1009F80060F583E0FCA3E024F7FDEC34FFFCC39032
:100A0800602DE09D90602CE09C5010906002E024E6
:100A180009F0906001E03400F0801B90600FE02541
:100A2800E02403F582E43460F583E0FDA3E0906000
:100A380001CDF0A3EDF0D20522EFB4903590604DD2
:100A4800E0FEA3E0FF2409FDE43EFCD390602DE026
:100A58009D90602CE09C4010906002E024F7F0909C
:100A68006001E034FFF08008906001EEF0A3EFF041
:020A7800D205A5
:010A7A002259
:101FAB00121F67E4906030F0906018F0906051F071
:051FBB00A3F0C20822A2
:101F670090602FE054FEF0E054FDF0E054FBF0E009
:081F770054F7F0E054EFF022F2
:101EE600121F67C209E490602BF0906051F0A3F0D6
:0B1EF600C208C203906036F0A3F02287
:09204B00121F6790604FEFF022B4
:101D1D00300940EFB4041F90600FEDF0E025E02492
:101D2D0003F582E43460F583E0FBA3E090602CCBF7
:101D3D00F0A3EBF08005906050EDF090604FEFF068
:101D4D00121F67E490602BF0906051F0A3F0AF0587
:041D5D001220292205
:1013C40090604FE064016008E0640760030214B3B6
:1013D40090602FE04401F0D390603CE094CC9060A6
:1013E4003BE0940C400890603A7405F08048D39038
:1013F400603CE0943390603BE0940C400890603A89
:101404007404F08031D390603CE0946690603BE0DB
:10141400940B400890603A7403F0801AD390603CB7
:10142400E0949990603BE0940A90603A400574021D
:10143400F080037401F0906030E0700A90603AE04C
:10144400906030F08015906030E0FF90603AE0D317
:101454009F4008906030E090603AF090603AE0C3BA
:10146400940590602FE040054410F0800354EFF0A1
:1014740090603AE0C3940490602FE040054408F083
:10148400800354F7F090603AE0C3940390602FE037
:1014940040054404F0800354FBF090603AE0C394A8
:1014A4000290602FE04002803354FDF00215E79073
:1014B400604FE064056005E064097030906050E0BE
:1014C40024FE601414601B240260030215E790607C
:1014D4002FE04401F00215E790602FE04402F0028F
:1014E40015E790602FE04404F00215E790604FE0A8
:1014F400640260030215E790602FE04401F0D3908A
:10150400603CE094CC90603BE0940C400890603ADE
:101514007405F08048D390603CE0943390603BE0E5
:10152400940C400890603A7404F08031D390603C8D
:10153400E0946690603BE0940B400890603A74033A
:10154400F0801AD390603CE0949990603BE0940A58
:1015540090603A40057402F080037401F0906004D6
:10156400E064036004E0B4040690603A7406F0900A
:101574006030E0700A90603AE0906030F08015903E
:101584006030E0FF90603AE0C39F5008906030E024
:1015940090603AF090603AE0906018F07F017E002D
:1015A400121F4F90603AE0C39403400790602FE00D
:1015B4004402F090603AE0C39404400790602FE046
:1015C4004404F090603AE0C39405400790602FE033
:1015D4004408F090603AE0C39406400790602FE01E
:1015E4004410F090602BE06017E4F0C209C20430AC
:1015F4000608C20690604FF0800690604F7401F0B8
:10160400300316C203C208300609C206E490604FD4
:10161400F0800690604F7401F090604FE070031208
:031624001F67221B
:0C202900906013EFF09060537401F022FF
:101D610090600FE025E02403F582E43460F583E020
:101D7100FFA3E090602CCFF0A3EFF090602CE0FE89
:101D8100A3E0FF12200F1220027F0312202990608E
:091D9100141212C8000000002227
:10162700906004E060030217C090604FE07003020F
:1016370017C0906050E064017064906003E0FF7E23
:10164700007C047DB0121149E4FCFD906014E0F8C1
:10165700A3E0F9A3E0FAA3E0FBC31212855003024B
:1016670017B59060141212C800000000906003E0E4
:10167700B401057403F08007906003E02403F09041
:10168700602CE0FEA3E0FFE4FCFD7B36FAF9F8D31B
:10169700121285506590602DE024DB0217A290603E
:1016A7002CE0FEA3E0FFE4FCFD7BAFFAF9F8C312E0
:1016B70012855049E47F28FEFDFC906014E0F8A3F2
:1016C700E0F9A3E0FAA3E0FBC31212855003021767
:1016D700B59060141212C80000000090602CE0FE64
:1016E700A3E0FFE4FCFD7B13FAF9F8D3121285504F
:1016F7000990602DE024FE0217A20217AC90602C1F
:10170700E0FEA3E0FFE4FCFD7B9DFAF9F8C31212AB
:10171700855047E47FF0FEFDFC906014E0F8A3E0FD
:10172700F9A3E0FAA3E0FBC312128550030217B531
:101737009060141212C80000000090602CE0FEA315
:10174700E0FFE4FCFD7B13FAF9F8D3121285500889
:1017570090602DE024FE8043804BE47FA47E01FD52
:10176700FC906014E0F8A3E0F9A3E0FAA3E0FBC360
:1017770012128540399060141212C80000000090C0
:10178700602CE0FEA3E0FFE4FCFD7B13FAF9F8D33D
:10179700121285501090602DE024FEF090602CE02E
:1017A70034FFF0800990602CE4F0A37411F090608E
:0A17B7002CE0FEA3E0FF12200F2239
:0320640002200F48
:101C830078E3E2543FF2E24440F2907195E4F0C20B
:101C9300A778C2E2543FF2E24440F2907181E4F04B
:101CA300C28378F2E254FCF2E24401F2E4F0C2B0FF
:101CB30078D2E254FCF2E24401F2907186E4F0C27D
:101CC3009078C3E2543FF2E24440F2907185E4F02D
:031CD300C28722A3
:03206700D28322FF
:03206A00C283220C
:03206D00D2B022CC
:03207000C2B022D9
:03207300D29022E6
:03207600C29022F3
:03207900D28722E9
:03207C00C28722F6
:101C0300021923E493A3F8E493A34003F68001F2BB
:101C130008DFF48029E493A3F85407240CC8C333E2
:101C2300C4540F4420C8834004F456800146F6DFB1
:101C3300E4800B0102040810204080901A4BE47EDC
:101C4300019360BCA3FF543F30E509541FFEE493A6
:101C5300A360010ECF54C025E060A840B8E493A36D
:101C6300FAE493A3F8E493A3C8C582C8CAC583CA98
:101C7300F0A3C8C582C8CAC583CADFE9DEE780BE50
:011B270000BD
:10114900EF8DF0A4A8F0CF8CF0A428CE8DF0A42EBA
:02115900FE2274
:10115B00E88FF0A4CC8BF0A42CFCE98EF0A42CFC33
:10116B008AF0EDA42CFCEA8EF0A4CDA8F08BF0A4B1
:10117B002DCC3825F0FDE98FF0A42CCD35F0FCEB10
:10118B008EF0A4FEA9F0EB8FF0A4CFC5F02ECD39D5
:0F119B00FEE43CFCEAA42DCE35F0FDE43CFC2242
:1011AA0075F008758200EF2FFFEE33FECD33CDCCFC
:1011BA0033CCC58233C5829BED9AEC99E58298407F
:1011CA000CF582EE9BFEED9AFDEC99FC0FD5F0D65C
:1011DA00E4CEFBE4CDFAE4CCF9A88222B800C1B986
:1011EA000059BA002DEC8BF084CFCECDFCE5F0CBC4
:1011FA00F97818EF2FFFEE33FEED33FDEC33FCEBFD
:10120A0033FB10D703994004EB99FB0FD8E5E4F9B7
:10121A00FA227818EF2FFFEE33FEED33FDEC33FCA4
:10122A00C933C910D7059BE99A4007EC9BFCE99A98
:10123A00F90FD8E0E4C9FAE4CCFB2275F010EF2FDD
:10124A00FFEE33FEED33FDCC33CCC833C810D707DD
:10125A009BEC9AE899400AED9BFDEC9AFCE899F818
:0E126A000FD5F0DAE4CDFBE4CCFAE4C8F922AB
:0D127800CFF4CFCEF4CECDF4CDCCF4CC220B
:10128500EB9FF5F0EA9E42F0E99D42F0E89C45F0BF
:011295002236
:10129600E8600FECC313FCED13FDEE13FEEF13FF36
:0312A600D8F1225A
:1012A900E8600FEFC333FFEE33FEED33FDEC33FCA3
:0312B900D8F12247
:0C12BC00ECF0A3EDF0A3EEF0A3EFF022A5
:1012C800A8828583F0D083D0821212DF1212DF1237
:1012D80012DF1212DFE473E493A3C583C5F0C5835C
:1012E800C8C582C8F0A3C583C5F0C583C8C582C870
:0112F80022D3
:1012F900D083D082F8E4937012740193700DA3A384
:1013090093F8740193F5828883E473740293686097
:06131900EFA3A3A380DF97
:10131F00EC8EF0A4CCC5F0CCCDF8EFA4CEC5F02D5B
:10132F00FDE43CFCE8A42EC8C5F03DFDE43CFCEF19
:0D133F00A4FFE5F028FEE43DFDE43CFC22A7
:100DE400E508245AF582E43460F583E0050822908E
:100DF400605730110390605AE475F0011213A40295
:100E0400134C200AE97F2ED20A8018EF540F249045
:100E1400D43440D4FF300E0BEF24BFB41A00500377
:100E24002461FFE50960021509050CE50C70020553
:100E34000B30110E906057E475F0011213A4EF0209
:100E4400139202205C7403D2118003E4C211F508EA
:100E54009060571213BBE4F509F50BF50CE5096036
:100E6400077F20120E2780F5750AFFC20BC20AC243
:100E74000CC20DC20FC210C212120DF3FF700D305E
:100E840011057F00120E38AF0CAE0B22B4255FC2E1
:100E9400D5C20E120DF3FF24D0B40A00501A75F017
:100EA4000A780930D50508B6FF0106C6A426F6203F
:100EB400D5047002D20D80D924CFB41A00EF5004A7
:100EC400C2E5D20E021039D20B80C6D20A80C0D23B
:100ED4000C80BCD2D580BAD20F80B47F20120E27EA
:100EE400200C077401B5090040F1120DE4FF120E45
:100EF40027020E61D212D2108095120DE4FB120D5E
:100F0400E4FA120DE4F94A4B7006790A7A117BFF70
:100F1400200C2EE509602A7E008E82758300121350
:100F24006560060EEE650A70F0C2D5EBC0E0EAC05B
:100F3400E0E9C0E0EE121080D0E0F9D0E0FAD0E0B1
:100F4400FB12134CFF60AAEBC0E0EAC0E0E9C0E08A
:100F5400120E27D0E02401F9D0E03400FAD0E0FBEF
:100F6400E50A0460DCD50AD980877BFF7A10797C96
:100F7400D20C809C791080027908C210C2128008B9
:100F8400D2D5790A8004790AC2D5E50A047002F53B
:100F94000AE4FAFDFEFF120DE4FC7B08200B131299
:100FA4000DE4FD7B10300A0A120DE4FE120DE4FF7D
:100FB4007B20EC3382D592D55013C3E4300A069FCC
:100FC400FFE49EFEE4200B039DFDE49CFCE4CBF8CF
:100FD400C20BEC700CCFCECDCCE824F8F870F380C3
:100FE40017C3EF33FFEE33FEED33FDEC33FCEB338D
:100FF400FB994002FB0FD8E9EB300B05F8D0E0C4B5
:1010040048B20BC0E00AEC4D4E4F78207B0070C212
:10101400EAB50A0040BCC0E0121082D0F0D0E02053
:101024000B04C4C0E0C4B20BC0F0120E10D0F0D553
:10103400F0EB020E611212F90EFE530F78580ECF28
:101044004C0ECB420F7C4F0F84440F84490EE44373
:081054000F8A550F6E460F6E66
:10105C00450F6E47112A500ED32D0ED72E0EFA2B9C
:10106C000EDB230EF82011132A0E934800000EF20B
:10107C003F3F3F00790AA2D5200D14300F09B9105B
:10108C00020404B9080104A2D52010025001042066
:10109C000C68920CB509005034C0E07F20300D195B
:1010AC007F30A20C7210720F500F1210D9C20CC2EA
:1010BC0010C20FC2127F30800F300F03E9C0E01254
:1010CC000E27300F03D0E0F9D0E0B509CC300F1764
:1010DC007F30B9100C120E277F58300E077F7880A6
:1010EC0003B90803120E27300C057F2D020E277F43
:1010FC00202012F87F2B2010F322920C80CF286E28
:10110C00756C6C2900D20B120DE4300BF8C20B7805
:10111C000930D50108F6020E932D50434958120D93
:10112C00E42403B405004001E490112593120E1839
:0D113C00743A120E18D20D750904020F78D6
:10134C00BB010689828A83E0225002E722BBFE029F
:09135C00E32289828A83E49322D2
:10136500BB010CE58229F582E5833AF583E022503D
:1013750006E92582F8E622BBFE06E92582F8E22287
:0D138500E58229F582E5833AF583E49322A1
:10139200BB010689828A83F0225002F722BBFE013A
:0213A200F32234
:1013A400F8E0FBA3A3E0F925F0F0E58215827002D2
:0713B4001583E0FA38F02276
:0913BB00EBF0A3EAF0A3E9F02233
:00000001FF
