:03000000021930B2
:0C193000787FE4F6D8FD7581210219775C
:0C000300000000000000000000000000F1
:0B1D8200EF1FAC0670011E4C70F62233
:101D4200AB07AA06EB1BAE0270011A4E60097FAA0E
:081D52007E05121D8280ED22C6
:1016EE00907120E04480F07F057E00121D82E4FFA1
:1016FE00FE121D4275A75575AC589071327450F09C
:10170E009071307403F0907136742FF07F18EF24BF
:10171E0066FDE434718D82F583E4F00FEFB433EEA1
:10172E00904011E4935407FF90711CE054F84FF071
:10173E00904017E493547FFF90711DE054804FF05A
:10174E00904010E493FF5401C43333335480FE9021
:10175E007123E0547F4EF0EFC313543F4440FFA378
:10176E00E054804FF0904012E493FF540FFE9071BE
:10177E0046E054F04EF0EFC4540FFF90714FE0541A
:10178E00F04FF0904013E493543FFF907140E054BB
:10179E00C04FF0904014E493907126F0904015E401
:0E17AE0093907128F0904016E49390712AF009
:0117BC00220A
:051A430042605B0000A1
:101BAD0078D3E24430F278E2E24430F2786AE244EB
:101BBD0078F27591FF907123E054D8F0E04459F01C
:0D1BCD009071227407F0439E7043994022EE
:101C06007869E254B7F2539940EFB4010543990E4F
:101C16008007EFB402034399127869E24448F27FE1
:061C2600017E00021D42D8
:10114700E4906006F0A3F0A3F090600912078E0008
:10115700000000E490600DF0A3F074FF90600FF0C2
:10116700A3F0E4906006F07869E24401F2786BE25C
:1011770030E1FAAF93EF75F010A4FFE594C4540F74
:10118700FDEF4DFF906007E5F0F0A3EFF07402F27A
:10119700906006E0C39402406D90600DE0FEA3E00E
:1011A700FFD3906008E09F906007E09E400CE0FF4F
:1011B700A3E090600DCFF0A3EFF090600FE0FEA3E7
:1011C700E0FFC3906008E09F906007E09E500CE04E
:1011D700FFA3E090600FCFF0A3EFF0906009E0F875
:1011E700A3E0F9A3E0FAA3E0FB906007E0FEA3E029
:1011F700FFE4FCFDEB2FFFEA3EFEED39FDEC38FC8A
:10120700906009120782906006E004F0E0641460C1
:101217000302116E906009E0FCA3E0FDA3E0FEA3CA
:10122700E0FFC006C00790600DE0FEA3E0FBAA0642
:10123700D007D006C3EF9BFFEE9AFEED9400FDECBE
:101247009400FC906009120782906009E0FCA3E01B
:10125700FDA3E0FEA3E0FFC006C00790600FE0FE1D
:10126700A3E0FBAA06D007D006C3EF9BFFEE9AFECA
:10127700ED9400FDEC9400FC9060091207829060E9
:1012870009E0FCA3E0FDA3E0FEA3E0FF780412075A
:101297005C906007EEF0A3EFF0906007E0FEA3E03C
:0112A700FF47
:0112A8002223
:101A48004260420000C10C41603E0041603F00C15D
:061A58000D426040000099
:101CF40043A820D2AF75D1017895E4F2187424F288
:0A1D0400789174A0F21874FDF22229
:03001E00020CB51C
:100CB500C0E0C0F0C083C082C0D075D000C000C005
:100CC50001C002C003C004C005C006C0077891E298
:0A0CD50020E703020F95E24480F2CD
:100CDF00D3906037E09414906036E09405500CA3E5
:100CEF00E004F07006906036E004F030A356D20CAA
:100CFF00D3906037E094B0906036E09404500302D4
:100D0F000E2FE4FFFEFDFC906038E0F8A3E0F9A39E
:100D1F00E0FAA3E0FB12074B6025200A229060380F
:100D2F00E0FCA3E0FDA3E0FEA3E0FF12073090601C
:100D3F005EEFF090603812078E00000000D20AC2FA
:100D4F0009020E2F200C03020E2DD3906037E09472
:100D5F0008906036E094005005C209020E26D39029
:100D6F006037E09412906036E09400501590603830
:100D7F00E0FCA3E0FDA3E0FEA3E0FF780112076F04
:100D8F008039D3906037E0941A906036E094005029
:100D9F0032906038E0FCA3E0FDA3E0FEA3E0FF7813
:100DAF000112076F906038120782906038E0FCA341
:100DBF00E0FDA3E0FEA3E04401FFEC9060381207D2
:100DCF00828054D3906037E09496906036E0940020
:100DDF004045D3A3E094A4906036E09401502720BF
:100DEF000A35906038E0FCA3E0FDA3E0FEA3E0FF2E
:100DFF0012073090605EEFF090603812078E00009F
:100E0F000000D20A8011D3906037E094B090603622
:100E1F00E094045002D209906036E4F0A3F0C20CC3
:100E2F0090603DE004F0700690603CE004F090604C
:100E3F003CE0FEA3E0FFD39414EE9400502F90609B
:100E4F0049E030E002D291906049E030E102D29265
:100E5F00906049E030E202D293906049E030E302C3
:100E6F00D294906049E030E40ED295800AC291C2CC
:100E7F0092C293C294C295C3EF9464EE940040075C
:070E8F0090603CE4F0A3F0C9
:100E960090603EE004F0E0C3940A5003020F6FE452
:100EA600F0A3E004F0E094C85003020F49E4F09088
:100EB6006050E064026003020F49200D4490604FC9
:100EC600E024FE601614601C1460221460282404BA
:100ED600702B906049E04401F08022906049E04424
:100EE60002F08019906049E04404F0801090604957
:100EF600E04408F08007906049E04410F0D20D808D
:100F06004290604FE024FE601614601C14602214A8
:100F160060282404702B906049E054FEF0802290F3
:100F26006049E054FDF08019906049E054FBF08080
:100F360010906049E054F7F08007906049E054EF64
:100F4600F0C20D906043E004F07006906042E00449
:100F5600F0C3906043E09488906042E094134009A7
:090F6600E4F0A3F090605204F0E5
:100F6F00906041E004F07006906040E004F0C390A0
:100F7F006041E09410906040E094274009E4F0A3B2
:060F8F00F090604A04F03E
:100F9500D007D006D005D004D003D002D001D000B0
:0B0FA500D0D0D082D083D0F0D0E0325A
:101BDA0078E3E254F3F2E24404F29071937410F061
:101BEA0075D10278A1740DF21874F2F278A3E4F2B6
:0C1BFA0018F2789D74A0F21874E2F22238
:101C77009071937410F075D10278A17401F2187401
:101C8700CBF278A3E4F218F2789D74A0F21874E20C
:021C9700F22237
:101C52009071937410F075D10278A1740DF218741A
:101C6200F2F278A37402F2187482F2789D74A0F2F0
:051C72001874FEF222CF
:0E1D5A00789CE254FCF2907193E4F0C2A52252
:081D98008FD7E5D430E4FB22F3
:101D0E0078C2E254CFF2E24410F29071807404F083
:0A1D1E0075D60175D59F75D210220D
:101B760078E3E254FCF2E24401F2907192740FF0C1
:101B860075D1049071057401F09071047476F0902B
:101B96007107E4F090710674BBF090710174A0F0C7
:071BA60090710074FEF022B3
:0D1D6800907192740FF090710074FEF022E3
:0F000F00907100E054FCF0907192E4F0C2A422D2
:101B380090605DEFF07E007C017D76120805E47B05
:101B4800FFFAF9F812069E780812075C907107EF01
:101B5800F090605DE0FF7E007C017D76120805E470
:0E1B68007BFFFAF9F812069E907106EFF0224C
:0B1D8D007379732072657365740A009F
:101A5E0041604800416049004160470041604400D8
:091A6E0041604A0042604500009D
:101AF10078D2E254F3F2E24404F2907187E4F0C246
:101B010091E254CFF2E24410F2A3E4F0C292E25423
:101B11003FF2E24440F2A3E4F0C29308E254FCF243
:101B2100E24401F2A3E4F0C294E254F3F2E2440489
:071B3100F2A3E4F0C29522CB
:0613E20090601E1207825C
:1013E800E4FFFE7D807C3F90601EE0F8A3E0F9A357
:1013F800E0FAA3E0FB120028C004C005C006C0073D
:10140800E4FFFE7D807CBF90601EE0F8A3E0F9A3B6
:10141800E0FAA3E0FB120028D003D002D001D000EC
:1014280012022290602312078290602712078E0012
:10143800000000906023E0FCA3E0FDA3E0FEA3E031
:10144800FF90602B120782E4906022F0906027E002
:10145800F8A3E0F9A3E0FAA3E0FBC000C001C002D2
:10146800C003906022E075F002A42401FDE435F089
:10147800FC12033DA804A905AA06AB0790602BE05F
:10148800FCA3E0FDA3E0FEA3E0FF120222D003D0FC
:1014980002D001D0001200289060271207829060C5
:1014A8002BE0F8A3E0F9A3E0FAA3E0FBC000C00139
:1014B800C002C003906023E0FCA3E0FDA3E0FEA30C
:1014C800E0FFA804A905AA06FB120119D003D0025F
:1014D800D001D00012011990602B1207829060226F
:1014E800E004F0E064326003021454E4FFFEFD7C83
:1014F80040906027E0F8A3E0F9A3E0FAA3E0FB023C
:021508000119C7
:06188A0090601E120782AF
:1018900090602312078E3F80000090602712078E11
:1018A0003F8000009060227401F0906027E0F8A370
:1018B000E0F9A3E0FAA3E0FBC000C001C002C0034E
:1018C000906022E0FCE4120342A804A905AA06AB3A
:1018D0000790601EE0FCA3E0FDA3E0FEA3E0FF1282
:1018E0000222D003D002D001D0001201199060274B
:1018F000120782906023E0FCA3E0FDA3E0FEA3E0DA
:10190000FFA3E0F8A3E0F9A3E0FAA3E0FB120028AC
:10191000906023120782906022E004F0E06414706B
:0F19200089906023E0FCA3E0FDA3E0FEA3E0FFBD
:01192F002295
:1019BC00906016120782E4FFFEFDFC906016E0F8C2
:1019CC00A3E0F9A3E0FAA3E0FB1202BF6002500609
:1019DC00E4FFFEFDFC22E4FFFEFDFC90601AE0F843
:1019EC00A3E0F9A3E0FAA3E0FB1202BF7002801A95
:1019FC00E4FFFE7D807C3F906016E0F8A3E0F9A345
:101A0C00E0FAA3E0FB1202BF7007FFFE7D807C3F73
:101A1C0022906016E0FCA3E0FDA3E0FEA3E0FF1221
:101A2C0013E290601AE0F8A3E0F9A3E0FAA3E0FB5C
:071A3C0012011912188A22A1
:06150A009060061207824A
:1015100090600A12078E442A000090600E12078E17
:101520003FA8F5C3E47F64FEFDFC906006E0F8A3ED
:10153000E0F9A3E0FAA3E0FBC312074B50037F00DE
:1015400022906006E0FCA3E0FDA3E0FEA3E0FFE440
:101550007BE87A03F9F812069E90600612078290E3
:101560006006E0FCA3E0FDA3E0FEA3E0FFE41203BD
:1015700038C004C005C006C00790600EE0FCA3E0C0
:10158000FDA3E0FEA3E0FF90601A120782D007D00F
:1015900006D005D0041219BCA804A905AA06AB07F9
:1015A00090600AE0FCA3E0FDA3E0FEA3E0FF1202CE
:1015B00022906012120782E4FFFEFDFC906012E0B0
:1015C000F8A3E0F9A3E0FAA3E0FB1202BF500A90EF
:1015D000601212078E00000000E4FFFE7DC87C420E
:1015E000906012E0F8A3E0F9A3E0FAA3E0FB120296
:1015F000BF600C400A90601212078E42C80000E4DF
:10160000FFFEFD7C3F906012E0F8A3E0F9A3E0FA52
:09161000A3E0FB1200281203768E
:0116190022AE
:1017BD0075D9DD1216EE75D95590715EE054FEF0B7
:1017CD0075D9BB121D0E121CF4121BDA121D5A1202
:1017DD001B7612000F121AF178E2E2543FF278E014
:1017ED00E24408F2121BAD7BFF7A1D798D12089D24
:1017FD00121C777F01121C0612114790604DEEF0FE
:03180D00A3EFF056
:1018100090600012078E00000000E4906004F0A3C6
:10182000F090604DE0FEA3E0FF7C557DF0120805CE
:10183000E4FB7A10F9F812069E906000120782907D
:101840006000E0FCA3E0FDA3E0FEA3E0FF12150AA8
:10185000906004E4F0A3EFF0906004E0FEA3E0FFEA
:101860007C017DCB120805E47B64FAF9F812069E30
:10187000906004EEF0A3EFF0906004E0FCA3E0FDC4
:07188000EC78A3F2ED18F271
:0318870002180044
:0D1D7500E5F430E4FB8FF7E5F430E4FB22E9
:101D280078E3E254F3F2E24404F29071937404F01D
:0A1D380075D60175D59F75D21022F3
:101C990064697361626C65206368617267650A00D3
:101CA9006C6F7720666571206368617267650A00E9
:0C1A770041605A00416059004160580075
:100FB00090605AE07036D390604EE094E890604DB7
:100FC000E0940250069060597401F0C390604EE0C6
:100FD000949090604DE09403500302114690605944
:0C0FE000E07003021146E4F0A304F022CC
:100FEC00D390604EE094E890604DE09402400E90F7
:100FFC00604CE0946690604BE0940E4014121D5AC5
:10100C00E490605AF0906058F07BFF7A1C799980DC
:10101C0073D390604CE0946690604BE0940B401B53
:10102C00A3E0943390604BE0940E500FC390604E4D
:10103C00E094A290604DE09403504C906058E064B2
:10104C0001700302114690605412078E00000004D8
:10105C00906054E0FCA3E0FDA3E0FEA3E0FF780861
:10106C0012075C78A3EFF2906054E0FCA3E0FDA3C0
:10107C00E0FEA3E0FF18EFF29060587401F07BFFE4
:10108C007A1C79A902089D906058E06402600912EC
:10109C001C779060587402F0906058E06402600312
:1010AC0002114690604DE0FEA3E0FF7CD47D5A1205
:1010BC000805E4FB7A10F9F812069EC374259FFF0D
:1010CC0074589EFE74019DFDE49CFC9060541207C4
:1010DC0082E47FCB7E01FDFC906054E0F8A3E0F944
:1010EC00A3E0FAA3E0FB120613E47BE87A03F9F819
:1010FC0012069EE47B64FAF9F812069E9060541274
:10110C000782906054A3A3E0FEA3E04E700A9060A7
:10111C005412078E00000000906054E0FCA3E0FD28
:10112C00A3E0FEA3E0FF780812075C78A3EFF2902F
:0A113C006054A3A3A3E0FF18EFF234
:011146002286
:0A1A830041605E00C109C10AC10BF9
:101CB900E4906042F0A3F0906049E054FEF0E054F3
:0F1CC900FDF0E054FBF0E054F7F0E054EFF022B0
:101CD800300B18EFB4020790604FEDF0800590606C
:0C1CE80051EDF0906050EFF0121CB9229A
:10161A00200A030216EDC20A90605EE01207DF1686
:10162A006B02168D1816D422168730169F62168101
:10163A0068166F90167B981651A21673A81677E053
:10164A001694E2000016ED300B030216ED121CB9D7
:10165A00906050E004F0E0D3940350030216ED804A
:10166A00657D01800E7D02800A7D0380067D0480EF
:10167A00027D057F0280107D017F03800A7D027F43
:10168A000380047D037F03021CD8D20B9060507440
:10169A0002F0021CB990604FE024FC600514600A55
:1016AA00800E9060447491F08006906044747EF0DD
:1016BA00906044E0906047F0E0FF121B38121C2C47
:1016CA00121D689060507401F022906044E0D39437
:1016DA00004010121C2CE4906044F0906047F09097
:0416EA006050F0223A
:101A8D004160530541604F05416051014160520075
:1012A900906050E07003021CB9906050E0640160E6
:1012B90003021397906049E04401F0D390604CE039
:1012C90094CC90604BE0940C400B906053E09405F3
:1012D90040037405F0C390604CE094CC90604BE0FF
:1012E900940C500C906053E0C3940440037404F0D0
:1012F900C390604CE0943390604BE0940C500C9098
:101309006053E0C3940340037403F0C390604CE05E
:10131900946690604BE0940B500C906053E0C3943A
:101329000240037402F0C390604CE0949990604BC2
:10133900E0940A50069060537401F0906053E0C342
:101349009405906049E040054410F0800354EFF0A3
:10135900906053E0C39404906049E040054408F06C
:10136900800354F7F0906053E0C39403906049E020
:1013790040054404F0800354FBF0906053E0C394AB
:1013890002906049E04002802654FDF0802D906073
:1013990050E0B40326A3E024FE6010146016240272
:1013A9007019906049E04401F08010906049E04470
:1013B90002F08007906049E04404F0906052E060D8
:1013C90017E4F0906047E060089060507401F08085
:0913D90005E4906050F0C20B2203
:101C2C00E490605FF0121D687FA17E00121D4212CD
:101C3C00000F7FA17E00121D4290605FE004F0E077
:051C4C00C3940340E019
:011C51002270
:101A9E0090604AE06010E4F0906046E004F070065A
:0E1AAE00906045E004F0906051E064017034F7
:101ABC00906060E02401FFE433FE7C047DB01206EC
:101ACC0001C3906046E09F906045E09E4016906098
:101ADC0060E004F0906044E094F87480947F4004DB
:041AEC00E024E7F01B
:011AF00022D3
:100021000203E2E86480F8E933E83360110460F028
:10003100ED33EC337009E8FCE9FDEAFEEBFF220445
:1000410060DED3EB9FEA9EE99DE8C2E78CF0C2F740
:1000510095F0400CE8CCF8E9CDF9EACEFAEBCFFB0C
:100061001203AD85D0F05804700320D5B3E80470B5
:10007100075002B2D50203EC92D5EC0460F7E4CC50
:10008100C0E0C398F8603B94186008400DD0E0FBD5
:100091000203C4E4FBFAC9FC8028E830E406E4C9A1
:1000A100FBE4CAFCE830E305E4C9CACBFCE8540729
:1000B1006010F8C3E913F9EA13FAEB13FBEC13FC34
:1000C100D8F130F52FC3E49CFCEF9BFFEE9AFEEDD7
:1000D10099FDD0E0FBEF4E4D4C701222DB03020381
:1000E100E9EC2CFCEF33FFEE33FEED33FDED30E7B1
:1000F100EB0203C4EF2BFFEE3AFEED39FDD0E0FB3E
:1001010050130BBB00030203ECED13FDEE13FEEFE6
:0801110013FFEC13FC0203C410
:10011900EC4D6011E8497017ED33EC3304600DE4E0
:10012900FCFFFEFD22E933E8330470F80203E21212
:1001390003AD58046009E4CC248150062850090213
:1001490003EC2840030203E9C0E0EB4A7044B9809C
:1001590006D0E0FB0203D8EF4E701CBD8008EBFF10
:10016900EAFEE9FD80EBE98DF0A4FEE5F00202026A
:10017900E9CDF9EAFEEBFFEF89F0A4FCE5F0CE89C1
:10018900F0A42EFFE435F0CD89F0A42DFEE435F07E
:100199008067EF4E7005BD80D780C3EF8BF0A4ACAC
:1001A900F0EE8BF0A42CFCE435F0F8EF8AF0A42CE7
:1001B900E5F038FCE433CB8DF0A42CFCE5F03BF8FA
:1001C900EE8AF0A42CFCE5F038F8E433CF89F0A4EA
:1001D9002CFCE5F038CF3400CE89F0A42FFFE5F0F0
:1001E9003EFEE433C98DF0A42EFEE5F039CD8AF048
:1001F900A42FFFE5F03EFEE43DFD33D0E0FB5007C0
:100209000BBB000F0203ECEC2CFCEF33FFEE33FECB
:06021900ED33FD0203C4F9
:10021F000203ECEC5D046005E8590470030203E28D
:10022F001203AD580460F6EC4860F2EC7004FDFE6A
:10023F00FF22C860DB2481C85009C39860025006B2
:10024F000203E99850CAF582E9294B4A7005AB823F
:10025F000203D875F0007C1A7880C3EF9BEE9AEDFD
:10026F0099400DC3EF9BFFEE9AFEED99FDE842F02A
:10027F00DC23ACF0D0E0FFD0E0FED0E0FDAB82207D
:10028F00E7101BEB60BAEC2CFCEF33FFEE33FEED07
:10029F0033FD0203C4E803F830E705C0F075F00042
:1002AF00EF2FFFEE33FEED33FD40B830E7C280AAEB
:1002BF0074F8CC6480CCC86480C8F58204604FC3E6
:1002CF00EB9FF5F0EA9E42F0E99D42F0E89C45F085
:1002DF00603C501DE5825FFFE582D313CB5BCBF40F
:1002EF002B5582FB50280ABA002409B90020088038
:1002FF001DE5825BFBE582D313CF5FCFF4C3132FD2
:10030F005582FF50090EBE00050DBD00010CC3EB59
:10031F009FF5F0EA9E42F0E99D42F0E89C45F060BF
:09032F0007CC4820E701B3EC22E1
:1003380075F020800E75F010800575F0087D007E40
:10034800007F003392D530D50312073DEC334010BF
:10035800EF33FFEE33FEED33FDEC33FCD5F0ED2249
:0E036800E5F0247EA2D513CC92E7CDCEFF2285
:10037600EDD2E7CD33EC3392D524814006E4FFFE7F
:10038600FDFC22FCE4CFCECDCC24E0501174FF80DE
:10039600EDC3CC13CCCD13CDCE13CECF13CF04707B
:0703A600F030D5DE02073D37
:10083200E5082409F582E43460F583E00508229096
:100842006006300703906009E475F0011207BF02E9
:1008520005A92000E97F2ED2008018EF540F2490C2
:10086200D43440D4FF30040BEF24BFB41A00500339
:100872002461FFE50960021509050CE50C7002050B
:100882000B30070E906006E475F0011207BFEF020D
:1008920005EF021D987403D2078003E4C207F5082E
:1008A2009060061207D6E4F509F50BF50CE5096030
:1008B200077F2012087580F5750AFFC201C200C2C7
:1008C20002C203C205C206C208120841FF700D30FF
:1008D20007057F00120886AF0CAE0B22B4255FC25B
:1008E200D5C204120841FF24D0B40A00501A75F090
:1008F2000A780930D50508B6FF0106C6A426F620F7
:10090200D5047002D20380D924CFB41A00EF500468
:10091200C2E5D204020B78D20180C6D20080C0D2D6
:100922000280BCD2D580BAD20580B47F201208756D
:100932002002077401B5090040F1120832FF1208C3
:10094200750208AFD208D2068095120832FB12084F
:1009520032FA120832F94A4B700679767A0C7BFF2A
:1009620020022EE509602A7E008E82758300120520
:10097200C260060EEE650A70F0C2D5EBC0E0EAC0B6
:10098200E0E9C0E0EE120BD9D0E0F9D0E0FAD0E015
:10099200FB1205A9FF60AAEBC0E0EAC0E0E9C0E0F3
:1009A200120875D0E02401F9D0E03400FAD0E0FB5F
:1009B200E50A0460DCD50AD98087D20280A2120B34
:1009C200BB60F7E50A7001041203F7A90A600DE59E
:1009D2000A600914F50A120C63EF60F3EA30E702C9
:1009E200F404C3995079EAF4250A0430E701E404D7
:1009F200F50A800D120BBB60C1EA050A250A120333
:100A0200F7EA906035F030E701E4250A04D50A04DC
:100A120020050114120BD9E4C0E0120C639060357A
:100A2200E0601320E70714F012085D802204F0D082
:100A3200E014C0E07F0012085DE50A600712085466
:100A4200150A800B300503120854D0E00208AFD01B
:100A5200E00480C4120BBB609EE50A041203F79007
:100A62006035EAF0E50A2005026001042404120B55
:010A7200D9AA
:100A730074FF04C0E0120C6312085DE50A2005024E
:100A83006003120854D0E0B50AE87F451208679066
:100A93006035E07F2B30E7047F2DF404C0E01208BB
:100AA30075D0E075F00A84C0F012085ED0E0120839
:100AB3005E0208AF791080027908C206C208800876
:100AC300D2D5790A8004790AC2D5E50A047002F501
:100AD3000AE4FAFDFEFF120832FC7B082001131220
:100AE3000832FD7B1030000A120832FE120832FF72
:100AF3007B20EC3382D592D55013C3E43000069F9C
:100B0300FFE49EFEE42001039DFDE49CFCE4CBF89E
:100B1300C201EC700CCFCECDCCE824F8F870F38092
:100B230017C3EF33FFEE33FEED33FDEC33FCEB3352
:100B3300FB994002FB0FD8E9EB300105F8D0E0C484
:100B430048B201C0E00AEC4D4E4F78207B0070C2E2
:100B5300EAB50A0040BCC0E0120BDBD0F0D0E020C5
:100B63000104C4C0E0C4B201C0F012085ED0F0D5E5
:100B7300F0EB0208AF1207DF094C530AB758091DFF
:100B83004C0919420ABB4F0AC3440AC349093243F9
:100B93000AC95509F6460A564509C0470C96500935
:100BA300212D09252E09482B0929230946200C7FCD
:100BB3002A08E14800000940E50AB4FF03750A0664
:100BC300120832FC120832FD120832FE120832FFFC
:100BD30090602E020434790AA2D52003143005094B
:100BE300B910020404B9080104A2D5200602500179
:100BF300042002689202B509005034C0E07F20301F
:100C030003197F30A20272067205500F120C32C212
:100C130002C206C205C2087F30800F300503E9C057
:100C2300E0120875300503D0E0F9D0E0B509CC3007
:100C330005177F30B9100C1208757F583004077FF1
:100C4300788003B908031208753002057F2D020866
:100C5300757F202008F87F2B2006F322920280CF95
:100C63007F00B40700500B242EF582E43460F58333
:100C7300E0FF22286E756C6C2900D2011208323015
:100C830001F8C201780930D50108F60208E12D50B8
:100C93004349581208322403B405004001E4900C80
:100CA3009193120866743A120866D2037509040216
:020CB3000AB77E
:1003AD00E9D2E7C933E833F892D5EDD2E7CD33EC96
:0703BD0033FC5002B2D5220F
:1003C400EC30E7100FBF000C0EBE00080DBD00049A
:1003D4000BEB6014A2D5EB13FCED92E7FD2274FF46
:1003E400FCFDFEFF22E480F8A2D574FF13FC7D809F
:0303F400E480EFB3
:1003F700F920E73624F950037907E4F42402FBE5F2
:1004070082158270021583DBF6E024FB501BE9603E
:1004170014E4F0E582158270021583E004F0B40A53
:0D04270008E4F0D9EE7401F00A22C2D522DB
:10043400ED33EC3392D5FA602AB4FF33EDC2E77B97
:10044400FF60067A047959E4227A04796220D5049B
:100454007A04795D224E614E002B494E46002D49A7
:100464004E4600E47A08F0A3DAFC7B00740722C04D
:1004740083C082ECC0E0EDC0E0EEC0E0EFC0E0EA93
:1004840075F010A4CAABF075F04DA42BFBE435F065
:10049400FCEA2410FAEB34C5FBEC34D9FCEDC2E7DA
:1004A400FF75F056A4F42411C5F0F434C58FF0A4FC
:1004B4002AE5F03BE43CF020E714120569D0E0FFA4
:1004C400D0E0FED0E0FDD0E0FC1202228014F4045F
:1004D400120569D0E0FFD0E0FED0E0FDD0E0FC12D0
:1004E4000119D082D083E0FAEDD2E7CD33EC332486
:1004F40082FBE4C3CF33CFCE33CECD33CD33DBF366
:100504007B0775F00A846004F0A31B0AE5F0F0A3EE
:100514008FF0740AA4FFACF08EF0740AA42CFEAC25
:10052400F050010C8DF0740AA42CFDE435F0F0A316
:05053400DBDE7407226C
:100539003F8000004120000042C80000447A0000CA
:10054900461C400047C35000497424004B1896804C
:100559004CBEBC205A0E1BCA6753C21C749DC5AE43
:10056900FB60065407601C2323120597EB5438607F
:1005790009120583120592120119ECF8EDF9EEFA48
:10058900EFCB22EB12059280F1543803241C90051D
:1005990039FE93FC0EEE93FD0EEE930ECE93FF22E1
:10193C000217BDE493A3F8E493A34003F68001F2ED
:10194C0008DFF48029E493A3F85407240CC8C333AC
:10195C00C4540F4420C8834004F456800146F6DF7B
:10196C00E4800B0102040810204080901A43E47EAE
:10197C00019360BCA3FF543F30E509541FFEE49370
:10198C00A360010ECF54C025E060A840B8E493A337
:10199C00FAE493A3F8E493A3C8C582C8CAC583CA62
:1019AC00F0A3C8C582C8CAC583CADFE9DEE780BE1A
:011A9D000048
:1005A900BB010689828A83E0225002E722BBFE0250
:0905B900E32289828A83E4932283
:1005C200BB010CE58229F582E5833AF583E02250EE
:1005D20006E92582F8E622BBFE06E92582F8E22238
:0D05E200E58229F582E5833AF583E4932252
:1005EF00BB010689828A83F0225002F722BBFE01EB
:0205FF00F322E5
:10060100EF8DF0A4A8F0CF8CF0A428CE8DF0A42E0D
:02061100FE22C7
:10061300E88FF0A4CC8BF0A42CFCE98EF0A42CFC86
:100623008AF0EDA42CFCEA8EF0A4CDA8F08BF0A404
:100633002DCC3825F0FDE98FF0A42CCD35F0FCEB63
:100643008EF0A4FEA9F0EB8FF0A4CFC5F02ECD3928
:0F065300FEE43CFCEAA42DCE35F0FDE43CFC2295
:1006620075F008758200EF2FFFEE33FECD33CDCC4F
:1006720033CCC58233C5829BED9AEC99E5829840D2
:100682000CF582EE9BFEED9AFDEC99FC0FD5F0D6AF
:10069200E4CEFBE4CDFAE4CCF9A88222B800C1B9D9
:1006A2000059BA002DEC8BF084CFCECDFCE5F0CB17
:1006B200F97818EF2FFFEE33FEED33FDEC33FCEB50
:1006C20033FB10D703994004EB99FB0FD8E5E4F90B
:1006D200FA227818EF2FFFEE33FEED33FDEC33FCF8
:1006E200C933C910D7059BE99A4007EC9BFCE99AEC
:1006F200F90FD8E0E4C9FAE4CCFB2275F010EF2F31
:10070200FFEE33FEED33FDCC33CCC833C810D70730
:100712009BEC9AE899400AED9BFDEC9AFCE899F86B
:0E0722000FD5F0DAE4CDFBE4CCFAE4C8F922FE
:0D073000CFF4CFCEF4CECDF4CDCCF4CC225E
:0E073D00C3E49FFFE49EFEE49DFDE49CFC22CD
:10074B00EB9FF5F0EA9E42F0E99D42F0E89C45F004
:01075B00227B
:10075C00E8600FECC313FCED13FDEE13FEEF13FF7B
:03076C00D8F1229F
:10076F00E8600FEFC333FFEE33FEED33FDEC33FCE8
:03077F00D8F1228C
:0C078200ECF0A3EDF0A3EEF0A3EFF022EA
:10078E00A8828583F0D083D0821207A51207A51206
:10079E0007A51207A5E473E493A3C583C5F0C5832B
:1007AE00C8C582C8F0A3C583C5F0C583C8C582C8B5
:0107BE002218
:1007BF00F8E0FBA3A3E0F925F0F0E58215827002C3
:0707CF001583E0FA38F02267
:0907D600EBF0A3EAF0A3E9F02224
:1007DF00D083D082F8E4937012740193700DA3A3A9
:1007EF0093F8740193F5828883E4737402936860BD
:0607FF00EFA3A3A380DFBD
:10080500EC8EF0A4CCC5F0CCCDF8EFA4CEC5F02D80
:10081500FDE43CFCE8A42EC8C5F03DFDE43CFCEF3E
:0D082500A4FFE5F028FEE43DFDE43CFC22CC
:00000001FF
